{
  "contractName": "cooptationProcedure",
  "abi": [
    {
      "constant": true,
      "inputs": [
        {
          "name": "",
          "type": "address"
        },
        {
          "name": "",
          "type": "uint256"
        }
      ],
      "name": "propositionToUser",
      "outputs": [
        {
          "name": "",
          "type": "uint256"
        }
      ],
      "payable": false,
      "stateMutability": "view",
      "type": "function"
    },
    {
      "constant": true,
      "inputs": [],
      "name": "procedureTypeNumber",
      "outputs": [
        {
          "name": "",
          "type": "int256"
        }
      ],
      "payable": false,
      "stateMutability": "view",
      "type": "function"
    },
    {
      "constant": true,
      "inputs": [],
      "name": "quorumSize",
      "outputs": [
        {
          "name": "",
          "type": "uint256"
        }
      ],
      "payable": false,
      "stateMutability": "view",
      "type": "function"
    },
    {
      "constant": true,
      "inputs": [
        {
          "name": "",
          "type": "address"
        },
        {
          "name": "",
          "type": "uint256"
        }
      ],
      "name": "propositionToPromulgator",
      "outputs": [
        {
          "name": "",
          "type": "uint256"
        }
      ],
      "payable": false,
      "stateMutability": "view",
      "type": "function"
    },
    {
      "constant": true,
      "inputs": [],
      "name": "kelsenVersionNumber",
      "outputs": [
        {
          "name": "",
          "type": "int256"
        }
      ],
      "payable": false,
      "stateMutability": "view",
      "type": "function"
    },
    {
      "constant": true,
      "inputs": [],
      "name": "membersWithVetoOrganContract",
      "outputs": [
        {
          "name": "",
          "type": "address"
        }
      ],
      "payable": false,
      "stateMutability": "view",
      "type": "function"
    },
    {
      "constant": true,
      "inputs": [
        {
          "name": "",
          "type": "address"
        },
        {
          "name": "",
          "type": "uint256"
        }
      ],
      "name": "propositionToVoter",
      "outputs": [
        {
          "name": "",
          "type": "uint256"
        }
      ],
      "payable": false,
      "stateMutability": "view",
      "type": "function"
    },
    {
      "constant": true,
      "inputs": [],
      "name": "finalPromulgatorsOrganContract",
      "outputs": [
        {
          "name": "",
          "type": "address"
        }
      ],
      "payable": false,
      "stateMutability": "view",
      "type": "function"
    },
    {
      "constant": true,
      "inputs": [],
      "name": "totalPropositionNumber",
      "outputs": [
        {
          "name": "",
          "type": "uint256"
        }
      ],
      "payable": false,
      "stateMutability": "view",
      "type": "function"
    },
    {
      "constant": true,
      "inputs": [],
      "name": "isAnOrgan",
      "outputs": [
        {
          "name": "",
          "type": "bool"
        }
      ],
      "payable": false,
      "stateMutability": "view",
      "type": "function"
    },
    {
      "constant": true,
      "inputs": [],
      "name": "votingPeriodDuration",
      "outputs": [
        {
          "name": "",
          "type": "uint256"
        }
      ],
      "payable": false,
      "stateMutability": "view",
      "type": "function"
    },
    {
      "constant": true,
      "inputs": [],
      "name": "membersOrganContract",
      "outputs": [
        {
          "name": "",
          "type": "address"
        }
      ],
      "payable": false,
      "stateMutability": "view",
      "type": "function"
    },
    {
      "constant": true,
      "inputs": [
        {
          "name": "",
          "type": "uint256"
        }
      ],
      "name": "propositionsWaitingPromulgation",
      "outputs": [
        {
          "name": "",
          "type": "bool"
        }
      ],
      "payable": false,
      "stateMutability": "view",
      "type": "function"
    },
    {
      "constant": true,
      "inputs": [],
      "name": "promulgationPeriodDuration",
      "outputs": [
        {
          "name": "",
          "type": "uint256"
        }
      ],
      "payable": false,
      "stateMutability": "view",
      "type": "function"
    },
    {
      "constant": true,
      "inputs": [
        {
          "name": "",
          "type": "address"
        },
        {
          "name": "",
          "type": "uint256"
        }
      ],
      "name": "propositionToVetoer",
      "outputs": [
        {
          "name": "",
          "type": "uint256"
        }
      ],
      "payable": false,
      "stateMutability": "view",
      "type": "function"
    },
    {
      "constant": true,
      "inputs": [
        {
          "name": "",
          "type": "uint256"
        }
      ],
      "name": "propositionsWaitingEndOfVote",
      "outputs": [
        {
          "name": "",
          "type": "bool"
        }
      ],
      "payable": false,
      "stateMutability": "view",
      "type": "function"
    },
    {
      "constant": true,
      "inputs": [],
      "name": "isAProcedure",
      "outputs": [
        {
          "name": "",
          "type": "bool"
        }
      ],
      "payable": false,
      "stateMutability": "view",
      "type": "function"
    },
    {
      "anonymous": false,
      "inputs": [
        {
          "indexed": false,
          "name": "_candidateAddress",
          "type": "address"
        },
        {
          "indexed": false,
          "name": "_deposit",
          "type": "uint256"
        },
        {
          "indexed": false,
          "name": "_ipfsHash",
          "type": "bytes32"
        },
        {
          "indexed": false,
          "name": "_hash_function",
          "type": "uint8"
        },
        {
          "indexed": false,
          "name": "_size",
          "type": "uint8"
        }
      ],
      "name": "createPropositionEvent",
      "type": "event"
    },
    {
      "anonymous": false,
      "inputs": [
        {
          "indexed": false,
          "name": "_from",
          "type": "address"
        },
        {
          "indexed": false,
          "name": "_propositionNumber",
          "type": "uint256"
        }
      ],
      "name": "voteOnProposition",
      "type": "event"
    },
    {
      "anonymous": false,
      "inputs": [
        {
          "indexed": false,
          "name": "_from",
          "type": "address"
        },
        {
          "indexed": false,
          "name": "_propositionNumber",
          "type": "uint256"
        },
        {
          "indexed": false,
          "name": "_decision",
          "type": "bool"
        }
      ],
      "name": "vetoProposition",
      "type": "event"
    },
    {
      "anonymous": false,
      "inputs": [
        {
          "indexed": false,
          "name": "_from",
          "type": "address"
        },
        {
          "indexed": false,
          "name": "_propositionNumber",
          "type": "uint256"
        }
      ],
      "name": "countVotes",
      "type": "event"
    },
    {
      "anonymous": false,
      "inputs": [
        {
          "indexed": false,
          "name": "_from",
          "type": "address"
        },
        {
          "indexed": false,
          "name": "_propositionNumber",
          "type": "uint256"
        }
      ],
      "name": "promulgatePropositionEvent",
      "type": "event"
    },
    {
      "anonymous": false,
      "inputs": [
        {
          "indexed": false,
          "name": "_from",
          "type": "address"
        },
        {
          "indexed": false,
          "name": "_propositionNumber",
          "type": "uint256"
        },
        {
          "indexed": false,
          "name": "_value",
          "type": "uint256"
        }
      ],
      "name": "withdrawal",
      "type": "event"
    },
    {
      "constant": false,
      "inputs": [
        {
          "name": "_name",
          "type": "string"
        },
        {
          "name": "_ipfsHash",
          "type": "bytes32"
        },
        {
          "name": "_hash_function",
          "type": "uint8"
        },
        {
          "name": "_size",
          "type": "uint8"
        }
      ],
      "name": "createProposition",
      "outputs": [
        {
          "name": "propositionNumber",
          "type": "uint256"
        }
      ],
      "payable": true,
      "stateMutability": "payable",
      "type": "function"
    },
    {
      "constant": false,
      "inputs": [
        {
          "name": "_propositionNumber",
          "type": "uint256"
        },
        {
          "name": "_acceptProposition",
          "type": "bool"
        }
      ],
      "name": "vote",
      "outputs": [],
      "payable": false,
      "stateMutability": "nonpayable",
      "type": "function"
    },
    {
      "constant": false,
      "inputs": [
        {
          "name": "_propositionNumber",
          "type": "uint256"
        },
        {
          "name": "_acceptProposition",
          "type": "bool"
        }
      ],
      "name": "veto",
      "outputs": [],
      "payable": false,
      "stateMutability": "nonpayable",
      "type": "function"
    },
    {
      "constant": false,
      "inputs": [
        {
          "name": "_propositionNumber",
          "type": "uint256"
        }
      ],
      "name": "endPropositionVote",
      "outputs": [
        {
          "name": "hasBeenAccepted",
          "type": "bool"
        }
      ],
      "payable": false,
      "stateMutability": "nonpayable",
      "type": "function"
    },
    {
      "constant": false,
      "inputs": [
        {
          "name": "_propositionNumber",
          "type": "uint256"
        }
      ],
      "name": "promulgateProposition",
      "outputs": [],
      "payable": false,
      "stateMutability": "nonpayable",
      "type": "function"
    },
    {
      "constant": false,
      "inputs": [
        {
          "name": "_propositionNumber",
          "type": "uint256"
        }
      ],
      "name": "withDrawPayout",
      "outputs": [],
      "payable": false,
      "stateMutability": "nonpayable",
      "type": "function"
    },
    {
      "constant": true,
      "inputs": [
        {
          "name": "_propositionNumber",
          "type": "uint256"
        }
      ],
      "name": "getPropositionDetails",
      "outputs": [
        {
          "name": "_candidateAddress",
          "type": "address"
        },
        {
          "name": "_name",
          "type": "string"
        },
        {
          "name": "_ipfsHash",
          "type": "bytes32"
        },
        {
          "name": "_hash_function",
          "type": "uint8"
        },
        {
          "name": "_size",
          "type": "uint8"
        }
      ],
      "payable": false,
      "stateMutability": "view",
      "type": "function"
    },
    {
      "constant": true,
      "inputs": [
        {
          "name": "_propositionNumber",
          "type": "uint256"
        }
      ],
      "name": "getPropositionDates",
      "outputs": [
        {
          "name": "_startDate",
          "type": "uint256"
        },
        {
          "name": "_votingPeriodEndDate",
          "type": "uint256"
        },
        {
          "name": "_promulgatorWindowEndDate",
          "type": "uint256"
        }
      ],
      "payable": false,
      "stateMutability": "view",
      "type": "function"
    },
    {
      "constant": true,
      "inputs": [
        {
          "name": "_propositionNumber",
          "type": "uint256"
        }
      ],
      "name": "getPropositionStatus",
      "outputs": [
        {
          "name": "_wasCounted",
          "type": "bool"
        },
        {
          "name": "_wasEnacted",
          "type": "bool"
        }
      ],
      "payable": false,
      "stateMutability": "view",
      "type": "function"
    },
    {
      "constant": true,
      "inputs": [
        {
          "name": "_propositionNumber",
          "type": "uint256"
        }
      ],
      "name": "getVotedPropositionResults",
      "outputs": [
        {
          "name": "_startDate",
          "type": "uint256"
        },
        {
          "name": "_totalVoteCount",
          "type": "uint256"
        },
        {
          "name": "_voteFor",
          "type": "uint256"
        },
        {
          "name": "_vetoCount",
          "type": "uint256"
        },
        {
          "name": "_notVetoCount",
          "type": "uint256"
        },
        {
          "name": "_wasAccepted",
          "type": "bool"
        }
      ],
      "payable": false,
      "stateMutability": "view",
      "type": "function"
    },
    {
      "constant": true,
      "inputs": [
        {
          "name": "_userAddress",
          "type": "address"
        }
      ],
      "name": "getPropositionsCreatedByUser",
      "outputs": [
        {
          "name": "",
          "type": "uint256[]"
        }
      ],
      "payable": false,
      "stateMutability": "view",
      "type": "function"
    },
    {
      "constant": true,
      "inputs": [
        {
          "name": "_userAddress",
          "type": "address"
        }
      ],
      "name": "getPropositionsVetoedByUser",
      "outputs": [
        {
          "name": "",
          "type": "uint256[]"
        }
      ],
      "payable": false,
      "stateMutability": "view",
      "type": "function"
    },
    {
      "constant": true,
      "inputs": [
        {
          "name": "_userAddress",
          "type": "address"
        }
      ],
      "name": "getPropositionsPromulgatedByUser",
      "outputs": [
        {
          "name": "",
          "type": "uint256[]"
        }
      ],
      "payable": false,
      "stateMutability": "view",
      "type": "function"
    },
    {
      "constant": true,
      "inputs": [
        {
          "name": "_userAddress",
          "type": "address"
        }
      ],
      "name": "getPropositionsUsedByUser",
      "outputs": [
        {
          "name": "",
          "type": "uint256[]"
        }
      ],
      "payable": false,
      "stateMutability": "view",
      "type": "function"
    },
    {
      "constant": true,
      "inputs": [
        {
          "name": "propositionNumber",
          "type": "uint256"
        }
      ],
      "name": "haveIVoted",
      "outputs": [
        {
          "name": "IHaveVoted",
          "type": "bool"
        }
      ],
      "payable": false,
      "stateMutability": "view",
      "type": "function"
    }
  ],
  "bytecode": "0x60606040526007600355341561001457600080fd5b613532806100236000396000f300606060405260043610610196576000357c0100000000000000000000000000000000000000000000000000000000900463ffffffff1680630366af3d1461019b57806305cf0057146101e157806307e7a2241461026f5780630b2e34b0146102fd5780632647d7f9146103535780633068ef4d1461037c57806337443feb146103a55780633c0848ee1461049d5780635332eea11461052b5780635ac85212146105815780635b9d7345146105a45780635dbe4d28146105c75780635e8b7244146105f057806364cdd61e1461061e5780636a95d38d1461067357806375ff60c4146106d1578063880d3f54146107275780638f3b07a41461077c578063a8bef97a146107a5578063a990cfde146107d2578063ac37af1c1461085d578063b5fdb88e14610898578063b945d9e7146108c1578063c9d27afe14610916578063cb20a2fd14610944578063cd43eb1f146109d2578063cd87c2b614610a0d578063ce88840314610a36578063d858849414610a7b578063e09ecb8714610ad1578063e36f6e4e14610b0c578063e80b30a514610b47575b600080fd5b34156101a657600080fd5b6101bc6004808035906020019091905050610b74565b6040518083151515158152602001821515151581526020019250505060405180910390f35b34156101ec57600080fd5b610218600480803573ffffffffffffffffffffffffffffffffffffffff16906020019091905050610bdc565b6040518080602001828103825283818151815260200191508051906020019060200280838360005b8381101561025b578082015181840152602081019050610240565b505050509050019250505060405180910390f35b341561027a57600080fd5b6102a6600480803573ffffffffffffffffffffffffffffffffffffffff16906020019091905050610c79565b6040518080602001828103825283818151815260200191508051906020019060200280838360005b838110156102e95780820151818401526020810190506102ce565b505050509050019250505060405180910390f35b341561030857600080fd5b61033d600480803573ffffffffffffffffffffffffffffffffffffffff16906020019091908035906020019091905050610d16565b6040518082815260200191505060405180910390f35b341561035e57600080fd5b610366610d47565b6040518082815260200191505060405180910390f35b341561038757600080fd5b61038f610d4d565b6040518082815260200191505060405180910390f35b34156103b057600080fd5b6103c66004808035906020019091905050610d53565b604051808673ffffffffffffffffffffffffffffffffffffffff1673ffffffffffffffffffffffffffffffffffffffff1681526020018060200185600019166000191681526020018460ff1660ff1681526020018360ff1660ff168152602001828103825286818151815260200191508051906020019080838360005b8381101561045e578082015181840152602081019050610443565b50505050905090810190601f16801561048b5780820380516001836020036101000a031916815260200191505b50965050505050505060405180910390f35b34156104a857600080fd5b6104d4600480803573ffffffffffffffffffffffffffffffffffffffff16906020019091905050610eef565b6040518080602001828103825283818151815260200191508051906020019060200280838360005b838110156105175780820151818401526020810190506104fc565b505050509050019250505060405180910390f35b341561053657600080fd5b61056b600480803573ffffffffffffffffffffffffffffffffffffffff16906020019091908035906020019091905050610f8c565b6040518082815260200191505060405180910390f35b341561058c57600080fd5b6105a26004808035906020019091905050610fbd565b005b34156105af57600080fd5b6105c5600480803590602001909190505061131f565b005b34156105d257600080fd5b6105da6118ad565b6040518082815260200191505060405180910390f35b34156105fb57600080fd5b61061c600480803590602001909190803515159060200190919050506118b3565b005b341561062957600080fd5b610631611c8f565b604051808273ffffffffffffffffffffffffffffffffffffffff1673ffffffffffffffffffffffffffffffffffffffff16815260200191505060405180910390f35b341561067e57600080fd5b6106946004808035906020019091905050611cb5565b6040518087815260200186815260200185815260200184815260200183815260200182151515158152602001965050505050505060405180910390f35b34156106dc57600080fd5b610711600480803573ffffffffffffffffffffffffffffffffffffffff16906020019091908035906020019091905050611ddf565b6040518082815260200191505060405180910390f35b341561073257600080fd5b61073a611e10565b604051808273ffffffffffffffffffffffffffffffffffffffff1673ffffffffffffffffffffffffffffffffffffffff16815260200191505060405180910390f35b341561078757600080fd5b61078f611e36565b6040518082815260200191505060405180910390f35b34156107b057600080fd5b6107b8611e3c565b604051808215151515815260200191505060405180910390f35b610847600480803590602001908201803590602001908080601f016020809104026020016040519081016040528093929190818152602001838380828437820191505050505050919080356000191690602001909190803560ff1690602001909190803560ff16906020019091905050611e4f565b6040518082815260200191505060405180910390f35b341561086857600080fd5b61087e6004808035906020019091905050612551565b604051808215151515815260200191505060405180910390f35b34156108a357600080fd5b6108ab6125c5565b6040518082815260200191505060405180910390f35b34156108cc57600080fd5b6108d46125cb565b604051808273ffffffffffffffffffffffffffffffffffffffff1673ffffffffffffffffffffffffffffffffffffffff16815260200191505060405180910390f35b341561092157600080fd5b610942600480803590602001909190803515159060200190919050506125f1565b005b341561094f57600080fd5b61097b600480803573ffffffffffffffffffffffffffffffffffffffff169060200190919050506129c3565b6040518080602001828103825283818151815260200191508051906020019060200280838360005b838110156109be5780820151818401526020810190506109a3565b505050509050019250505060405180910390f35b34156109dd57600080fd5b6109f36004808035906020019091905050612a60565b604051808215151515815260200191505060405180910390f35b3415610a1857600080fd5b610a20612a93565b6040518082815260200191505060405180910390f35b3415610a4157600080fd5b610a576004808035906020019091905050612a99565b60405180848152602001838152602001828152602001935050505060405180910390f35b3415610a8657600080fd5b610abb600480803573ffffffffffffffffffffffffffffffffffffffff16906020019091908035906020019091905050612b1a565b6040518082815260200191505060405180910390f35b3415610adc57600080fd5b610af26004808035906020019091905050612b4b565b604051808215151515815260200191505060405180910390f35b3415610b1757600080fd5b610b2d6004808035906020019091905050613154565b604051808215151515815260200191505060405180910390f35b3415610b5257600080fd5b610b5a613187565b604051808215151515815260200191505060405180910390f35b600080600c83815481101515610b8657fe5b90600052602060002090600f020160030160019054906101000a900460ff16600c84815481101515610bb457fe5b90600052602060002090600f020160030160029054906101000a900460ff1691509150915091565b610be4613199565b601060008373ffffffffffffffffffffffffffffffffffffffff1673ffffffffffffffffffffffffffffffffffffffff168152602001908152602001600020805480602002602001604051908101604052809291908181526020018280548015610c6d57602002820191906000526020600020905b815481526020019060010190808311610c59575b50505050509050919050565b610c81613199565b601260008373ffffffffffffffffffffffffffffffffffffffff1673ffffffffffffffffffffffffffffffffffffffff168152602001908152602001600020805480602002602001604051908101604052809291908181526020018280548015610d0a57602002820191906000526020600020905b815481526020019060010190808311610cf6575b50505050509050919050565b600f60205281600052604060002081815481101515610d3157fe5b9060005260206000209001600091509150505481565b60035481565b600a5481565b6000610d5d6131ad565b6000806000600c86815481101515610d7157fe5b90600052602060002090600f020160090160009054906101000a900473ffffffffffffffffffffffffffffffffffffffff16600c87815481101515610db257fe5b90600052602060002090600f0201600a01600c88815481101515610dd257fe5b90600052602060002090600f0201600b0154600c89815481101515610df357fe5b90600052602060002090600f0201600c0160009054906101000a900460ff16600c8a815481101515610e2157fe5b90600052602060002090600f0201600c0160019054906101000a900460ff16838054600181600116156101000203166002900480601f016020809104026020016040519081016040528092919081815260200182805460018160011615610100020316600290048015610ed55780601f10610eaa57610100808354040283529160200191610ed5565b820191906000526020600020905b815481529060010190602001808311610eb857829003601f168201915b505050505093509450945094509450945091939590929450565b610ef7613199565b601160008373ffffffffffffffffffffffffffffffffffffffff1673ffffffffffffffffffffffffffffffffffffffff168152602001908152602001600020805480602002602001604051908101604052809291908181526020018280548015610f8057602002820191906000526020600020905b815481526020019060010190808311610f6c575b50505050509050919050565b601260205281600052604060002081815481101515610fa757fe5b9060005260206000209001600091509150505481565b6000600c82815481101515610fce57fe5b90600052602060002090600f020160030160029054906101000a900460ff161515610ff857600080fd5b600c8281548110151561100757fe5b90600052602060002090600f020160000160003373ffffffffffffffffffffffffffffffffffffffff1673ffffffffffffffffffffffffffffffffffffffff16815260200190815260200160002060009054906101000a900460ff16151561106e57600080fd5b600c8281548110151561107d57fe5b90600052602060002090600f020160030160009054906101000a900460ff161515600c838154811015156110ad57fe5b90600052602060002090600f020160010160003373ffffffffffffffffffffffffffffffffffffffff1673ffffffffffffffffffffffffffffffffffffffff16815260200190815260200160002060009054906101000a900460ff16151514151561111757600080fd5b6000600c8381548110151561112857fe5b90600052602060002090600f020160000160003373ffffffffffffffffffffffffffffffffffffffff1673ffffffffffffffffffffffffffffffffffffffff16815260200190815260200160002060006101000a81548160ff021916908315150217905550600460009054906101000a900473ffffffffffffffffffffffffffffffffffffffff1690508073ffffffffffffffffffffffffffffffffffffffff1663a9059cbb33600c858154811015156111de57fe5b90600052602060002090600f0201600e01546040518363ffffffff167c0100000000000000000000000000000000000000000000000000000000028152600401808373ffffffffffffffffffffffffffffffffffffffff1673ffffffffffffffffffffffffffffffffffffffff16815260200182815260200192505050600060405180830381600087803b151561127457600080fd5b6102c65a03f1151561128557600080fd5b5050507f2e4d3189c330c7bfcce65176d6c0b1b49698fd9638f1dbba37a5bfb7e55a28333383600c858154811015156112ba57fe5b90600052602060002090600f0201600e0154604051808473ffffffffffffffffffffffffffffffffffffffff1673ffffffffffffffffffffffffffffffffffffffff168152602001838152602001828152602001935050505060405180910390a15050565b600080600c8381548110151561133157fe5b90600052602060002090600f020160030160029054906101000a900460ff1615151561135c57600080fd5b600c8381548110151561136b57fe5b90600052602060002090600f020160030160019054906101000a900460ff16151561139557600080fd5b600954600854600c858154811015156113aa57fe5b90600052602060002090600f02016002015401014210156114b857600660009054906101000a900473ffffffffffffffffffffffffffffffffffffffff1691508173ffffffffffffffffffffffffffffffffffffffff1663d323a4f8336000604051602001526040518263ffffffff167c0100000000000000000000000000000000000000000000000000000000028152600401808273ffffffffffffffffffffffffffffffffffffffff1673ffffffffffffffffffffffffffffffffffffffff168152602001915050602060405180830381600087803b151561148d57600080fd5b6102c65a03f1151561149e57600080fd5b5050506040518051905015156114b357600080fd5b600091505b600c838154811015156114c757fe5b90600052602060002090600f020160030160009054906101000a900460ff1615156114f157600080fd5b600460009054906101000a900473ffffffffffffffffffffffffffffffffffffffff1690508073ffffffffffffffffffffffffffffffffffffffff1663696c5219600c8581548110151561154157fe5b90600052602060002090600f020160090160009054906101000a900473ffffffffffffffffffffffffffffffffffffffff16600c8681548110151561158257fe5b90600052602060002090600f0201600a01600c878154811015156115a257fe5b90600052602060002090600f0201600b0154600c888154811015156115c357fe5b90600052602060002090600f0201600c0160009054906101000a900460ff16600c898154811015156115f157fe5b90600052602060002090600f0201600c0160019054906101000a900460ff166000604051602001526040518663ffffffff167c0100000000000000000000000000000000000000000000000000000000028152600401808673ffffffffffffffffffffffffffffffffffffffff1673ffffffffffffffffffffffffffffffffffffffff1681526020018060200185600019166000191681526020018460ff1660ff1681526020018360ff1660ff1681526020018281038252868181546001816001161561010002031660029004815260200191508054600181600116156101000203166002900480156117255780601f106116fa57610100808354040283529160200191611725565b820191906000526020600020905b81548152906001019060200180831161170857829003601f168201915b50509650505050505050602060405180830381600087803b151561174857600080fd5b6102c65a03f1151561175957600080fd5b50505060405180519050506001600c8481548110151561177557fe5b90600052602060002090600f020160030160026101000a81548160ff0219169083151502179055506000600e848154811015156117ae57fe5b90600052602060002090602091828204019190066101000a81548160ff021916908315150217905550601260003373ffffffffffffffffffffffffffffffffffffffff1673ffffffffffffffffffffffffffffffffffffffff168152602001908152602001600020805480600101828161182891906131c1565b9160005260206000209001600085909190915055507f6488668a970b37da2333b4e2f299369ec2545de1cb7772a523818f23e0e5f8b43384604051808373ffffffffffffffffffffffffffffffffffffffff1673ffffffffffffffffffffffffffffffffffffffff1681526020018281526020019250505060405180910390a1505050565b60005481565b6000600c838154811015156118c457fe5b90600052602060002090600f020160000160003373ffffffffffffffffffffffffffffffffffffffff1673ffffffffffffffffffffffffffffffffffffffff16815260200190815260200160002060009054906101000a900460ff1615151561192c57600080fd5b600560009054906101000a900473ffffffffffffffffffffffffffffffffffffffff1690508073ffffffffffffffffffffffffffffffffffffffff1663d323a4f8336000604051602001526040518263ffffffff167c0100000000000000000000000000000000000000000000000000000000028152600401808273ffffffffffffffffffffffffffffffffffffffff1673ffffffffffffffffffffffffffffffffffffffff168152602001915050602060405180830381600087803b15156119f457600080fd5b6102c65a03f11515611a0557600080fd5b505050604051805190501515611a1a57600080fd5b60009050600c83815481101515611a2d57fe5b90600052602060002090600f020160030160019054906101000a900460ff16151515611a5857600080fd5b8115611a92576001600c84815481101515611a6f57fe5b90600052602060002090600f020160070160008282540192505081905550611ac2565b6001600c84815481101515611aa357fe5b90600052602060002090600f0201600601600082825401925050819055505b6001600c84815481101515611ad357fe5b90600052602060002090600f020160000160003373ffffffffffffffffffffffffffffffffffffffff1673ffffffffffffffffffffffffffffffffffffffff16815260200190815260200160002060006101000a81548160ff02191690831515021790555081600c84815481101515611b4857fe5b90600052602060002090600f020160010160003373ffffffffffffffffffffffffffffffffffffffff1673ffffffffffffffffffffffffffffffffffffffff16815260200190815260200160002060006101000a81548160ff021916908315150217905550601160003373ffffffffffffffffffffffffffffffffffffffff1673ffffffffffffffffffffffffffffffffffffffff1681526020019081526020016000208054806001018281611bfe91906131c1565b9160005260206000209001600085909190915055507f784f91034367c5f65754729da97be44b2d8e37d9ccfd9f568442de3a84f3fe1f338484604051808473ffffffffffffffffffffffffffffffffffffffff1673ffffffffffffffffffffffffffffffffffffffff16815260200183815260200182151515158152602001935050505060405180910390a1505050565b600560009054906101000a900473ffffffffffffffffffffffffffffffffffffffff1681565b600080600080600080600c87815481101515611ccd57fe5b90600052602060002090600f020160030160019054906101000a900460ff161515611cf757600080fd5b600c87815481101515611d0657fe5b90600052602060002090600f020160020154600c88815481101515611d2757fe5b90600052602060002090600f020160050154600c89815481101515611d4857fe5b90600052602060002090600f020160040154600c8a815481101515611d6957fe5b90600052602060002090600f020160060154600c8b815481101515611d8a57fe5b90600052602060002090600f020160070154600c8c815481101515611dab57fe5b90600052602060002090600f020160030160009054906101000a900460ff1695509550955095509550955091939550919395565b601060205281600052604060002081815481101515611dfa57fe5b9060005260206000209001600091509150505481565b600660009054906101000a900473ffffffffffffffffffffffffffffffffffffffff1681565b600b5481565b600160009054906101000a900460ff1681565b600080611e5a6131ed565b600460009054906101000a900473ffffffffffffffffffffffffffffffffffffffff1691508173ffffffffffffffffffffffffffffffffffffffff1663d323a4f8336000604051602001526040518263ffffffff167c0100000000000000000000000000000000000000000000000000000000028152600401808273ffffffffffffffffffffffffffffffffffffffff1673ffffffffffffffffffffffffffffffffffffffff168152602001915050602060405180830381600087803b1515611f2257600080fd5b6102c65a03f11515611f3357600080fd5b50505060405180519050151515611f4957600080fd5b8173ffffffffffffffffffffffffffffffffffffffff1663234d34de6000604051602001526040518163ffffffff167c0100000000000000000000000000000000000000000000000000000000028152600401602060405180830381600087803b1515611fb557600080fd5b6102c65a03f11515611fc657600080fd5b505050604051805190506007540234111515611fe157600080fd5b6064600a548373ffffffffffffffffffffffffffffffffffffffff1663234d34de6000604051602001526040518163ffffffff167c0100000000000000000000000000000000000000000000000000000000028152600401602060405180830381600087803b151561205257600080fd5b6102c65a03f1151561206357600080fd5b505050604051805190500281151561207757fe5b04816101000181815250506000816101000151141561209d576001816101000181815250505b600091503381610120019073ffffffffffffffffffffffffffffffffffffffff16908173ffffffffffffffffffffffffffffffffffffffff16815250508581610160019060001916908160001916815250508481610180019060ff16908160ff168152505083816101a0019060ff16908160ff16815250508681610140018190525034816101c00181815250504281600001818152505060008160600190151590811515815250506000816040019015159081151581525050600081602001901515908115158152505060008160a0018181525050600081608001818152505060008160c001818152505060008160e00181815250506000816101e0018181525050600c80548060010182816121b39190613296565b91600052602060002090600f020160008390919091506000820151816002015560208201518160030160006101000a81548160ff02191690831515021790555060408201518160030160016101000a81548160ff02191690831515021790555060608201518160030160026101000a81548160ff0219169083151502179055506080820151816004015560a0820151816005015560c0820151816006015560e0820151816007015561010082015181600801556101208201518160090160006101000a81548173ffffffffffffffffffffffffffffffffffffffff021916908373ffffffffffffffffffffffffffffffffffffffff16021790555061014082015181600a0190805190602001906122cb9291906132c8565b5061016082015181600b019060001916905561018082015181600c0160006101000a81548160ff021916908360ff1602179055506101a082015181600c0160016101000a81548160ff021916908360ff1602179055506101c082015181600d01556101e082015181600e01555050506123426131ed565b90506001600c805490500392506001600b60008282540192505081905550600f60003373ffffffffffffffffffffffffffffffffffffffff1673ffffffffffffffffffffffffffffffffffffffff16815260200190815260200160002080548060010182816123b191906131c1565b916000526020600020900160008590919091505550600d80548060010182816123da9190613348565b91600052602060002090602091828204019190066001909190916101000a81548160ff02191690831515021790555050600e805480600101828161241e9190613348565b91600052602060002090602091828204019190066000909190916101000a81548160ff021916908315150217905550507f362fe28119932e029adb55bc2d8adcd4902c1f751a356d510fc4492728b1112d3334888888604051808673ffffffffffffffffffffffffffffffffffffffff1673ffffffffffffffffffffffffffffffffffffffff16815260200185815260200184600019166000191681526020018360ff1660ff1681526020018260ff1660ff1681526020019550505050505060405180910390a1600460009054906101000a900473ffffffffffffffffffffffffffffffffffffffff1673ffffffffffffffffffffffffffffffffffffffff166108fc349081150290604051600060405180830381858888f19350505050151561254757600080fd5b5050949350505050565b6000600c8281548110151561256257fe5b90600052602060002090600f020160000160003373ffffffffffffffffffffffffffffffffffffffff1673ffffffffffffffffffffffffffffffffffffffff16815260200190815260200160002060009054906101000a900460ff169050919050565b60085481565b600460009054906101000a900473ffffffffffffffffffffffffffffffffffffffff1681565b6000600460009054906101000a900473ffffffffffffffffffffffffffffffffffffffff1690508073ffffffffffffffffffffffffffffffffffffffff1663d323a4f8336000604051602001526040518263ffffffff167c0100000000000000000000000000000000000000000000000000000000028152600401808273ffffffffffffffffffffffffffffffffffffffff1673ffffffffffffffffffffffffffffffffffffffff168152602001915050602060405180830381600087803b15156126bb57600080fd5b6102c65a03f115156126cc57600080fd5b5050506040518051905015156126e157600080fd5b60009050600c838154811015156126f457fe5b90600052602060002090600f020160000160003373ffffffffffffffffffffffffffffffffffffffff1673ffffffffffffffffffffffffffffffffffffffff16815260200190815260200160002060009054906101000a900460ff1615151561275c57600080fd5b600c8381548110151561276b57fe5b90600052602060002090600f020160030160019054906101000a900460ff1615151561279657600080fd5b6001151582151514156127d3576001600c848154811015156127b457fe5b90600052602060002090600f0201600401600082825401925050819055505b6001600c848154811015156127e457fe5b90600052602060002090600f020160000160003373ffffffffffffffffffffffffffffffffffffffff1673ffffffffffffffffffffffffffffffffffffffff16815260200190815260200160002060006101000a81548160ff02191690831515021790555081600c8481548110151561285957fe5b90600052602060002090600f020160010160003373ffffffffffffffffffffffffffffffffffffffff1673ffffffffffffffffffffffffffffffffffffffff16815260200190815260200160002060006101000a81548160ff0219169083151502179055506001600c848154811015156128cf57fe5b90600052602060002090600f020160050160008282540192505081905550601060003373ffffffffffffffffffffffffffffffffffffffff1673ffffffffffffffffffffffffffffffffffffffff168152602001908152602001600020805480600101828161293e91906131c1565b9160005260206000209001600085909190915055507fd1faddd599b0d6b58c83de71d7ff5395895b5891894dcd37f2482f33b2a1c43d3384604051808373ffffffffffffffffffffffffffffffffffffffff1673ffffffffffffffffffffffffffffffffffffffff1681526020018281526020019250505060405180910390a1505050565b6129cb613199565b600f60008373ffffffffffffffffffffffffffffffffffffffff1673ffffffffffffffffffffffffffffffffffffffff168152602001908152602001600020805480602002602001604051908101604052809291908181526020018280548015612a5457602002820191906000526020600020905b815481526020019060010190808311612a40575b50505050509050919050565b600e81815481101515612a6f57fe5b9060005260206000209060209182820401919006915054906101000a900460ff1681565b60095481565b6000806000600c84815481101515612aad57fe5b90600052602060002090600f020160020154600854600c86815481101515612ad157fe5b90600052602060002090600f02016002015401600954600854600c88815481101515612af957fe5b90600052602060002090600f02016002015401019250925092509193909250565b601160205281600052604060002081815481101515612b3557fe5b9060005260206000209001600091509150505481565b600080600c83815481101515612b5d57fe5b90600052602060002090600f020160030160019054906101000a900460ff16151515612b8857600080fd5b42600854600c85815481101515612b9b57fe5b90600052602060002090600f02016002015401101515612bba57600080fd5b600c83815481101515612bc957fe5b90600052602060002090600f020160080154600c84815481101515612bea57fe5b90600052602060002090600f02016005015410151515612c0957600080fd5b600560009054906101000a900473ffffffffffffffffffffffffffffffffffffffff169050600090508073ffffffffffffffffffffffffffffffffffffffff1663234d34de6000604051602001526040518163ffffffff167c0100000000000000000000000000000000000000000000000000000000028152600401602060405180830381600087803b1515612c9e57600080fd5b6102c65a03f11515612caf57600080fd5b50505060405180519050600c84815481101515612cc857fe5b90600052602060002090600f020160060154101515612db557600091506001600c84815481101515612cf657fe5b90600052602060002090600f020160030160026101000a81548160ff021916908315150217905550600c83815481101515612d2d57fe5b90600052602060002090600f020160040154600c84815481101515612d4e57fe5b90600052602060002090600f02016005015403600c84815481101515612d7057fe5b90600052602060002090600f0201600d0154811515612d8b57fe5b04600c84815481101515612d9b57fe5b90600052602060002090600f0201600e0181905550612ffb565b8073ffffffffffffffffffffffffffffffffffffffff1663234d34de6000604051602001526040518163ffffffff167c0100000000000000000000000000000000000000000000000000000000028152600401602060405180830381600087803b1515612e2157600080fd5b6102c65a03f11515612e3257600080fd5b50505060405180519050600c84815481101515612e4b57fe5b90600052602060002090600f020160070154101580612eac5750600c83815481101515612e7457fe5b90600052602060002090600f0201600501546002600c85815481101515612e9757fe5b90600052602060002090600f02016004015402115b15612f2a5760019150600c83815481101515612ec457fe5b90600052602060002090600f020160040154600c84815481101515612ee557fe5b90600052602060002090600f0201600d0154811515612f0057fe5b04600c84815481101515612f1057fe5b90600052602060002090600f0201600e0181905550612ffa565b600091506001600c84815481101515612f3f57fe5b90600052602060002090600f020160030160026101000a81548160ff021916908315150217905550600c83815481101515612f7657fe5b90600052602060002090600f020160040154600c84815481101515612f9757fe5b90600052602060002090600f02016005015403600c84815481101515612fb957fe5b90600052602060002090600f0201600d0154811515612fd457fe5b04600c84815481101515612fe457fe5b90600052602060002090600f0201600e01819055505b5b6001600c8481548110151561300c57fe5b90600052602060002090600f020160030160016101000a81548160ff02191690831515021790555081600c8481548110151561304457fe5b90600052602060002090600f020160030160006101000a81548160ff0219169083151502179055506000600d8481548110151561307d57fe5b90600052602060002090602091828204019190066101000a81548160ff0219169083151502179055506001600e848154811015156130b757fe5b90600052602060002090602091828204019190066101000a81548160ff0219169083151502179055507f297f1f08d2ef8c90272f7ee3e1d4272015a96cdff8a252b60547b9e432e723603384604051808373ffffffffffffffffffffffffffffffffffffffff1673ffffffffffffffffffffffffffffffffffffffff1681526020018281526020019250505060405180910390a181915050919050565b600d8181548110151561316357fe5b9060005260206000209060209182820401919006915054906101000a900460ff1681565b6001809054906101000a900460ff1681565b602060405190810160405280600081525090565b602060405190810160405280600081525090565b8154818355818115116131e8578183600052602060002091820191016131e79190613382565b5b505050565b61020060405190810160405280600081526020016000151581526020016000151581526020016000151581526020016000815260200160008152602001600081526020016000815260200160008152602001600073ffffffffffffffffffffffffffffffffffffffff1681526020016132646133a7565b815260200160008019168152602001600060ff168152602001600060ff16815260200160008152602001600081525090565b8154818355818115116132c357600f0281600f0283600052602060002091820191016132c291906133bb565b5b505050565b828054600181600116156101000203166002900490600052602060002090601f016020900481019282601f1061330957805160ff1916838001178555613337565b82800160010185558215613337579182015b8281111561333657825182559160200191906001019061331b565b5b5090506133449190613382565b5090565b81548183558181151161337d57601f016020900481601f0160209004836000526020600020918201910161337c9190613382565b5b505050565b6133a491905b808211156133a0576000816000905550600101613388565b5090565b90565b602060405190810160405280600081525090565b6134bb91905b808211156134b757600060028201600090556003820160006101000a81549060ff02191690556003820160016101000a81549060ff02191690556003820160026101000a81549060ff0219169055600482016000905560058201600090556006820160009055600782016000905560088201600090556009820160006101000a81549073ffffffffffffffffffffffffffffffffffffffff0219169055600a8201600061346e91906134be565b600b820160009055600c820160006101000a81549060ff0219169055600c820160016101000a81549060ff0219169055600d820160009055600e82016000905550600f016133c1565b5090565b90565b50805460018160011615610100020316600290046000825580601f106134e45750613503565b601f0160209004906000526020600020908101906135029190613382565b5b505600a165627a7a72305820c5f3287b690a9f5f4ee187044e11f66f117ba2aa65652cd5d76fbf2c633698510029",
  "source": "pragma solidity ^0.4.11;\n\n// Standard contract for promulgation of a norm\n\nimport \"../standardProcedure.sol\";\nimport \"../standardOrgan.sol\";\n\n\ncontract cooptationProcedure is Procedure{\n    // 1: Presidential Election\n    // 2: Membership addition\n    // 3: Constitutionnal reform\n    // 4: Norm promulgation\n    // 5: Moderators election\n    // 6: Simple nomination\n    // 7: Cooptation\n    int public procedureTypeNumber = 7;\n\n    // Which organ will be affected\n    address public membersOrganContract;\n\n    // Organ in which the voters with veto power are registered\n    address public membersWithVetoOrganContract;\n\n    // Organ in which final promulgators are listed\n    address public finalPromulgatorsOrganContract;\n\n    // ############## Variable to set up when declaring the procedure\n    // ####### Vote creation process\n    uint minimumDepositSize;\n\n    // ####### Voting process\n    // Time for participant to vote\n    uint public votingPeriodDuration;\n\n    // Time for the final promulgators to promulgate\n    uint public promulgationPeriodDuration;\n\n    // ####### Resolution process\n    // Minimum participation to validate election\n    uint public quorumSize;\n\n    // Variable of the procedure to keep track of propositions\n    uint public totalPropositionNumber;\n\n    // Proposition structure\n    struct Proposition {\n        // **** Voting variables\n        // Mapping to track if each user voted\n        mapping(address => bool) hasUserVoted;\n        // Mapping to track user votes\n        mapping(address => bool) whatHasUserVoted;\n        // Time of proposition creation\n        uint startDate;\n        // Was the proposition accepted?\n        bool wasAccepted;\n        // Was the proposition counted?\n        bool wasCounted;\n        // Was the proposition acted upon?\n        bool wasEnacted;\n        // How many people voted YES?\n        uint voteFor;\n        // How many people voted?\n        uint totalVoteCount;\n        // Was the proposition vetoed by the Vetoing members?\n        uint vetoCount;\n        // Was the proposition validated by the Vetoing members?\n        uint notVetoCount;\n        // How many members need to vote to enact proposition?\n        uint requiredQuorum;\n        // Proposition details\n        address candidateAddress;\n        string name;\n        bytes32 ipfsHash; // ID of proposal on IPFS\n        uint8 hash_function;\n        uint8 size;\n        uint deposit;\n        uint payoutPerUser;\n    }\n\n\n    // A dynamically-sized array of `Proposition` structs.\n    Proposition[] propositions;\n\n    // Dynamic size array of status of propositions\n    bool[] public propositionsWaitingEndOfVote;\n    bool[] public propositionsWaitingPromulgation;\n\n    // Mapping each proposition to the user creating it\n    mapping (address => uint[]) public propositionToUser;    \n\n    // Mapping each proposition to the user who participated\n    mapping (address => uint[]) public propositionToVoter;\n\n    // Mapping each proposition to the user vetoing it\n    mapping (address => uint[]) public propositionToVetoer;\n\n    // Mapping each proposition to the user promulgating it\n    mapping (address => uint[]) public propositionToPromulgator;\n\n    \n\n    // Events\n    event createPropositionEvent(address _candidateAddress, uint _deposit, bytes32 _ipfsHash, uint8 _hash_function, uint8 _size);\n    event voteOnProposition(address _from, uint _propositionNumber);\n    event vetoProposition(address _from, uint _propositionNumber, bool _decision);\n    event countVotes(address _from, uint _propositionNumber);\n    event promulgatePropositionEvent(address _from, uint _propositionNumber);\n    event withdrawal(address _from, uint _propositionNumber, uint _value);\n\n    /// Create a new ballot to choose one of `proposalNames`.\n    function createProposition(string _name, bytes32 _ipfsHash, uint8 _hash_function, uint8 _size) public payable returns (uint propositionNumber){\n\n            // Checking that the proposition is not made on an existing member\n            Organ membersOrgan = Organ(membersOrganContract);\n            require(!membersOrgan.isNorm(msg.sender));\n\n            // Check that deposit size is enough\n            require(msg.value > minimumDepositSize * membersOrgan.getActiveNormNumber());\n\n            // Creating new proposition \n            Proposition memory newProposition;\n            \n            // Calculating required quorum\n            newProposition.requiredQuorum = membersOrgan.getActiveNormNumber()*quorumSize/100;\n            if (newProposition.requiredQuorum == 0){\n                newProposition.requiredQuorum = 1;\n            }\n            delete membersOrgan;\n\n            \n            newProposition.candidateAddress = msg.sender;\n            newProposition.ipfsHash = _ipfsHash;\n            newProposition.hash_function = _hash_function;\n            newProposition.size = _size;\n            newProposition.name = _name;\n            newProposition.deposit = msg.value;\n\n            // Instanciating proposition\n\n            newProposition.startDate = now;\n            newProposition.wasEnacted = false;\n            newProposition.wasCounted = false;\n            newProposition.wasAccepted = false;\n            newProposition.totalVoteCount = 0;\n            newProposition.voteFor = 0;\n            newProposition.vetoCount = 0;\n            newProposition.notVetoCount = 0;\n            newProposition.payoutPerUser = 0;\n\n            // newProposition.voteAgainst = 0;\n            propositions.push(newProposition);\n            delete newProposition;\n\n            propositionNumber = propositions.length - 1;\n\n            // Tracking propositions being deposed\n            totalPropositionNumber += 1;\n            propositionToUser[msg.sender].push(propositionNumber);\n            propositionsWaitingEndOfVote.push(true);\n            propositionsWaitingPromulgation.push(false);\n\n            // proposition creation event\n            createPropositionEvent(msg.sender, msg.value, _ipfsHash, _hash_function, _size);\n\n            // Sending deposit to organ\n            membersOrganContract.transfer(msg.value);\n    }\n\n    // Vote for a proposition\n    function vote(uint _propositionNumber, bool _acceptProposition) public {\n\n        // Check the voter is able to vote on a proposition\n        Organ membersOrgan = Organ(membersOrganContract);\n        require(membersOrgan.isNorm(msg.sender));\n        delete membersOrgan;\n        \n        // Check if voter already voted\n        require(!propositions[_propositionNumber].hasUserVoted[msg.sender]);\n\n        // Check if vote is still active\n        require(!propositions[_propositionNumber].wasCounted);\n\n        // Adding vote\n        if(_acceptProposition == true)\n        {propositions[_propositionNumber].voteFor += 1;}\n\n        // Log that user voted\n        propositions[_propositionNumber].hasUserVoted[msg.sender] = true;\n\n        // Log what the user voted\n        propositions[_propositionNumber].whatHasUserVoted[msg.sender] = _acceptProposition;\n        \n        // Adding vote count\n        propositions[_propositionNumber].totalVoteCount += 1;\n\n        // Log that user voted on this proposition\n        propositionToVoter[msg.sender].push(_propositionNumber);\n\n        // create vote event\n        voteOnProposition(msg.sender, _propositionNumber);\n    }\n\n        /// Veto a candidate\n    function veto(uint _propositionNumber, bool _acceptProposition) public {\n\n        // Check if voter already voted\n        require(!propositions[_propositionNumber].hasUserVoted[msg.sender]);\n\n        // Check the voter is able to veto the proposition\n        Organ membersWithVetoOrgan = Organ(membersWithVetoOrganContract);\n        require(membersWithVetoOrgan.isNorm(msg.sender));\n        delete membersWithVetoOrgan;\n        \n        // Check if vote is still active\n        require(!propositions[_propositionNumber].wasCounted);\n\n        // Log decision\n        if (_acceptProposition) {\n            propositions[_propositionNumber].notVetoCount += 1;\n        }\n       else {\n            propositions[_propositionNumber].vetoCount += 1;\n       }\n\n       // Log that user voted\n        propositions[_propositionNumber].hasUserVoted[msg.sender] = true;\n\n        // Log what the user voted\n        propositions[_propositionNumber].whatHasUserVoted[msg.sender] = _acceptProposition;\n\n        // Log that user vetoed this proposition\n        propositionToVetoer[msg.sender].push(_propositionNumber);\n\n        //  Create veto event\n        vetoProposition(msg.sender, _propositionNumber, _acceptProposition);\n\n    }\n\n    // The vote is finished and we close it. This does not trigger the outcome of the vote. PromulgateProposition() should be called after\n    function endPropositionVote(uint _propositionNumber) public returns (bool hasBeenAccepted) {\n        // We check if the vote was already counted\n        require(!propositions[_propositionNumber].wasCounted);\n\n        // Checking that the vote can be closed\n        require(propositions[_propositionNumber].startDate + votingPeriodDuration < now);\n\n        // Checking that the vote received enough votes to be closed\n        require((propositions[_propositionNumber].totalVoteCount >= propositions[_propositionNumber].requiredQuorum));\n\n        // Checking if members with vetoed blocked/forced the proposition\n        Organ membersWithVetoOrgan = Organ(membersWithVetoOrganContract);\n\n\n        delete membersWithVetoOrgan;\n        // We check that Quorum was obtained and that a majority of votes were cast in favor of the proposition\n        if (propositions[_propositionNumber].vetoCount >= membersWithVetoOrgan.getActiveNormNumber())\n            {hasBeenAccepted=false;\n                propositions[_propositionNumber].wasEnacted = true;\n                propositions[_propositionNumber].payoutPerUser = propositions[_propositionNumber].deposit/(propositions[_propositionNumber].totalVoteCount-propositions[_propositionNumber].voteFor);}\n        else if ((propositions[_propositionNumber].notVetoCount >= membersWithVetoOrgan.getActiveNormNumber()) || (propositions[_propositionNumber].voteFor*2 > propositions[_propositionNumber].totalVoteCount) )\n            {hasBeenAccepted = true;\n            propositions[_propositionNumber].payoutPerUser = propositions[_propositionNumber].deposit/propositions[_propositionNumber].voteFor;}\n        else \n            {hasBeenAccepted=false;\n            propositions[_propositionNumber].wasEnacted = true;\n            propositions[_propositionNumber].payoutPerUser = propositions[_propositionNumber].deposit/(propositions[_propositionNumber].totalVoteCount-propositions[_propositionNumber].voteFor);}\n\n\n        // ############## Updating ballot values if vote concluded\n        propositions[_propositionNumber].wasCounted = true;\n        propositions[_propositionNumber].wasAccepted = hasBeenAccepted;\n        propositionsWaitingEndOfVote[_propositionNumber] = false;\n        propositionsWaitingPromulgation[_propositionNumber] = true;\n\n        // Calculating payout per user\n\n\n        countVotes(msg.sender, _propositionNumber);\n\n        return hasBeenAccepted;\n    }\n\n    function promulgateProposition(uint _propositionNumber) public\n    {\n        // Checking if ballot was already enforced\n        require(!propositions[_propositionNumber].wasEnacted );\n\n        // Checking the ballot was counted\n        require(propositions[_propositionNumber].wasCounted);\n\n        // If promulgation is happening before endOfVote + promulgationPeriodDuration, check caller is an official promulgator\n        if (now < propositions[_propositionNumber].startDate + votingPeriodDuration + promulgationPeriodDuration)\n            {        // Check the voter is able to promulgate the proposition\n            Organ promulgatorsOrgan = Organ(finalPromulgatorsOrganContract);\n            require(promulgatorsOrgan.isNorm(msg.sender));\n            delete promulgatorsOrgan;\n            }\n\n        // Checking the ballot was accepted\n        require(propositions[_propositionNumber].wasAccepted);\n\n        // We initiate the Organ interface to add a norm\n\n        Organ membersOrgan = Organ(membersOrganContract);\n         // Adding a new norm\n        membersOrgan.addNorm(propositions[_propositionNumber].candidateAddress, propositions[_propositionNumber].name , propositions[_propositionNumber].ipfsHash, propositions[_propositionNumber].hash_function, propositions[_propositionNumber].size );\n                \n            \n\n        \n        propositions[_propositionNumber].wasEnacted = true;\n        propositionsWaitingPromulgation[_propositionNumber] = false;\n        propositionToPromulgator[msg.sender].push(_propositionNumber);\n        // promulgation event\n        promulgatePropositionEvent(msg.sender, _propositionNumber);\n\n    }\n\n     function withDrawPayout(uint _propositionNumber) public {\n        // Checking if ballot was already enforced\n        require(propositions[_propositionNumber].wasEnacted );\n\n        // Checking that the user voted, or that he did not already cash out\n        require(propositions[_propositionNumber].hasUserVoted[msg.sender] );\n\n        // Checking that the user voted as the crowd\n        require(propositions[_propositionNumber].whatHasUserVoted[msg.sender] == propositions[_propositionNumber].wasAccepted);\n\n        // Disabling the possibilit to cash out\n        propositions[_propositionNumber].hasUserVoted[msg.sender] = false;\n\n        // Send payment\n        Organ membersOrgan = Organ(membersOrganContract);\n        membersOrgan.transfer(msg.sender, propositions[_propositionNumber].payoutPerUser);\n\n        // Log event\n        withdrawal(msg.sender, _propositionNumber, propositions[_propositionNumber].payoutPerUser);\n\n     }\n\n        //////////////////////// Functions to communicate with other contracts\n    function getPropositionDetails(uint _propositionNumber) public view returns (address _candidateAddress, string _name, bytes32 _ipfsHash, uint8 _hash_function, uint8 _size){\n        return (propositions[_propositionNumber].candidateAddress, propositions[_propositionNumber].name, propositions[_propositionNumber].ipfsHash, propositions[_propositionNumber].hash_function, propositions[_propositionNumber].size);\n    }\n    function getPropositionDates(uint _propositionNumber) public view returns (uint _startDate, uint _votingPeriodEndDate, uint _promulgatorWindowEndDate){\n        return (propositions[_propositionNumber].startDate, propositions[_propositionNumber].startDate + votingPeriodDuration, propositions[_propositionNumber].startDate + votingPeriodDuration + promulgationPeriodDuration);\n    }\n    function getPropositionStatus(uint _propositionNumber) public view returns (bool _wasCounted, bool _wasEnacted){\n        return (propositions[_propositionNumber].wasCounted, propositions[_propositionNumber].wasEnacted);\n    }\n    function getVotedPropositionResults(uint _propositionNumber) public view returns (uint _startDate, uint _totalVoteCount, uint _voteFor, uint _vetoCount, uint _notVetoCount, bool _wasAccepted){\n        require(propositions[_propositionNumber].wasCounted);\n        return (propositions[_propositionNumber].startDate, propositions[_propositionNumber].totalVoteCount, propositions[_propositionNumber].voteFor, propositions[_propositionNumber].vetoCount, propositions[_propositionNumber].notVetoCount, propositions[_propositionNumber].wasAccepted);\n        }\n    function getPropositionsCreatedByUser(address _userAddress) public view returns (uint[])\n    {return propositionToUser[_userAddress];}    \n    function getPropositionsVetoedByUser(address _userAddress) public view returns (uint[])\n    {return propositionToVetoer[_userAddress];}  \n    function getPropositionsPromulgatedByUser(address _userAddress) public view returns (uint[])\n    {return propositionToPromulgator[_userAddress];}  \n    function getPropositionsUsedByUser(address _userAddress) public view returns (uint[])\n    {return propositionToVoter[_userAddress];}  \n    function haveIVoted(uint propositionNumber) public view returns (bool IHaveVoted)\n    {return propositions[propositionNumber].hasUserVoted[msg.sender];}\n\n}\n\n",
  "sourcePath": "/Users/henrilieutaud/Documents/Mes documents/97/Workshop/ChainTech/solidity/contracts/procedures/cooptationProcedure.sol",
  "compiler": {
    "name": "solc",
    "version": "0.4.19+commit.c4cbbb05.Emscripten.clang"
  },
  "schemaVersion": "2.0.0",
  "updatedAt": "2018-03-23T17:58:47.016Z"
}