{
  "contractName": "deployVoteOnAdmins",
  "abi": [
    {
      "constant": true,
      "inputs": [
        {
          "name": "_propositionNumber",
          "type": "uint256"
        }
      ],
      "name": "getPropositionStatus",
      "outputs": [
        {
          "name": "_wasCounted",
          "type": "bool"
        },
        {
          "name": "_wasEnded",
          "type": "bool"
        }
      ],
      "payable": false,
      "stateMutability": "view",
      "type": "function"
    },
    {
      "constant": true,
      "inputs": [
        {
          "name": "_userAddress",
          "type": "address"
        }
      ],
      "name": "getPropositionsUsedByUser",
      "outputs": [
        {
          "name": "",
          "type": "uint256[]"
        }
      ],
      "payable": false,
      "stateMutability": "view",
      "type": "function"
    },
    {
      "constant": true,
      "inputs": [
        {
          "name": "_userAddress",
          "type": "address"
        }
      ],
      "name": "getPropositionsPromulgatedByUser",
      "outputs": [
        {
          "name": "",
          "type": "uint256[]"
        }
      ],
      "payable": false,
      "stateMutability": "view",
      "type": "function"
    },
    {
      "constant": true,
      "inputs": [
        {
          "name": "",
          "type": "address"
        },
        {
          "name": "",
          "type": "uint256"
        }
      ],
      "name": "propositionToUser",
      "outputs": [
        {
          "name": "",
          "type": "uint256"
        }
      ],
      "payable": false,
      "stateMutability": "view",
      "type": "function"
    },
    {
      "constant": false,
      "inputs": [
        {
          "name": "_targetOrgan",
          "type": "address"
        },
        {
          "name": "_contractToAdd",
          "type": "address"
        },
        {
          "name": "_contractToRemove",
          "type": "address"
        },
        {
          "name": "_ipfsHash",
          "type": "bytes32"
        },
        {
          "name": "_hash_function",
          "type": "uint8"
        },
        {
          "name": "_size",
          "type": "uint8"
        },
        {
          "name": "_name",
          "type": "string"
        },
        {
          "name": "_canAdd",
          "type": "bool"
        },
        {
          "name": "_canDelete",
          "type": "bool"
        },
        {
          "name": "_canDeposit",
          "type": "bool"
        },
        {
          "name": "_canSpend",
          "type": "bool"
        },
        {
          "name": "_propositionType",
          "type": "uint256"
        }
      ],
      "name": "createProposition",
      "outputs": [
        {
          "name": "propositionNumber",
          "type": "uint256"
        }
      ],
      "payable": false,
      "stateMutability": "nonpayable",
      "type": "function"
    },
    {
      "constant": false,
      "inputs": [
        {
          "name": "_propositionNumber",
          "type": "uint256"
        }
      ],
      "name": "veto",
      "outputs": [],
      "payable": false,
      "stateMutability": "nonpayable",
      "type": "function"
    },
    {
      "constant": true,
      "inputs": [],
      "name": "procedureTypeNumber",
      "outputs": [
        {
          "name": "",
          "type": "int256"
        }
      ],
      "payable": false,
      "stateMutability": "view",
      "type": "function"
    },
    {
      "constant": true,
      "inputs": [],
      "name": "quorumSize",
      "outputs": [
        {
          "name": "",
          "type": "uint256"
        }
      ],
      "payable": false,
      "stateMutability": "view",
      "type": "function"
    },
    {
      "constant": true,
      "inputs": [
        {
          "name": "_propositionNumber",
          "type": "uint256"
        }
      ],
      "name": "getPropositionDetails",
      "outputs": [
        {
          "name": "_addressToAdd",
          "type": "address"
        },
        {
          "name": "_addressToRemove",
          "type": "address"
        },
        {
          "name": "_canAdd",
          "type": "bool"
        },
        {
          "name": "_canDelete",
          "type": "bool"
        },
        {
          "name": "_canDeposit",
          "type": "bool"
        },
        {
          "name": "_canSpend",
          "type": "bool"
        },
        {
          "name": "_name",
          "type": "string"
        }
      ],
      "payable": false,
      "stateMutability": "view",
      "type": "function"
    },
    {
      "constant": true,
      "inputs": [
        {
          "name": "_userAddress",
          "type": "address"
        }
      ],
      "name": "getPropositionsVetoedByUser",
      "outputs": [
        {
          "name": "",
          "type": "uint256[]"
        }
      ],
      "payable": false,
      "stateMutability": "view",
      "type": "function"
    },
    {
      "constant": true,
      "inputs": [
        {
          "name": "_propositionNumber",
          "type": "uint256"
        }
      ],
      "name": "getPropositionDocumentation",
      "outputs": [
        {
          "name": "_addressToAdd",
          "type": "address"
        },
        {
          "name": "_addressToRemove",
          "type": "address"
        },
        {
          "name": "_ipfsHash",
          "type": "bytes32"
        },
        {
          "name": "_hash_function",
          "type": "uint8"
        },
        {
          "name": "_size",
          "type": "uint8"
        },
        {
          "name": "_propositionType",
          "type": "uint256"
        }
      ],
      "payable": false,
      "stateMutability": "view",
      "type": "function"
    },
    {
      "constant": true,
      "inputs": [
        {
          "name": "",
          "type": "address"
        },
        {
          "name": "",
          "type": "uint256"
        }
      ],
      "name": "propositionToPromulgator",
      "outputs": [
        {
          "name": "",
          "type": "uint256"
        }
      ],
      "payable": false,
      "stateMutability": "view",
      "type": "function"
    },
    {
      "constant": true,
      "inputs": [],
      "name": "kelsenVersionNumber",
      "outputs": [
        {
          "name": "",
          "type": "int256"
        }
      ],
      "payable": false,
      "stateMutability": "view",
      "type": "function"
    },
    {
      "constant": true,
      "inputs": [],
      "name": "membersWithVetoOrganContract",
      "outputs": [
        {
          "name": "",
          "type": "address"
        }
      ],
      "payable": false,
      "stateMutability": "view",
      "type": "function"
    },
    {
      "constant": true,
      "inputs": [
        {
          "name": "_propositionNumber",
          "type": "uint256"
        }
      ],
      "name": "getVotedPropositionResults",
      "outputs": [
        {
          "name": "_startDate",
          "type": "uint256"
        },
        {
          "name": "_totalVoteCount",
          "type": "uint256"
        },
        {
          "name": "_voteFor",
          "type": "uint256"
        },
        {
          "name": "_wasVetoed",
          "type": "bool"
        },
        {
          "name": "_wasAccepted",
          "type": "bool"
        }
      ],
      "payable": false,
      "stateMutability": "view",
      "type": "function"
    },
    {
      "constant": true,
      "inputs": [
        {
          "name": "",
          "type": "address"
        },
        {
          "name": "",
          "type": "uint256"
        }
      ],
      "name": "propositionToVoter",
      "outputs": [
        {
          "name": "",
          "type": "uint256"
        }
      ],
      "payable": false,
      "stateMutability": "view",
      "type": "function"
    },
    {
      "constant": true,
      "inputs": [],
      "name": "finalPromulgatorsOrganContract",
      "outputs": [
        {
          "name": "",
          "type": "address"
        }
      ],
      "payable": false,
      "stateMutability": "view",
      "type": "function"
    },
    {
      "constant": true,
      "inputs": [],
      "name": "totalPropositionNumber",
      "outputs": [
        {
          "name": "",
          "type": "uint256"
        }
      ],
      "payable": false,
      "stateMutability": "view",
      "type": "function"
    },
    {
      "constant": true,
      "inputs": [],
      "name": "majoritySize",
      "outputs": [
        {
          "name": "",
          "type": "uint256"
        }
      ],
      "payable": false,
      "stateMutability": "view",
      "type": "function"
    },
    {
      "constant": true,
      "inputs": [],
      "name": "isAnOrgan",
      "outputs": [
        {
          "name": "",
          "type": "bool"
        }
      ],
      "payable": false,
      "stateMutability": "view",
      "type": "function"
    },
    {
      "constant": true,
      "inputs": [
        {
          "name": "propositionNumber",
          "type": "uint256"
        }
      ],
      "name": "haveIVoted",
      "outputs": [
        {
          "name": "IHaveVoted",
          "type": "bool"
        }
      ],
      "payable": false,
      "stateMutability": "view",
      "type": "function"
    },
    {
      "constant": true,
      "inputs": [],
      "name": "votingPeriodDuration",
      "outputs": [
        {
          "name": "",
          "type": "uint256"
        }
      ],
      "payable": false,
      "stateMutability": "view",
      "type": "function"
    },
    {
      "constant": false,
      "inputs": [
        {
          "name": "_propositionNumber",
          "type": "uint256"
        },
        {
          "name": "_acceptProposition",
          "type": "bool"
        }
      ],
      "name": "vote",
      "outputs": [],
      "payable": false,
      "stateMutability": "nonpayable",
      "type": "function"
    },
    {
      "constant": true,
      "inputs": [
        {
          "name": "_userAddress",
          "type": "address"
        }
      ],
      "name": "getPropositionsCreatedByUser",
      "outputs": [
        {
          "name": "",
          "type": "uint256[]"
        }
      ],
      "payable": false,
      "stateMutability": "view",
      "type": "function"
    },
    {
      "constant": true,
      "inputs": [
        {
          "name": "",
          "type": "uint256"
        }
      ],
      "name": "propositionsWaitingPromulgation",
      "outputs": [
        {
          "name": "",
          "type": "bool"
        }
      ],
      "payable": false,
      "stateMutability": "view",
      "type": "function"
    },
    {
      "constant": true,
      "inputs": [],
      "name": "promulgationPeriodDuration",
      "outputs": [
        {
          "name": "",
          "type": "uint256"
        }
      ],
      "payable": false,
      "stateMutability": "view",
      "type": "function"
    },
    {
      "constant": true,
      "inputs": [],
      "name": "votersOrganContract",
      "outputs": [
        {
          "name": "",
          "type": "address"
        }
      ],
      "payable": false,
      "stateMutability": "view",
      "type": "function"
    },
    {
      "constant": true,
      "inputs": [
        {
          "name": "_propositionNumber",
          "type": "uint256"
        }
      ],
      "name": "getPropositionDates",
      "outputs": [
        {
          "name": "_startDate",
          "type": "uint256"
        },
        {
          "name": "_votingPeriodEndDate",
          "type": "uint256"
        },
        {
          "name": "_promulgatorWindowEndDate",
          "type": "uint256"
        }
      ],
      "payable": false,
      "stateMutability": "view",
      "type": "function"
    },
    {
      "constant": false,
      "inputs": [
        {
          "name": "_propositionNumber",
          "type": "uint256"
        },
        {
          "name": "_promulgate",
          "type": "bool"
        }
      ],
      "name": "promulgateProposition",
      "outputs": [],
      "payable": false,
      "stateMutability": "nonpayable",
      "type": "function"
    },
    {
      "constant": true,
      "inputs": [
        {
          "name": "",
          "type": "address"
        },
        {
          "name": "",
          "type": "uint256"
        }
      ],
      "name": "propositionToVetoer",
      "outputs": [
        {
          "name": "",
          "type": "uint256"
        }
      ],
      "payable": false,
      "stateMutability": "view",
      "type": "function"
    },
    {
      "constant": false,
      "inputs": [
        {
          "name": "_propositionNumber",
          "type": "uint256"
        }
      ],
      "name": "endPropositionVote",
      "outputs": [
        {
          "name": "hasBeenAccepted",
          "type": "bool"
        }
      ],
      "payable": false,
      "stateMutability": "nonpayable",
      "type": "function"
    },
    {
      "constant": true,
      "inputs": [
        {
          "name": "",
          "type": "uint256"
        }
      ],
      "name": "propositionsWaitingEndOfVote",
      "outputs": [
        {
          "name": "",
          "type": "bool"
        }
      ],
      "payable": false,
      "stateMutability": "view",
      "type": "function"
    },
    {
      "constant": true,
      "inputs": [],
      "name": "isAProcedure",
      "outputs": [
        {
          "name": "",
          "type": "bool"
        }
      ],
      "payable": false,
      "stateMutability": "view",
      "type": "function"
    },
    {
      "inputs": [
        {
          "name": "_votersOrganContract",
          "type": "address"
        },
        {
          "name": "_membersWithVetoOrganContract",
          "type": "address"
        },
        {
          "name": "_finalPromulgatorsOrganContract",
          "type": "address"
        },
        {
          "name": "_quorumSize",
          "type": "uint256"
        },
        {
          "name": "_votingPeriodDuration",
          "type": "uint256"
        },
        {
          "name": "_promulgationPeriodDuration",
          "type": "uint256"
        }
      ],
      "payable": false,
      "stateMutability": "nonpayable",
      "type": "constructor"
    },
    {
      "anonymous": false,
      "inputs": [
        {
          "indexed": false,
          "name": "_from",
          "type": "address"
        },
        {
          "indexed": false,
          "name": "_targetOrgan",
          "type": "address"
        },
        {
          "indexed": false,
          "name": "_propositionType",
          "type": "uint256"
        },
        {
          "indexed": false,
          "name": "_propositionNumber",
          "type": "uint256"
        }
      ],
      "name": "createPropositionEvent",
      "type": "event"
    },
    {
      "anonymous": false,
      "inputs": [
        {
          "indexed": false,
          "name": "_contractToAdd",
          "type": "address"
        },
        {
          "indexed": false,
          "name": "_contractToRemove",
          "type": "address"
        }
      ],
      "name": "createPropositionDetails",
      "type": "event"
    },
    {
      "anonymous": false,
      "inputs": [
        {
          "indexed": false,
          "name": "_propositionNumber",
          "type": "uint256"
        },
        {
          "indexed": false,
          "name": "_canAdd",
          "type": "bool"
        },
        {
          "indexed": false,
          "name": "_canDelete",
          "type": "bool"
        },
        {
          "indexed": false,
          "name": "_name",
          "type": "string"
        }
      ],
      "name": "createMasterPropositionEvent",
      "type": "event"
    },
    {
      "anonymous": false,
      "inputs": [
        {
          "indexed": false,
          "name": "_propositionNumber",
          "type": "uint256"
        },
        {
          "indexed": false,
          "name": "_canAdd",
          "type": "bool"
        },
        {
          "indexed": false,
          "name": "_canDelete",
          "type": "bool"
        },
        {
          "indexed": false,
          "name": "_canDeposit",
          "type": "bool"
        },
        {
          "indexed": false,
          "name": "_canSpend",
          "type": "bool"
        },
        {
          "indexed": false,
          "name": "_name",
          "type": "string"
        }
      ],
      "name": "createAdminPropositionEvent",
      "type": "event"
    },
    {
      "anonymous": false,
      "inputs": [
        {
          "indexed": false,
          "name": "_propositionNumber",
          "type": "uint256"
        },
        {
          "indexed": false,
          "name": "_ipfsHash",
          "type": "bytes32"
        },
        {
          "indexed": false,
          "name": "_hash_function",
          "type": "uint8"
        },
        {
          "indexed": false,
          "name": "_size",
          "type": "uint8"
        },
        {
          "indexed": false,
          "name": "name",
          "type": "string"
        }
      ],
      "name": "createNormPropositionEvent",
      "type": "event"
    },
    {
      "anonymous": false,
      "inputs": [
        {
          "indexed": false,
          "name": "_from",
          "type": "address"
        },
        {
          "indexed": false,
          "name": "_propositionNumber",
          "type": "uint256"
        }
      ],
      "name": "voteOnProposition",
      "type": "event"
    },
    {
      "anonymous": false,
      "inputs": [
        {
          "indexed": false,
          "name": "_from",
          "type": "address"
        },
        {
          "indexed": false,
          "name": "_propositionNumber",
          "type": "uint256"
        }
      ],
      "name": "vetoProposition",
      "type": "event"
    },
    {
      "anonymous": false,
      "inputs": [
        {
          "indexed": false,
          "name": "_from",
          "type": "address"
        },
        {
          "indexed": false,
          "name": "_propositionNumber",
          "type": "uint256"
        }
      ],
      "name": "countVotes",
      "type": "event"
    },
    {
      "anonymous": false,
      "inputs": [
        {
          "indexed": false,
          "name": "_from",
          "type": "address"
        },
        {
          "indexed": false,
          "name": "_propositionNumber",
          "type": "uint256"
        },
        {
          "indexed": false,
          "name": "_promulgate",
          "type": "bool"
        }
      ],
      "name": "promulgatePropositionEvent",
      "type": "event"
    }
  ],
  "bytecode": "0x6060604052600a600355341561001457600080fd5b60405160c080614b348339810160405280805190602001909190805190602001909190805190602001909190805190602001909190805190602001909190805190602001909190505085600460006101000a81548173ffffffffffffffffffffffffffffffffffffffff021916908373ffffffffffffffffffffffffffffffffffffffff16021790555084600560006101000a81548173ffffffffffffffffffffffffffffffffffffffff021916908373ffffffffffffffffffffffffffffffffffffffff16021790555083600660006101000a81548173ffffffffffffffffffffffffffffffffffffffff021916908373ffffffffffffffffffffffffffffffffffffffff1602179055508260098190555081600781905550806008819055506000600160006101000a81548160ff02191690831515021790555060018060016101000a81548160ff02191690831515021790555060016000819055505050505050506149ad806101876000396000f3006060604052600436106101a1576000357c0100000000000000000000000000000000000000000000000000000000900463ffffffff1680630366af3d146101a657806305cf0057146101ec57806307e7a2241461027a5780630b2e34b0146103085780630f2d671e1461035e5780631d28dec7146104865780632647d7f9146104a95780633068ef4d146104d257806337443feb146104fb5780633c0848ee146106295780633ef4cfbb146106b75780635332eea11461077d5780635dbe4d28146107d357806364cdd61e146107fc5780636a95d38d1461085157806375ff60c4146108ac578063880d3f54146109025780638f3b07a4146109575780639f32551b14610980578063a8bef97a146109a9578063ac37af1c146109d6578063b5fdb88e14610a11578063c9d27afe14610a3a578063cb20a2fd14610a68578063cd43eb1f14610af6578063cd87c2b614610b31578063ce784b7714610b5a578063ce88840314610baf578063d64ff06314610bf4578063d858849414610c22578063e09ecb8714610c78578063e36f6e4e14610cb3578063e80b30a514610cee575b600080fd5b34156101b157600080fd5b6101c76004808035906020019091905050610d1b565b6040518083151515158152602001821515151581526020019250505060405180910390f35b34156101f757600080fd5b610223600480803573ffffffffffffffffffffffffffffffffffffffff16906020019091905050610d83565b6040518080602001828103825283818151815260200191508051906020019060200280838360005b8381101561026657808201518184015260208101905061024b565b505050509050019250505060405180910390f35b341561028557600080fd5b6102b1600480803573ffffffffffffffffffffffffffffffffffffffff16906020019091905050610e20565b6040518080602001828103825283818151815260200191508051906020019060200280838360005b838110156102f45780820151818401526020810190506102d9565b505050509050019250505060405180910390f35b341561031357600080fd5b610348600480803573ffffffffffffffffffffffffffffffffffffffff16906020019091908035906020019091905050610ebd565b6040518082815260200191505060405180910390f35b341561036957600080fd5b610470600480803573ffffffffffffffffffffffffffffffffffffffff1690602001909190803573ffffffffffffffffffffffffffffffffffffffff1690602001909190803573ffffffffffffffffffffffffffffffffffffffff169060200190919080356000191690602001909190803560ff1690602001909190803560ff1690602001909190803590602001908201803590602001908080601f016020809104026020016040519081016040528093929190818152602001838380828437820191505050505050919080351515906020019091908035151590602001909190803515159060200190919080351515906020019091908035906020019091905050610eee565b6040518082815260200191505060405180910390f35b341561049157600080fd5b6104a76004808035906020019091905050611977565b005b34156104b457600080fd5b6104bc611be1565b6040518082815260200191505060405180910390f35b34156104dd57600080fd5b6104e5611be7565b6040518082815260200191505060405180910390f35b341561050657600080fd5b61051c6004808035906020019091905050611bed565b604051808873ffffffffffffffffffffffffffffffffffffffff1673ffffffffffffffffffffffffffffffffffffffff1681526020018773ffffffffffffffffffffffffffffffffffffffff1673ffffffffffffffffffffffffffffffffffffffff1681526020018615151515815260200185151515158152602001841515151581526020018315151515815260200180602001828103825283818151815260200191508051906020019080838360005b838110156105e85780820151818401526020810190506105cd565b50505050905090810190601f1680156106155780820380516001836020036101000a031916815260200191505b509850505050505050505060405180910390f35b341561063457600080fd5b610660600480803573ffffffffffffffffffffffffffffffffffffffff16906020019091905050611e0d565b6040518080602001828103825283818151815260200191508051906020019060200280838360005b838110156106a3578082015181840152602081019050610688565b505050509050019250505060405180910390f35b34156106c257600080fd5b6106d86004808035906020019091905050611eaa565b604051808773ffffffffffffffffffffffffffffffffffffffff1673ffffffffffffffffffffffffffffffffffffffff1681526020018673ffffffffffffffffffffffffffffffffffffffff1673ffffffffffffffffffffffffffffffffffffffff16815260200185600019166000191681526020018460ff1660ff1681526020018360ff1660ff168152602001828152602001965050505050505060405180910390f35b341561078857600080fd5b6107bd600480803573ffffffffffffffffffffffffffffffffffffffff16906020019091908035906020019091905050611fe8565b6040518082815260200191505060405180910390f35b34156107de57600080fd5b6107e6612019565b6040518082815260200191505060405180910390f35b341561080757600080fd5b61080f61201f565b604051808273ffffffffffffffffffffffffffffffffffffffff1673ffffffffffffffffffffffffffffffffffffffff16815260200191505060405180910390f35b341561085c57600080fd5b6108726004808035906020019091905050612045565b6040518086815260200185815260200184815260200183151515158152602001821515151581526020019550505050505060405180910390f35b34156108b757600080fd5b6108ec600480803573ffffffffffffffffffffffffffffffffffffffff16906020019091908035906020019091905050612158565b6040518082815260200191505060405180910390f35b341561090d57600080fd5b610915612189565b604051808273ffffffffffffffffffffffffffffffffffffffff1673ffffffffffffffffffffffffffffffffffffffff16815260200191505060405180910390f35b341561096257600080fd5b61096a6121af565b6040518082815260200191505060405180910390f35b341561098b57600080fd5b6109936121b5565b6040518082815260200191505060405180910390f35b34156109b457600080fd5b6109bc6121bb565b604051808215151515815260200191505060405180910390f35b34156109e157600080fd5b6109f760048080359060200190919050506121ce565b604051808215151515815260200191505060405180910390f35b3415610a1c57600080fd5b610a24612242565b6040518082815260200191505060405180910390f35b3415610a4557600080fd5b610a6660048080359060200190919080351515906020019091905050612248565b005b3415610a7357600080fd5b610a9f600480803573ffffffffffffffffffffffffffffffffffffffff169060200190919050506125d3565b6040518080602001828103825283818151815260200191508051906020019060200280838360005b83811015610ae2578082015181840152602081019050610ac7565b505050509050019250505060405180910390f35b3415610b0157600080fd5b610b176004808035906020019091905050612670565b604051808215151515815260200191505060405180910390f35b3415610b3c57600080fd5b610b446126a3565b6040518082815260200191505060405180910390f35b3415610b6557600080fd5b610b6d6126a9565b604051808273ffffffffffffffffffffffffffffffffffffffff1673ffffffffffffffffffffffffffffffffffffffff16815260200191505060405180910390f35b3415610bba57600080fd5b610bd060048080359060200190919050506126cf565b60405180848152602001838152602001828152602001935050505060405180910390f35b3415610bff57600080fd5b610c2060048080359060200190919080351515906020019091905050612748565b005b3415610c2d57600080fd5b610c62600480803573ffffffffffffffffffffffffffffffffffffffff16906020019091908035906020019091905050614108565b6040518082815260200191505060405180910390f35b3415610c8357600080fd5b610c996004808035906020019091905050614139565b604051808215151515815260200191505060405180910390f35b3415610cbe57600080fd5b610cd460048080359060200190919050506144e4565b604051808215151515815260200191505060405180910390f35b3415610cf957600080fd5b610d01614517565b604051808215151515815260200191505060405180910390f35b600080600c83815481101515610d2d57fe5b90600052602060002090600e0201600b0160019054906101000a900460ff16600c84815481101515610d5b57fe5b90600052602060002090600e0201600b0160039054906101000a900460ff1691509150915091565b610d8b614529565b601060008373ffffffffffffffffffffffffffffffffffffffff1673ffffffffffffffffffffffffffffffffffffffff168152602001908152602001600020805480602002602001604051908101604052809291908181526020018280548015610e1457602002820191906000526020600020905b815481526020019060010190808311610e00575b50505050509050919050565b610e28614529565b601260008373ffffffffffffffffffffffffffffffffffffffff1673ffffffffffffffffffffffffffffffffffffffff168152602001908152602001600020805480602002602001604051908101604052809291908181526020018280548015610eb157602002820191906000526020600020905b815481526020019060010190808311610e9d575b50505050509050919050565b600f60205281600052604060002081815481101515610ed857fe5b9060005260206000209001600091509150505481565b600080610ef961453d565b600460009054906101000a900473ffffffffffffffffffffffffffffffffffffffff1691508173ffffffffffffffffffffffffffffffffffffffff1663d323a4f8336000604051602001526040518263ffffffff167c0100000000000000000000000000000000000000000000000000000000028152600401808273ffffffffffffffffffffffffffffffffffffffff1673ffffffffffffffffffffffffffffffffffffffff168152602001915050602060405180830381600087803b1515610fc157600080fd5b6102c65a03f11515610fd257600080fd5b505050604051805190501515610fe757600080fd5b600091508e816000019073ffffffffffffffffffffffffffffffffffffffff16908173ffffffffffffffffffffffffffffffffffffffff16815250508d816020019073ffffffffffffffffffffffffffffffffffffffff16908173ffffffffffffffffffffffffffffffffffffffff16815250508c816040019073ffffffffffffffffffffffffffffffffffffffff16908173ffffffffffffffffffffffffffffffffffffffff16815250508b816060019060001916908160001916815250508a816080019060ff16908160ff1681525050898160a0019060ff16908160ff1681525050878160e00190151590811515815250508681610100019015159081151581525050848161012001901515908115158152505085816101400190151590811515815250508381610160018181525050888160c0018190525042816101800181815250506007544201816101a00181815250506000816101c00190151590811515815250506000816102200190151590811515815250506000816101e0019015159081151581525050600081610200019015159081151581525050600081610260018181525050600081610240018181525050600c80548060010182816111b09190614638565b91600052602060002090600e0201600083909190915060008201518160000160006101000a81548173ffffffffffffffffffffffffffffffffffffffff021916908373ffffffffffffffffffffffffffffffffffffffff16021790555060208201518160010160006101000a81548173ffffffffffffffffffffffffffffffffffffffff021916908373ffffffffffffffffffffffffffffffffffffffff16021790555060408201518160020160006101000a81548173ffffffffffffffffffffffffffffffffffffffff021916908373ffffffffffffffffffffffffffffffffffffffff1602179055506060820151816003019060001916905560808201518160040160006101000a81548160ff021916908360ff16021790555060a08201518160040160016101000a81548160ff021916908360ff16021790555060c082015181600501908051906020019061130992919061466a565b5060e08201518160060160006101000a81548160ff0219169083151502179055506101008201518160060160016101000a81548160ff0219169083151502179055506101208201518160060160026101000a81548160ff0219169083151502179055506101408201518160060160036101000a81548160ff021916908315150217905550610160820151816007015561018082015181600901556101a082015181600a01556101c082015181600b0160006101000a81548160ff0219169083151502179055506101e082015181600b0160016101000a81548160ff02191690831515021790555061020082015181600b0160026101000a81548160ff02191690831515021790555061022082015181600b0160036101000a81548160ff02191690831515021790555061024082015181600c015561026082015181600d015550505061145361453d565b90506001600c805490500392506001600a60008282540192505081905550600f60003373ffffffffffffffffffffffffffffffffffffffff1673ffffffffffffffffffffffffffffffffffffffff16815260200190815260200160002080548060010182816114c291906146ea565b916000526020600020900160008590919091505550600d80548060010182816114eb9190614716565b91600052602060002090602091828204019190066001909190916101000a81548160ff02191690831515021790555050600e805480600101828161152f9190614716565b91600052602060002090602091828204019190066000909190916101000a81548160ff021916908315150217905550507f2c230862c7869ceafe2db15dda54a94fd7e87a574af1360a09e7a6f8acbc6bd333600c8581548110151561159057fe5b90600052602060002090600e020160000160009054906101000a900473ffffffffffffffffffffffffffffffffffffffff168686604051808573ffffffffffffffffffffffffffffffffffffffff1673ffffffffffffffffffffffffffffffffffffffff1681526020018473ffffffffffffffffffffffffffffffffffffffff1673ffffffffffffffffffffffffffffffffffffffff16815260200183815260200182815260200194505050505060405180910390a17fe00280f434fd134c148d59d0345a47457ed75114c60d70d759e43848b8faf7f58e8e604051808373ffffffffffffffffffffffffffffffffffffffff1673ffffffffffffffffffffffffffffffffffffffff1681526020018273ffffffffffffffffffffffffffffffffffffffff1673ffffffffffffffffffffffffffffffffffffffff1681526020019250505060405180910390a160008414156117a7577fec3d420ffa4da7a9686480af8bca59e8924642e69b2af65e3cebfa7b3fd60dbb8389898c60405180858152602001841515151581526020018315151515815260200180602001828103825283818151815260200191508051906020019080838360005b8381101561176557808201518184015260208101905061174a565b50505050905090810190601f1680156117925780820380516001836020036101000a031916815260200191505b509550505050505060405180910390a1611965565b6001841415611889577f1f3b72c309501b6d3e1f9d91571c6faef20f943d351b92f44d8c5c8b9d9ad84c83898989898e604051808781526020018615151515815260200185151515158152602001841515151581526020018315151515815260200180602001828103825283818151815260200191508051906020019080838360005b8381101561184557808201518184015260208101905061182a565b50505050905090810190601f1680156118725780820380516001836020036101000a031916815260200191505b5097505050505050505060405180910390a1611964565b6002841415611963577f5c96618013629f155bcf67ccd4858a79107e88a36d2a03d3f6c25f97a6b3fc5a838d8d8d8d6040518086815260200185600019166000191681526020018460ff1660ff1681526020018360ff1660ff16815260200180602001828103825283818151815260200191508051906020019080838360005b83811015611924578082015181840152602081019050611909565b50505050905090810190601f1680156119515780820380516001836020036101000a031916815260200191505b50965050505050505060405180910390a15b5b5b50509c9b505050505050505050505050565b6000600560009054906101000a900473ffffffffffffffffffffffffffffffffffffffff1690508073ffffffffffffffffffffffffffffffffffffffff1663d323a4f8336000604051602001526040518263ffffffff167c0100000000000000000000000000000000000000000000000000000000028152600401808273ffffffffffffffffffffffffffffffffffffffff1673ffffffffffffffffffffffffffffffffffffffff168152602001915050602060405180830381600087803b1515611a4157600080fd5b6102c65a03f11515611a5257600080fd5b505050604051805190501515611a6757600080fd5b60009050600c82815481101515611a7a57fe5b90600052602060002090600e0201600b0160019054906101000a900460ff16151515611aa557600080fd5b42600c83815481101515611ab557fe5b90600052602060002090600e0201600a0154111515611ad357600080fd5b6001600c83815481101515611ae457fe5b90600052602060002090600e0201600b0160006101000a81548160ff021916908315150217905550601160003373ffffffffffffffffffffffffffffffffffffffff1673ffffffffffffffffffffffffffffffffffffffff1681526020019081526020016000208054806001018281611b5d91906146ea565b9160005260206000209001600084909190915055507f62901d9c2f788a5c877cf5a2659a041eedf9a980c6dd3ed22a4878bcc228619b3383604051808373ffffffffffffffffffffffffffffffffffffffff1673ffffffffffffffffffffffffffffffffffffffff1681526020018281526020019250505060405180910390a15050565b60035481565b60095481565b600080600080600080611bfe614750565b600c88815481101515611c0d57fe5b90600052602060002090600e020160010160009054906101000a900473ffffffffffffffffffffffffffffffffffffffff16600c89815481101515611c4e57fe5b90600052602060002090600e020160020160009054906101000a900473ffffffffffffffffffffffffffffffffffffffff16600c8a815481101515611c8f57fe5b90600052602060002090600e020160060160009054906101000a900460ff16600c8b815481101515611cbd57fe5b90600052602060002090600e020160060160019054906101000a900460ff16600c8c815481101515611ceb57fe5b90600052602060002090600e020160060160039054906101000a900460ff16600c8d815481101515611d1957fe5b90600052602060002090600e020160060160029054906101000a900460ff16600c8e815481101515611d4757fe5b90600052602060002090600e0201600501808054600181600116156101000203166002900480601f016020809104026020016040519081016040528092919081815260200182805460018160011615610100020316600290048015611ded5780601f10611dc257610100808354040283529160200191611ded565b820191906000526020600020905b815481529060010190602001808311611dd057829003601f168201915b505050505090509650965096509650965096509650919395979092949650565b611e15614529565b601160008373ffffffffffffffffffffffffffffffffffffffff1673ffffffffffffffffffffffffffffffffffffffff168152602001908152602001600020805480602002602001604051908101604052809291908181526020018280548015611e9e57602002820191906000526020600020905b815481526020019060010190808311611e8a575b50505050509050919050565b600080600080600080600c87815481101515611ec257fe5b90600052602060002090600e020160010160009054906101000a900473ffffffffffffffffffffffffffffffffffffffff16600c88815481101515611f0357fe5b90600052602060002090600e020160020160009054906101000a900473ffffffffffffffffffffffffffffffffffffffff16600c89815481101515611f4457fe5b90600052602060002090600e020160030154600c8a815481101515611f6557fe5b90600052602060002090600e020160040160009054906101000a900460ff16600c8b815481101515611f9357fe5b90600052602060002090600e020160040160019054906101000a900460ff16600c8c815481101515611fc157fe5b90600052602060002090600e02016007015495509550955095509550955091939550919395565b60126020528160005260406000208181548110151561200357fe5b9060005260206000209001600091509150505481565b60005481565b600560009054906101000a900473ffffffffffffffffffffffffffffffffffffffff1681565b6000806000806000600c8681548110151561205c57fe5b90600052602060002090600e0201600b0160019054906101000a900460ff16151561208657600080fd5b600c8681548110151561209557fe5b90600052602060002090600e020160090154600c878154811015156120b657fe5b90600052602060002090600e0201600d0154600c888154811015156120d757fe5b90600052602060002090600e0201600c0154600c898154811015156120f857fe5b90600052602060002090600e0201600b0160009054906101000a900460ff16600c8a81548110151561212657fe5b90600052602060002090600e0201600b0160029054906101000a900460ff169450945094509450945091939590929450565b60106020528160005260406000208181548110151561217357fe5b9060005260206000209001600091509150505481565b600660009054906101000a900473ffffffffffffffffffffffffffffffffffffffff1681565b600a5481565b600b5481565b600160009054906101000a900460ff1681565b6000600c828154811015156121df57fe5b90600052602060002090600e020160080160003373ffffffffffffffffffffffffffffffffffffffff1673ffffffffffffffffffffffffffffffffffffffff16815260200190815260200160002060009054906101000a900460ff169050919050565b60075481565b6000600460009054906101000a900473ffffffffffffffffffffffffffffffffffffffff1690508073ffffffffffffffffffffffffffffffffffffffff1663d323a4f8336000604051602001526040518263ffffffff167c0100000000000000000000000000000000000000000000000000000000028152600401808273ffffffffffffffffffffffffffffffffffffffff1673ffffffffffffffffffffffffffffffffffffffff168152602001915050602060405180830381600087803b151561231257600080fd5b6102c65a03f1151561232357600080fd5b50505060405180519050151561233857600080fd5b60009050600c8381548110151561234b57fe5b90600052602060002090600e020160080160003373ffffffffffffffffffffffffffffffffffffffff1673ffffffffffffffffffffffffffffffffffffffff16815260200190815260200160002060009054906101000a900460ff161515156123b357600080fd5b600c838154811015156123c257fe5b90600052602060002090600e0201600b0160019054906101000a900460ff161515156123ed57600080fd5b42600c848154811015156123fd57fe5b90600052602060002090600e0201600a015411151561241b57600080fd5b600115158215151415612458576001600c8481548110151561243957fe5b90600052602060002090600e0201600c01600082825401925050819055505b6001600c8481548110151561246957fe5b90600052602060002090600e020160080160003373ffffffffffffffffffffffffffffffffffffffff1673ffffffffffffffffffffffffffffffffffffffff16815260200190815260200160002060006101000a81548160ff0219169083151502179055506001600c848154811015156124df57fe5b90600052602060002090600e0201600d0160008282540192505081905550601060003373ffffffffffffffffffffffffffffffffffffffff1673ffffffffffffffffffffffffffffffffffffffff168152602001908152602001600020805480600101828161254e91906146ea565b9160005260206000209001600085909190915055507fd1faddd599b0d6b58c83de71d7ff5395895b5891894dcd37f2482f33b2a1c43d3384604051808373ffffffffffffffffffffffffffffffffffffffff1673ffffffffffffffffffffffffffffffffffffffff1681526020018281526020019250505060405180910390a1505050565b6125db614529565b600f60008373ffffffffffffffffffffffffffffffffffffffff1673ffffffffffffffffffffffffffffffffffffffff16815260200190815260200160002080548060200260200160405190810160405280929190818152602001828054801561266457602002820191906000526020600020905b815481526020019060010190808311612650575b50505050509050919050565b600e8181548110151561267f57fe5b9060005260206000209060209182820401919006915054906101000a900460ff1681565b60085481565b600460009054906101000a900473ffffffffffffffffffffffffffffffffffffffff1681565b6000806000600c848154811015156126e357fe5b90600052602060002090600e020160090154600c8581548110151561270457fe5b90600052602060002090600e0201600a0154600854600c8781548110151561272857fe5b90600052602060002090600e0201600a0154019250925092509193909250565b600080600c8481548110151561275a57fe5b90600052602060002090600e0201600b0160039054906101000a900460ff1615151561278557600080fd5b600c8481548110151561279457fe5b90600052602060002090600e0201600b0160019054906101000a900460ff1615156127be57600080fd5b600854600c858154811015156127d057fe5b90600052602060002090600e0201600a0154014210156128e157600660009054906101000a900473ffffffffffffffffffffffffffffffffffffffff1691508173ffffffffffffffffffffffffffffffffffffffff1663d323a4f8336000604051602001526040518263ffffffff167c0100000000000000000000000000000000000000000000000000000000028152600401808273ffffffffffffffffffffffffffffffffffffffff1673ffffffffffffffffffffffffffffffffffffffff168152602001915050602060405180830381600087803b15156128b257600080fd5b6102c65a03f115156128c357600080fd5b5050506040518051905015156128d857600080fd5b600091506128ee565b8215156128ed57600080fd5b5b600c848154811015156128fd57fe5b90600052602060002090600e0201600b0160029054906101000a900460ff16151561292757600080fd5b8215806129ec57506000600c8581548110151561294057fe5b90600052602060002090600e020160010160009054906101000a900473ffffffffffffffffffffffffffffffffffffffff1673ffffffffffffffffffffffffffffffffffffffff161480156129eb57506000600c858154811015156129a157fe5b90600052602060002090600e020160020160009054906101000a900473ffffffffffffffffffffffffffffffffffffffff1673ffffffffffffffffffffffffffffffffffffffff16145b5b15612a2f576001600c85815481101515612a0257fe5b90600052602060002090600e0201600b0160036101000a81548160ff021916908315150217905550613fb2565b600c84815481101515612a3e57fe5b90600052602060002090600e020160000160009054906101000a900473ffffffffffffffffffffffffffffffffffffffff1690506000600c85815481101515612a8357fe5b90600052602060002090600e020160010160009054906101000a900473ffffffffffffffffffffffffffffffffffffffff1673ffffffffffffffffffffffffffffffffffffffff16141515613bcd576000600c85815481101515612ae357fe5b90600052602060002090600e020160020160009054906101000a900473ffffffffffffffffffffffffffffffffffffffff1673ffffffffffffffffffffffffffffffffffffffff1614151561346d576000600c85815481101515612b4357fe5b90600052602060002090600e0201600701541415612ddd578073ffffffffffffffffffffffffffffffffffffffff16630e6adcdf600c86815481101515612b8657fe5b90600052602060002090600e020160020160009054906101000a900473ffffffffffffffffffffffffffffffffffffffff16600c87815481101515612bc757fe5b90600052602060002090600e020160010160009054906101000a900473ffffffffffffffffffffffffffffffffffffffff16600c88815481101515612c0857fe5b90600052602060002090600e020160060160009054906101000a900460ff16600c89815481101515612c3657fe5b90600052602060002090600e020160060160019054906101000a900460ff16600c8a815481101515612c6457fe5b90600052602060002090600e02016005016040518663ffffffff167c0100000000000000000000000000000000000000000000000000000000028152600401808673ffffffffffffffffffffffffffffffffffffffff1673ffffffffffffffffffffffffffffffffffffffff1681526020018573ffffffffffffffffffffffffffffffffffffffff1673ffffffffffffffffffffffffffffffffffffffff168152602001841515151581526020018315151515815260200180602001828103825283818154600181600116156101000203166002900481526020019150805460018160011615610100020316600290048015612da15780601f10612d7657610100808354040283529160200191612da1565b820191906000526020600020905b815481529060010190602001808311612d8457829003601f168201915b50509650505050505050600060405180830381600087803b1515612dc457600080fd5b6102c65a03f11515612dd557600080fd5b505050613468565b6001600c85815481101515612dee57fe5b90600052602060002090600e02016007015414156130fa578073ffffffffffffffffffffffffffffffffffffffff16638186c350600c86815481101515612e3157fe5b90600052602060002090600e020160020160009054906101000a900473ffffffffffffffffffffffffffffffffffffffff16600c87815481101515612e7257fe5b90600052602060002090600e020160010160009054906101000a900473ffffffffffffffffffffffffffffffffffffffff16600c88815481101515612eb357fe5b90600052602060002090600e020160060160009054906101000a900460ff16600c89815481101515612ee157fe5b90600052602060002090600e020160060160019054906101000a900460ff16600c8a815481101515612f0f57fe5b90600052602060002090600e020160060160039054906101000a900460ff16600c8b815481101515612f3d57fe5b90600052602060002090600e020160060160029054906101000a900460ff16600c8c815481101515612f6b57fe5b90600052602060002090600e02016005016040518863ffffffff167c0100000000000000000000000000000000000000000000000000000000028152600401808873ffffffffffffffffffffffffffffffffffffffff1673ffffffffffffffffffffffffffffffffffffffff1681526020018773ffffffffffffffffffffffffffffffffffffffff1673ffffffffffffffffffffffffffffffffffffffff16815260200186151515158152602001851515151581526020018415151515815260200183151515158152602001806020018281038252838181546001816001161561010002031660029004815260200191508054600181600116156101000203166002900480156130bc5780601f10613091576101008083540402835291602001916130bc565b820191906000526020600020905b81548152906001019060200180831161309f57829003601f168201915b505098505050505050505050600060405180830381600087803b15156130e157600080fd5b6102c65a03f115156130f257600080fd5b505050613467565b6002600c8581548110151561310b57fe5b90600052602060002090600e0201600701541415613466578073ffffffffffffffffffffffffffffffffffffffff1663cd26b87b8273ffffffffffffffffffffffffffffffffffffffff16635549ea51600c8881548110151561316a57fe5b90600052602060002090600e020160020160009054906101000a900473ffffffffffffffffffffffffffffffffffffffff166000604051602001526040518263ffffffff167c0100000000000000000000000000000000000000000000000000000000028152600401808273ffffffffffffffffffffffffffffffffffffffff1673ffffffffffffffffffffffffffffffffffffffff168152602001915050602060405180830381600087803b151561322257600080fd5b6102c65a03f1151561323357600080fd5b50505060405180519050600c8781548110151561324c57fe5b90600052602060002090600e020160010160009054906101000a900473ffffffffffffffffffffffffffffffffffffffff16600c8881548110151561328d57fe5b90600052602060002090600e0201600501600c898154811015156132ad57fe5b90600052602060002090600e020160030154600c8a8154811015156132ce57fe5b90600052602060002090600e020160040160009054906101000a900460ff16600c8b8154811015156132fc57fe5b90600052602060002090600e020160040160019054906101000a900460ff166040518763ffffffff167c0100000000000000000000000000000000000000000000000000000000028152600401808781526020018673ffffffffffffffffffffffffffffffffffffffff1673ffffffffffffffffffffffffffffffffffffffff1681526020018060200185600019166000191681526020018460ff1660ff1681526020018360ff1660ff16815260200182810382528681815460018160011615610100020316600290048152602001915080546001816001161561010002031660029004801561342d5780601f106134025761010080835404028352916020019161342d565b820191906000526020600020905b81548152906001019060200180831161341057829003601f168201915b5050975050505050505050600060405180830381600087803b151561345157600080fd5b6102c65a03f1151561346257600080fd5b5050505b5b5b613bc8565b6000600c8581548110151561347e57fe5b90600052602060002090600e02016007015414156136a4578073ffffffffffffffffffffffffffffffffffffffff1663ca1885f7600c868154811015156134c157fe5b90600052602060002090600e020160010160009054906101000a900473ffffffffffffffffffffffffffffffffffffffff16600c8781548110151561350257fe5b90600052602060002090600e020160060160009054906101000a900460ff16600c8881548110151561353057fe5b90600052602060002090600e020160060160019054906101000a900460ff16600c8981548110151561355e57fe5b90600052602060002090600e02016005016040518563ffffffff167c0100000000000000000000000000000000000000000000000000000000028152600401808573ffffffffffffffffffffffffffffffffffffffff1673ffffffffffffffffffffffffffffffffffffffff1681526020018415151515815260200183151515158152602001806020018281038252838181546001816001161561010002031660029004815260200191508054600181600116156101000203166002900480156136695780601f1061363e57610100808354040283529160200191613669565b820191906000526020600020905b81548152906001019060200180831161364c57829003601f168201915b505095505050505050600060405180830381600087803b151561368b57600080fd5b6102c65a03f1151561369c57600080fd5b505050613bc7565b6001600c858154811015156136b557fe5b90600052602060002090600e020160070154141561394d578073ffffffffffffffffffffffffffffffffffffffff166378ebd005600c868154811015156136f857fe5b90600052602060002090600e020160010160009054906101000a900473ffffffffffffffffffffffffffffffffffffffff16600c8781548110151561373957fe5b90600052602060002090600e020160060160009054906101000a900460ff16600c8881548110151561376757fe5b90600052602060002090600e020160060160019054906101000a900460ff16600c8981548110151561379557fe5b90600052602060002090600e020160060160039054906101000a900460ff16600c8a8154811015156137c357fe5b90600052602060002090600e020160060160029054906101000a900460ff16600c8b8154811015156137f157fe5b90600052602060002090600e02016005016040518763ffffffff167c0100000000000000000000000000000000000000000000000000000000028152600401808773ffffffffffffffffffffffffffffffffffffffff1673ffffffffffffffffffffffffffffffffffffffff16815260200186151515158152602001851515151581526020018415151515815260200183151515158152602001806020018281038252838181546001816001161561010002031660029004815260200191508054600181600116156101000203166002900480156139105780601f106138e557610100808354040283529160200191613910565b820191906000526020600020905b8154815290600101906020018083116138f357829003601f168201915b5050975050505050505050600060405180830381600087803b151561393457600080fd5b6102c65a03f1151561394557600080fd5b505050613bc6565b6002600c8581548110151561395e57fe5b90600052602060002090600e0201600701541415613bc5578073ffffffffffffffffffffffffffffffffffffffff1663696c5219600c868154811015156139a157fe5b90600052602060002090600e020160010160009054906101000a900473ffffffffffffffffffffffffffffffffffffffff16600c878154811015156139e257fe5b90600052602060002090600e0201600501600c88815481101515613a0257fe5b90600052602060002090600e020160030154600c89815481101515613a2357fe5b90600052602060002090600e020160040160009054906101000a900460ff16600c8a815481101515613a5157fe5b90600052602060002090600e020160040160019054906101000a900460ff166000604051602001526040518663ffffffff167c0100000000000000000000000000000000000000000000000000000000028152600401808673ffffffffffffffffffffffffffffffffffffffff1673ffffffffffffffffffffffffffffffffffffffff1681526020018060200185600019166000191681526020018460ff1660ff1681526020018360ff1660ff168152602001828103825286818154600181600116156101000203166002900481526020019150805460018160011615610100020316600290048015613b855780601f10613b5a57610100808354040283529160200191613b85565b820191906000526020600020905b815481529060010190602001808311613b6857829003601f168201915b50509650505050505050602060405180830381600087803b1515613ba857600080fd5b6102c65a03f11515613bb957600080fd5b50505060405180519050505b5b5b5b613fb1565b6000600c85815481101515613bde57fe5b90600052602060002090600e0201600701541415613ce9578073ffffffffffffffffffffffffffffffffffffffff166331a79198600c86815481101515613c2157fe5b90600052602060002090600e020160020160009054906101000a900473ffffffffffffffffffffffffffffffffffffffff166040518263ffffffff167c0100000000000000000000000000000000000000000000000000000000028152600401808273ffffffffffffffffffffffffffffffffffffffff1673ffffffffffffffffffffffffffffffffffffffff168152602001915050600060405180830381600087803b1515613cd057600080fd5b6102c65a03f11515613ce157600080fd5b505050613fb0565b6001600c85815481101515613cfa57fe5b90600052602060002090600e0201600701541415613e05578073ffffffffffffffffffffffffffffffffffffffff166311c60418600c86815481101515613d3d57fe5b90600052602060002090600e020160020160009054906101000a900473ffffffffffffffffffffffffffffffffffffffff166040518263ffffffff167c0100000000000000000000000000000000000000000000000000000000028152600401808273ffffffffffffffffffffffffffffffffffffffff1673ffffffffffffffffffffffffffffffffffffffff168152602001915050600060405180830381600087803b1515613dec57600080fd5b6102c65a03f11515613dfd57600080fd5b505050613faf565b6002600c85815481101515613e1657fe5b90600052602060002090600e0201600701541415613fae578073ffffffffffffffffffffffffffffffffffffffff16630e9defff8273ffffffffffffffffffffffffffffffffffffffff16635549ea51600c88815481101515613e7557fe5b90600052602060002090600e020160020160009054906101000a900473ffffffffffffffffffffffffffffffffffffffff166000604051602001526040518263ffffffff167c0100000000000000000000000000000000000000000000000000000000028152600401808273ffffffffffffffffffffffffffffffffffffffff1673ffffffffffffffffffffffffffffffffffffffff168152602001915050602060405180830381600087803b1515613f2d57600080fd5b6102c65a03f11515613f3e57600080fd5b505050604051805190506040518263ffffffff167c010000000000000000000000000000000000000000000000000000000002815260040180828152602001915050600060405180830381600087803b1515613f9957600080fd5b6102c65a03f11515613faa57600080fd5b5050505b5b5b5b5b6001600c85815481101515613fc357fe5b90600052602060002090600e0201600b0160036101000a81548160ff0219169083151502179055506000600e85815481101515613ffc57fe5b90600052602060002090602091828204019190066101000a81548160ff021916908315150217905550601260003373ffffffffffffffffffffffffffffffffffffffff1673ffffffffffffffffffffffffffffffffffffffff168152602001908152602001600020805480600101828161407691906146ea565b9160005260206000209001600086909190915055507fed7c73834db4ae22add7f637175d8a32a1dddae4c154ccd25195b77df4c8d18d338585604051808473ffffffffffffffffffffffffffffffffffffffff1673ffffffffffffffffffffffffffffffffffffffff16815260200183815260200182151515158152602001935050505060405180910390a150505050565b60116020528160005260406000208181548110151561412357fe5b9060005260206000209001600091509150505481565b600080600c8381548110151561414b57fe5b90600052602060002090600e0201600b0160019054906101000a900460ff1615151561417657600080fd5b42600c8481548110151561418657fe5b90600052602060002090600e0201600a01541015156141a457600080fd5b600460009054906101000a900473ffffffffffffffffffffffffffffffffffffffff169050600c838154811015156141d857fe5b90600052602060002090600e0201600b0160009054906101000a900460ff161561423e57600091506001600c8481548110151561421157fe5b90600052602060002090600e0201600b0160036101000a81548160ff02191690831515021790555061438e565b8073ffffffffffffffffffffffffffffffffffffffff1663234d34de6000604051602001526040518163ffffffff167c0100000000000000000000000000000000000000000000000000000000028152600401602060405180830381600087803b15156142aa57600080fd5b6102c65a03f115156142bb57600080fd5b50505060405180519050600954026064600c858154811015156142da57fe5b90600052602060002090600e0201600d0154021015801561434157506064600c8481548110151561430757fe5b90600052602060002090600e0201600d015402600b54600c8581548110151561432c57fe5b90600052602060002090600e0201600c015402115b1561434f576001915061438d565b600091506001600c8481548110151561436457fe5b90600052602060002090600e0201600b0160036101000a81548160ff0219169083151502179055505b5b6001600c8481548110151561439f57fe5b90600052602060002090600e0201600b0160016101000a81548160ff02191690831515021790555081600c848154811015156143d757fe5b90600052602060002090600e0201600b0160026101000a81548160ff0219169083151502179055506000600d8481548110151561441057fe5b90600052602060002090602091828204019190066101000a81548160ff0219169083151502179055506001600e8481548110151561444a57fe5b90600052602060002090602091828204019190066101000a81548160ff0219169083151502179055507f297f1f08d2ef8c90272f7ee3e1d4272015a96cdff8a252b60547b9e432e723603384604051808373ffffffffffffffffffffffffffffffffffffffff1673ffffffffffffffffffffffffffffffffffffffff1681526020018281526020019250505060405180910390a150919050565b600d818154811015156144f357fe5b9060005260206000209060209182820401919006915054906101000a900460ff1681565b6001809054906101000a900460ff1681565b602060405190810160405280600081525090565b61028060405190810160405280600073ffffffffffffffffffffffffffffffffffffffff168152602001600073ffffffffffffffffffffffffffffffffffffffff168152602001600073ffffffffffffffffffffffffffffffffffffffff16815260200160008019168152602001600060ff168152602001600060ff1681526020016145c7614764565b815260200160001515815260200160001515815260200160001515815260200160001515815260200160008152602001600081526020016000815260200160001515815260200160001515815260200160001515815260200160001515815260200160008152602001600081525090565b81548183558181151161466557600e0281600e0283600052602060002091820191016146649190614778565b5b505050565b828054600181600116156101000203166002900490600052602060002090601f016020900481019282601f106146ab57805160ff19168380011785556146d9565b828001600101855582156146d9579182015b828111156146d85782518255916020019190600101906146bd565b5b5090506146e69190614914565b5090565b815481835581811511614711578183600052602060002091820191016147109190614914565b5b505050565b81548183558181151161474b57601f016020900481601f0160209004836000526020600020918201910161474a9190614914565b5b505050565b602060405190810160405280600081525090565b602060405190810160405280600081525090565b61491191905b8082111561490d57600080820160006101000a81549073ffffffffffffffffffffffffffffffffffffffff02191690556001820160006101000a81549073ffffffffffffffffffffffffffffffffffffffff02191690556002820160006101000a81549073ffffffffffffffffffffffffffffffffffffffff021916905560038201600090556004820160006101000a81549060ff02191690556004820160016101000a81549060ff021916905560058201600061483c9190614939565b6006820160006101000a81549060ff02191690556006820160016101000a81549060ff02191690556006820160026101000a81549060ff02191690556006820160036101000a81549060ff021916905560078201600090556009820160009055600a820160009055600b820160006101000a81549060ff0219169055600b820160016101000a81549060ff0219169055600b820160026101000a81549060ff0219169055600b820160036101000a81549060ff0219169055600c820160009055600d82016000905550600e0161477e565b5090565b90565b61493691905b8082111561493257600081600090555060010161491a565b5090565b90565b50805460018160011615610100020316600290046000825580601f1061495f575061497e565b601f01602090049060005260206000209081019061497d9190614914565b5b505600a165627a7a72305820c16c14fbff4f0bed50c965b69797e1ff093ebbfebc38976b97f4bcb1fbe493b10029",
  "source": "pragma solidity ^0.4.11;\n\n// Standard contract for a presidential election procedure\n\nimport \"../standardProcedure.sol\";\nimport \"../standardOrgan.sol\";\nimport \"../procedures/voteOnAdminsProcedure.sol\";\n\n\n\n\ncontract deployVoteOnAdmins is voteOnAdminsProcedure {\n\nfunction deployVoteOnAdmins (address _votersOrganContract, address _membersWithVetoOrganContract, address _finalPromulgatorsOrganContract, uint _quorumSize, uint _votingPeriodDuration, uint _promulgationPeriodDuration) public {\n\n    votersOrganContract = _votersOrganContract;\n    membersWithVetoOrganContract = _membersWithVetoOrganContract;\n    finalPromulgatorsOrganContract = _finalPromulgatorsOrganContract; \n\n    quorumSize = _quorumSize;\n    // votingPeriodDuration = 3 minutes;\n    // promulgationPeriodDuration = 3 minutes;\n\n    votingPeriodDuration = _votingPeriodDuration;\n    promulgationPeriodDuration = _promulgationPeriodDuration;\n\n    isAnOrgan = false;\n    isAProcedure = true;\n    kelsenVersionNumber = 1;\n\n    }\n}\n",
  "sourcePath": "/Users/henrilieutaud/Documents/Mes documents/97/Workshop/ChainTech/solidity/contracts/deploy/deployVoteOnAdmins.sol",
  "compiler": {
    "name": "solc",
    "version": "0.4.19+commit.c4cbbb05.Emscripten.clang"
  },
  "schemaVersion": "2.0.0",
  "updatedAt": "2018-04-01T00:26:38.488Z"
}