{
  "contractName": "exclusionProcedure",
  "abi": [
    {
      "constant": true,
      "inputs": [],
      "name": "procedureTypeNumber",
      "outputs": [
        {
          "name": "",
          "type": "int256"
        }
      ],
      "payable": false,
      "stateMutability": "view",
      "type": "function"
    },
    {
      "constant": true,
      "inputs": [
        {
          "name": "",
          "type": "address"
        },
        {
          "name": "",
          "type": "uint256"
        }
      ],
      "name": "exclusionToVoter",
      "outputs": [
        {
          "name": "",
          "type": "uint256"
        }
      ],
      "payable": false,
      "stateMutability": "view",
      "type": "function"
    },
    {
      "constant": true,
      "inputs": [],
      "name": "kelsenVersionNumber",
      "outputs": [
        {
          "name": "",
          "type": "int256"
        }
      ],
      "payable": false,
      "stateMutability": "view",
      "type": "function"
    },
    {
      "constant": true,
      "inputs": [],
      "name": "authorizedNominatersOrgan",
      "outputs": [
        {
          "name": "",
          "type": "address"
        }
      ],
      "payable": false,
      "stateMutability": "view",
      "type": "function"
    },
    {
      "constant": true,
      "inputs": [],
      "name": "isAnOrgan",
      "outputs": [
        {
          "name": "",
          "type": "bool"
        }
      ],
      "payable": false,
      "stateMutability": "view",
      "type": "function"
    },
    {
      "constant": true,
      "inputs": [
        {
          "name": "",
          "type": "uint256"
        }
      ],
      "name": "exclusions",
      "outputs": [
        {
          "name": "memberToExcludeAddress",
          "type": "address"
        },
        {
          "name": "targetOrgan",
          "type": "address"
        },
        {
          "name": "name",
          "type": "string"
        },
        {
          "name": "ipfsHash",
          "type": "bytes32"
        },
        {
          "name": "hash_function",
          "type": "uint8"
        },
        {
          "name": "size",
          "type": "uint8"
        },
        {
          "name": "exclusionVote",
          "type": "uint256"
        },
        {
          "name": "startDate",
          "type": "uint256"
        },
        {
          "name": "isFinished",
          "type": "bool"
        },
        {
          "name": "wasEnacted",
          "type": "bool"
        }
      ],
      "payable": false,
      "stateMutability": "view",
      "type": "function"
    },
    {
      "constant": true,
      "inputs": [
        {
          "name": "",
          "type": "address"
        },
        {
          "name": "",
          "type": "uint256"
        }
      ],
      "name": "exclusionToNominator",
      "outputs": [
        {
          "name": "",
          "type": "uint256"
        }
      ],
      "payable": false,
      "stateMutability": "view",
      "type": "function"
    },
    {
      "constant": true,
      "inputs": [],
      "name": "isAProcedure",
      "outputs": [
        {
          "name": "",
          "type": "bool"
        }
      ],
      "payable": false,
      "stateMutability": "view",
      "type": "function"
    },
    {
      "anonymous": false,
      "inputs": [
        {
          "indexed": false,
          "name": "_nominator",
          "type": "address"
        },
        {
          "indexed": false,
          "name": "_member",
          "type": "address"
        }
      ],
      "name": "votedToExcludeAMember",
      "type": "event"
    },
    {
      "anonymous": false,
      "inputs": [
        {
          "indexed": false,
          "name": "_excludedMember",
          "type": "address"
        },
        {
          "indexed": false,
          "name": "_organAddress",
          "type": "address"
        }
      ],
      "name": "excludedAMember",
      "type": "event"
    },
    {
      "constant": false,
      "inputs": [
        {
          "name": "_targetOrgan",
          "type": "address"
        },
        {
          "name": "_memberToRemove",
          "type": "address"
        },
        {
          "name": "_name",
          "type": "string"
        },
        {
          "name": "_ipfsHash",
          "type": "bytes32"
        },
        {
          "name": "_hash_function",
          "type": "uint8"
        },
        {
          "name": "_size",
          "type": "uint8"
        }
      ],
      "name": "proposeExclusion",
      "outputs": [
        {
          "name": "exclusionNumber",
          "type": "uint256"
        }
      ],
      "payable": false,
      "stateMutability": "nonpayable",
      "type": "function"
    },
    {
      "constant": false,
      "inputs": [
        {
          "name": "_exclusionNumber",
          "type": "uint256"
        }
      ],
      "name": "voteForExclusion",
      "outputs": [],
      "payable": false,
      "stateMutability": "nonpayable",
      "type": "function"
    },
    {
      "constant": false,
      "inputs": [
        {
          "name": "_exclusionNumber",
          "type": "uint256"
        }
      ],
      "name": "executeExclusion",
      "outputs": [],
      "payable": false,
      "stateMutability": "nonpayable",
      "type": "function"
    }
  ],
  "bytecode": "0x60606040526008600355341561001457600080fd5b6116ac806100236000396000f3006060604052600436106100af576000357c0100000000000000000000000000000000000000000000000000000000900463ffffffff1680632647d7f9146100b45780633759adae146100dd578063549d4931146101005780635dbe4d28146101565780636930c9331461017f578063a587f936146101a2578063a8bef97a146101f7578063e5ee07fe14610224578063e7eb6ccf14610390578063e80b30a5146103e6578063ef33550214610413575b600080fd5b34156100bf57600080fd5b6100c76104e7565b6040518082815260200191505060405180910390f35b34156100e857600080fd5b6100fe60048080359060200190919050506104ed565b005b341561010b57600080fd5b610140600480803573ffffffffffffffffffffffffffffffffffffffff16906020019091908035906020019091905050610976565b6040518082815260200191505060405180910390f35b341561016157600080fd5b6101696109a7565b6040518082815260200191505060405180910390f35b341561018a57600080fd5b6101a060048080359060200190919050506109ad565b005b34156101ad57600080fd5b6101b5610c21565b604051808273ffffffffffffffffffffffffffffffffffffffff1673ffffffffffffffffffffffffffffffffffffffff16815260200191505060405180910390f35b341561020257600080fd5b61020a610c47565b604051808215151515815260200191505060405180910390f35b341561022f57600080fd5b6102456004808035906020019091905050610c5a565b604051808b73ffffffffffffffffffffffffffffffffffffffff1673ffffffffffffffffffffffffffffffffffffffff1681526020018a73ffffffffffffffffffffffffffffffffffffffff1673ffffffffffffffffffffffffffffffffffffffff1681526020018060200189600019166000191681526020018860ff1660ff1681526020018760ff1660ff168152602001868152602001858152602001841515151581526020018315151515815260200182810382528a8181546001816001161561010002031660029004815260200191508054600181600116156101000203166002900480156103785780601f1061034d57610100808354040283529160200191610378565b820191906000526020600020905b81548152906001019060200180831161035b57829003601f168201915b50509b50505050505050505050505060405180910390f35b341561039b57600080fd5b6103d0600480803573ffffffffffffffffffffffffffffffffffffffff16906020019091908035906020019091905050610d30565b6040518082815260200191505060405180910390f35b34156103f157600080fd5b6103f9610d61565b604051808215151515815260200191505060405180910390f35b341561041e57600080fd5b6104d1600480803573ffffffffffffffffffffffffffffffffffffffff1690602001909190803573ffffffffffffffffffffffffffffffffffffffff1690602001909190803590602001908201803590602001908080601f016020809104026020016040519081016040528093929190818152602001838380828437820191505050505050919080356000191690602001909190803560ff1690602001909190803560ff16906020019091905050610d73565b6040518082815260200191505060405180910390f35b60035481565b6000806000600460009054906101000a900473ffffffffffffffffffffffffffffffffffffffff1692508273ffffffffffffffffffffffffffffffffffffffff1663d323a4f8336000604051602001526040518263ffffffff167c0100000000000000000000000000000000000000000000000000000000028152600401808273ffffffffffffffffffffffffffffffffffffffff1673ffffffffffffffffffffffffffffffffffffffff168152602001915050602060405180830381600087803b15156105ba57600080fd5b6102c65a03f115156105cb57600080fd5b5050506040518051905015156105e057600080fd5b8273ffffffffffffffffffffffffffffffffffffffff1663234d34de6000604051602001526040518163ffffffff167c0100000000000000000000000000000000000000000000000000000000028152600401602060405180830381600087803b151561064c57600080fd5b6102c65a03f1151561065d57600080fd5b505050604051805190509150600092508160068581548110151561067d57fe5b906000526020600020906009020160050154101515610970576006848154811015156106a557fe5b906000526020600020906009020160010160009054906101000a900473ffffffffffffffffffffffffffffffffffffffff1690508073ffffffffffffffffffffffffffffffffffffffff16630e9defff8273ffffffffffffffffffffffffffffffffffffffff16635549ea5160068881548110151561072057fe5b906000526020600020906009020160000160009054906101000a900473ffffffffffffffffffffffffffffffffffffffff166000604051602001526040518263ffffffff167c0100000000000000000000000000000000000000000000000000000000028152600401808273ffffffffffffffffffffffffffffffffffffffff1673ffffffffffffffffffffffffffffffffffffffff168152602001915050602060405180830381600087803b15156107d857600080fd5b6102c65a03f115156107e957600080fd5b505050604051805190506040518263ffffffff167c010000000000000000000000000000000000000000000000000000000002815260040180828152602001915050600060405180830381600087803b151561084457600080fd5b6102c65a03f1151561085557600080fd5b5050507f93232242327453928f693967a5c285ced54b9d8f5df9a577f9fefa84c6dc9d8860068581548110151561088857fe5b906000526020600020906009020160000160009054906101000a900473ffffffffffffffffffffffffffffffffffffffff166006868154811015156108c957fe5b906000526020600020906009020160010160009054906101000a900473ffffffffffffffffffffffffffffffffffffffff16604051808373ffffffffffffffffffffffffffffffffffffffff1673ffffffffffffffffffffffffffffffffffffffff1681526020018273ffffffffffffffffffffffffffffffffffffffff1673ffffffffffffffffffffffffffffffffffffffff1681526020019250505060405180910390a15b50505050565b60086020528160005260406000208181548110151561099157fe5b9060005260206000209001600091509150505481565b60005481565b6000600460009054906101000a900473ffffffffffffffffffffffffffffffffffffffff1690508073ffffffffffffffffffffffffffffffffffffffff1663d323a4f8336000604051602001526040518263ffffffff167c0100000000000000000000000000000000000000000000000000000000028152600401808273ffffffffffffffffffffffffffffffffffffffff1673ffffffffffffffffffffffffffffffffffffffff168152602001915050602060405180830381600087803b1515610a7757600080fd5b6102c65a03f11515610a8857600080fd5b505050604051805190501515610a9d57600080fd5b600090506001600683815481101515610ab257fe5b906000526020600020906009020160070160003373ffffffffffffffffffffffffffffffffffffffff1673ffffffffffffffffffffffffffffffffffffffff16815260200190815260200160002060006101000a81548160ff0219169083151502179055506001600683815481101515610b2857fe5b9060005260206000209060090201600501600082825401925050819055507f9cf173d1e40b9c07f28da0324b8f1924ea3ca0c7e62fead9e33ed1e1973b0bb633600684815481101515610b7757fe5b906000526020600020906009020160000160009054906101000a900473ffffffffffffffffffffffffffffffffffffffff16604051808373ffffffffffffffffffffffffffffffffffffffff1673ffffffffffffffffffffffffffffffffffffffff1681526020018273ffffffffffffffffffffffffffffffffffffffff1673ffffffffffffffffffffffffffffffffffffffff1681526020019250505060405180910390a15050565b600460009054906101000a900473ffffffffffffffffffffffffffffffffffffffff1681565b600160009054906101000a900460ff1681565b600681815481101515610c6957fe5b90600052602060002090600902016000915090508060000160009054906101000a900473ffffffffffffffffffffffffffffffffffffffff16908060010160009054906101000a900473ffffffffffffffffffffffffffffffffffffffff169080600201908060030154908060040160009054906101000a900460ff16908060040160019054906101000a900460ff16908060050154908060060154908060080160009054906101000a900460ff16908060080160019054906101000a900460ff1690508a565b600760205281600052604060002081815481101515610d4b57fe5b9060005260206000209001600091509150505481565b6001809054906101000a900460ff1681565b6000806000806000610d836113d5565b600460009054906101000a900473ffffffffffffffffffffffffffffffffffffffff1694508473ffffffffffffffffffffffffffffffffffffffff1663d323a4f8336000604051602001526040518263ffffffff167c0100000000000000000000000000000000000000000000000000000000028152600401808273ffffffffffffffffffffffffffffffffffffffff1673ffffffffffffffffffffffffffffffffffffffff168152602001915050602060405180830381600087803b1515610e4b57600080fd5b6102c65a03f11515610e5c57600080fd5b505050604051805190501515610e7157600080fd5b600094508b93508373ffffffffffffffffffffffffffffffffffffffff1663d323a4f88c6000604051602001526040518263ffffffff167c0100000000000000000000000000000000000000000000000000000000028152600401808273ffffffffffffffffffffffffffffffffffffffff1673ffffffffffffffffffffffffffffffffffffffff168152602001915050602060405180830381600087803b1515610f1b57600080fd5b6102c65a03f11515610f2c57600080fd5b505050604051805190501515610f4157600080fd5b8373ffffffffffffffffffffffffffffffffffffffff166324d7806c306000604051604001526040518263ffffffff167c0100000000000000000000000000000000000000000000000000000000028152600401808273ffffffffffffffffffffffffffffffffffffffff1673ffffffffffffffffffffffffffffffffffffffff1681526020019150506040805180830381600087803b1515610fe357600080fd5b6102c65a03f11515610ff457600080fd5b50505060405180519060200180519050809350819450505081151561101857600080fd5b600093508a816000019073ffffffffffffffffffffffffffffffffffffffff16908173ffffffffffffffffffffffffffffffffffffffff16815250508b816020019073ffffffffffffffffffffffffffffffffffffffff16908173ffffffffffffffffffffffffffffffffffffffff1681525050898160400181905250888160600190600019169081600019168152505087816080019060ff16908160ff1681525050868160a0019060ff16908160ff1681525050428160e001818152505060008161010001901515908115158152505060008161012001901515908115158152505060008160c00181815250506006805480600101828161111a9190611468565b9160005260206000209060090201600083909190915060008201518160000160006101000a81548173ffffffffffffffffffffffffffffffffffffffff021916908373ffffffffffffffffffffffffffffffffffffffff16021790555060208201518160010160006101000a81548173ffffffffffffffffffffffffffffffffffffffff021916908373ffffffffffffffffffffffffffffffffffffffff16021790555060408201518160020190805190602001906111da92919061149a565b506060820151816003019060001916905560808201518160040160006101000a81548160ff021916908360ff16021790555060a08201518160040160016101000a81548160ff021916908360ff16021790555060c0820151816005015560e082015181600601556101008201518160080160006101000a81548160ff0219169083151502179055506101208201518160080160016101000a81548160ff02191690831515021790555050509550600160068781548110151561129857fe5b906000526020600020906009020160070160003373ffffffffffffffffffffffffffffffffffffffff1673ffffffffffffffffffffffffffffffffffffffff16815260200190815260200160002060006101000a81548160ff021916908315150217905550600160068781548110151561130e57fe5b9060005260206000209060090201600501600082825401925050819055507f9cf173d1e40b9c07f28da0324b8f1924ea3ca0c7e62fead9e33ed1e1973b0bb6338c604051808373ffffffffffffffffffffffffffffffffffffffff1673ffffffffffffffffffffffffffffffffffffffff1681526020018273ffffffffffffffffffffffffffffffffffffffff1673ffffffffffffffffffffffffffffffffffffffff1681526020019250505060405180910390a185955050505050509695505050505050565b61014060405190810160405280600073ffffffffffffffffffffffffffffffffffffffff168152602001600073ffffffffffffffffffffffffffffffffffffffff16815260200161142461151a565b815260200160008019168152602001600060ff168152602001600060ff16815260200160008152602001600081526020016000151581526020016000151581525090565b81548183558181151161149557600902816009028360005260206000209182019101611494919061152e565b5b505050565b828054600181600116156101000203166002900490600052602060002090601f016020900481019282601f106114db57805160ff1916838001178555611509565b82800160010185558215611509579182015b828111156115085782518255916020019190600101906114ed565b5b5090506115169190611613565b5090565b602060405190810160405280600081525090565b61161091905b8082111561160c57600080820160006101000a81549073ffffffffffffffffffffffffffffffffffffffff02191690556001820160006101000a81549073ffffffffffffffffffffffffffffffffffffffff021916905560028201600061159b9190611638565b60038201600090556004820160006101000a81549060ff02191690556004820160016101000a81549060ff0219169055600582016000905560068201600090556008820160006101000a81549060ff02191690556008820160016101000a81549060ff021916905550600901611534565b5090565b90565b61163591905b80821115611631576000816000905550600101611619565b5090565b90565b50805460018160011615610100020316600290046000825580601f1061165e575061167d565b601f01602090049060005260206000209081019061167c9190611613565b5b505600a165627a7a72305820eb24abdd59425e51e6436cc4e0401f5993f5e943bfeae42f4d027ef518ea21790029",
  "source": "pragma solidity ^0.4.11;\n\n// Standard contract for a presidential election procedure\n\nimport \"../standardProcedure.sol\";\nimport \"../standardOrgan.sol\";\n\ncontract exclusionProcedure is Procedure{\n\n    // 1: Presidential Election\n    // 2: Membership addition\n    // 3: Constitutionnal reform\n    // 4: Norm promulgation\n    // 5: Moderators election\n    // 6: Simple nomination\n    // 7: Cooptation\n    // 8: Exclusion\n    int public procedureTypeNumber = 8;\n    // address public affectedOrganContract;\n    address public authorizedNominatersOrgan;\n\n    // Time to execute an exclusion\n    uint exclusionVoteTime;\n\n    struct Exclusion {\n\n        address memberToExcludeAddress;\n        address targetOrgan;\n        // Proposal details\n        string name;\n        bytes32 ipfsHash; // ID of proposal on IPFS\n        uint8 hash_function;\n        uint8 size;\n        // Number of votes\n        uint exclusionVote;\n        // Time variable\n        uint startDate;\n        // Has nominator voted?\n        mapping(address => bool) hasUserVoted;\n        // State variable\n        bool isFinished;\n        bool wasEnacted;\n    }\n\n    Exclusion[] public exclusions;\n\n    // Mapping each exclusion to the user creating it\n    mapping (address => uint[]) public exclusionToNominator;    \n\n    // Mapping each proposition to the user who participated\n    mapping (address => uint[]) public exclusionToVoter;\n\n    event votedToExcludeAMember(address _nominator, address _member);\n    event excludedAMember(address _excludedMember, address _organAddress);\n\n    function proposeExclusion(address _targetOrgan, address _memberToRemove, string _name, bytes32 _ipfsHash, uint8 _hash_function, uint8 _size) public returns (uint exclusionNumber) {\n        // Checking if caller is an admin\n        Organ authorizedNominatorsInstance = Organ(authorizedNominatersOrgan);\n        require(authorizedNominatorsInstance.isNorm(msg.sender));\n        delete authorizedNominatorsInstance;\n\n        // Check that the member to remove is indeed in the member registry \n        Organ targetOrganInstance = Organ(_targetOrgan);\n        require(targetOrganInstance.isNorm(_memberToRemove));\n\n        // Check that the current procedure can indeed remove members\n        bool canAdd;\n        bool canDelete;\n        (canAdd, canDelete) = targetOrganInstance.isAdmin(address(this));\n        require(canDelete);\n        delete targetOrganInstance;\n\n\n        // Creating exclusion object\n\n        Exclusion memory newExclusion;\n        newExclusion.memberToExcludeAddress = _memberToRemove;\n        newExclusion.targetOrgan = _targetOrgan;\n        newExclusion.name = _name;\n        newExclusion.ipfsHash = _ipfsHash;\n        newExclusion.hash_function = _hash_function;\n        newExclusion.size = _size;\n        newExclusion.startDate = now;\n        newExclusion.isFinished = false;\n        newExclusion.wasEnacted = false;\n        newExclusion.exclusionVote = 0;\n\n        exclusionNumber = exclusions.push(newExclusion);\n\n        // Logging that the nominater wishes to ban the member\n        exclusions[exclusionNumber].hasUserVoted[msg.sender] = true;\n\n        // Logging how many votes the member has against him\n        exclusions[exclusionNumber].exclusionVote += 1; \n        // Event\n        votedToExcludeAMember(msg.sender, _memberToRemove);\n\n        return(exclusionNumber);\n\n    }\n    \n    function voteForExclusion(uint _exclusionNumber) public {\n\n        // Checking if caller is an admin\n        Organ authorizedNominatorsInstance = Organ(authorizedNominatersOrgan);\n        require(authorizedNominatorsInstance.isNorm(msg.sender));\n        delete authorizedNominatorsInstance;\n\n        // Logging that the nominater wishes to ban the member\n        exclusions[_exclusionNumber].hasUserVoted[msg.sender] = true;\n\n        // Logging how many votes the member has against him\n        exclusions[_exclusionNumber].exclusionVote += 1; \n\n        // Event\n        votedToExcludeAMember(msg.sender, exclusions[_exclusionNumber].memberToExcludeAddress);\n\n\n\n        // Checking that the nomination procedure is an admin to the target organ\n\n    }\n\n    function executeExclusion(uint _exclusionNumber) public {\n        // Checking if caller is an admin\n        Organ authorizedNominatorsInstance = Organ(authorizedNominatersOrgan);\n        require(authorizedNominatorsInstance.isNorm(msg.sender));\n\n        // Retrieving nominator number\n        uint nominatorNumber = authorizedNominatorsInstance.getActiveNormNumber();\n        delete authorizedNominatorsInstance;\n        // Check if there is enough vote to ban member\n        if (exclusions[_exclusionNumber].exclusionVote >= nominatorNumber){\n            Organ targetOrganInstance = Organ(exclusions[_exclusionNumber].targetOrgan);\n            targetOrganInstance.remNorm(targetOrganInstance.getAddressPositionInNorm(exclusions[_exclusionNumber].memberToExcludeAddress));\n            excludedAMember( exclusions[_exclusionNumber].memberToExcludeAddress, exclusions[_exclusionNumber].targetOrgan);\n        }\n    }\n\n\n}",
  "sourcePath": "/Users/henrilieutaud/Documents/Mes documents/97/Workshop/ChainTech/solidity/contracts/procedures/exclusionProcedure.sol",
  "compiler": {
    "name": "solc",
    "version": "0.4.19+commit.c4cbbb05.Emscripten.clang"
  },
  "schemaVersion": "2.0.0",
  "updatedAt": "2018-03-23T17:58:47.007Z"
}