{
  "contractName": "Organ",
  "abi": [
    {
      "constant": true,
      "inputs": [
        {
          "name": "",
          "type": "uint256"
        }
      ],
      "name": "adminList",
      "outputs": [
        {
          "name": "",
          "type": "address"
        }
      ],
      "payable": false,
      "stateMutability": "view",
      "type": "function"
    },
    {
      "constant": true,
      "inputs": [],
      "name": "organName",
      "outputs": [
        {
          "name": "",
          "type": "string"
        }
      ],
      "payable": false,
      "stateMutability": "view",
      "type": "function"
    },
    {
      "constant": true,
      "inputs": [],
      "name": "activeNormNumber",
      "outputs": [
        {
          "name": "",
          "type": "uint256"
        }
      ],
      "payable": false,
      "stateMutability": "view",
      "type": "function"
    },
    {
      "constant": true,
      "inputs": [
        {
          "name": "",
          "type": "address"
        }
      ],
      "name": "admins",
      "outputs": [
        {
          "name": "name",
          "type": "string"
        },
        {
          "name": "canAdd",
          "type": "bool"
        },
        {
          "name": "canDelete",
          "type": "bool"
        },
        {
          "name": "canSpend",
          "type": "bool"
        },
        {
          "name": "canDeposit",
          "type": "bool"
        },
        {
          "name": "rankInAdminList",
          "type": "uint256"
        }
      ],
      "payable": false,
      "stateMutability": "view",
      "type": "function"
    },
    {
      "constant": true,
      "inputs": [],
      "name": "kelsenVersionNumber",
      "outputs": [
        {
          "name": "",
          "type": "int256"
        }
      ],
      "payable": false,
      "stateMutability": "view",
      "type": "function"
    },
    {
      "constant": true,
      "inputs": [
        {
          "name": "",
          "type": "address"
        }
      ],
      "name": "addressPositionInNorms",
      "outputs": [
        {
          "name": "",
          "type": "uint256"
        }
      ],
      "payable": false,
      "stateMutability": "view",
      "type": "function"
    },
    {
      "constant": true,
      "inputs": [
        {
          "name": "",
          "type": "address"
        }
      ],
      "name": "masters",
      "outputs": [
        {
          "name": "name",
          "type": "string"
        },
        {
          "name": "canAdd",
          "type": "bool"
        },
        {
          "name": "canDelete",
          "type": "bool"
        },
        {
          "name": "rankInMasterList",
          "type": "uint256"
        }
      ],
      "payable": false,
      "stateMutability": "view",
      "type": "function"
    },
    {
      "constant": true,
      "inputs": [],
      "name": "isAnOrgan",
      "outputs": [
        {
          "name": "",
          "type": "bool"
        }
      ],
      "payable": false,
      "stateMutability": "view",
      "type": "function"
    },
    {
      "constant": true,
      "inputs": [
        {
          "name": "",
          "type": "uint256"
        }
      ],
      "name": "masterList",
      "outputs": [
        {
          "name": "",
          "type": "address"
        }
      ],
      "payable": false,
      "stateMutability": "view",
      "type": "function"
    },
    {
      "constant": true,
      "inputs": [
        {
          "name": "",
          "type": "address"
        }
      ],
      "name": "isAddressInNorms",
      "outputs": [
        {
          "name": "",
          "type": "bool"
        }
      ],
      "payable": false,
      "stateMutability": "view",
      "type": "function"
    },
    {
      "constant": true,
      "inputs": [
        {
          "name": "",
          "type": "uint256"
        }
      ],
      "name": "norms",
      "outputs": [
        {
          "name": "name",
          "type": "string"
        },
        {
          "name": "normAddress",
          "type": "address"
        },
        {
          "name": "ipfsHash",
          "type": "bytes32"
        },
        {
          "name": "hash_function",
          "type": "uint8"
        },
        {
          "name": "size",
          "type": "uint8"
        }
      ],
      "payable": false,
      "stateMutability": "view",
      "type": "function"
    },
    {
      "constant": true,
      "inputs": [],
      "name": "isAProcedure",
      "outputs": [
        {
          "name": "",
          "type": "bool"
        }
      ],
      "payable": false,
      "stateMutability": "view",
      "type": "function"
    },
    {
      "payable": true,
      "stateMutability": "payable",
      "type": "fallback"
    },
    {
      "anonymous": false,
      "inputs": [
        {
          "indexed": false,
          "name": "_from",
          "type": "address"
        },
        {
          "indexed": false,
          "name": "_newName",
          "type": "string"
        }
      ],
      "name": "changeOrganName",
      "type": "event"
    },
    {
      "anonymous": false,
      "inputs": [
        {
          "indexed": false,
          "name": "_from",
          "type": "address"
        },
        {
          "indexed": false,
          "name": "_to",
          "type": "address"
        },
        {
          "indexed": false,
          "name": "_amount",
          "type": "uint256"
        }
      ],
      "name": "spendMoney",
      "type": "event"
    },
    {
      "anonymous": false,
      "inputs": [
        {
          "indexed": false,
          "name": "_from",
          "type": "address"
        },
        {
          "indexed": false,
          "name": "_amount",
          "type": "uint256"
        }
      ],
      "name": "receiveMoney",
      "type": "event"
    },
    {
      "anonymous": false,
      "inputs": [
        {
          "indexed": false,
          "name": "_from",
          "type": "address"
        },
        {
          "indexed": false,
          "name": "_newMaster",
          "type": "address"
        },
        {
          "indexed": false,
          "name": "_canAdd",
          "type": "bool"
        },
        {
          "indexed": false,
          "name": "_canDelete",
          "type": "bool"
        },
        {
          "indexed": false,
          "name": "_name",
          "type": "string"
        }
      ],
      "name": "addMasterEvent",
      "type": "event"
    },
    {
      "anonymous": false,
      "inputs": [
        {
          "indexed": false,
          "name": "_from",
          "type": "address"
        },
        {
          "indexed": false,
          "name": "_masterToRemove",
          "type": "address"
        }
      ],
      "name": "remMasterEvent",
      "type": "event"
    },
    {
      "anonymous": false,
      "inputs": [
        {
          "indexed": false,
          "name": "_from",
          "type": "address"
        },
        {
          "indexed": false,
          "name": "_masterToRemove",
          "type": "address"
        },
        {
          "indexed": false,
          "name": "_masterToAdd",
          "type": "address"
        },
        {
          "indexed": false,
          "name": "_canAdd",
          "type": "bool"
        },
        {
          "indexed": false,
          "name": "_canDelete",
          "type": "bool"
        },
        {
          "indexed": false,
          "name": "_name",
          "type": "string"
        }
      ],
      "name": "replaceMasterEvent",
      "type": "event"
    },
    {
      "anonymous": false,
      "inputs": [
        {
          "indexed": false,
          "name": "_from",
          "type": "address"
        },
        {
          "indexed": false,
          "name": "_newAdmin",
          "type": "address"
        },
        {
          "indexed": false,
          "name": "_canAdd",
          "type": "bool"
        },
        {
          "indexed": false,
          "name": "_canDelete",
          "type": "bool"
        },
        {
          "indexed": false,
          "name": "_canDeposit",
          "type": "bool"
        },
        {
          "indexed": false,
          "name": "_canSpend",
          "type": "bool"
        },
        {
          "indexed": false,
          "name": "_name",
          "type": "string"
        }
      ],
      "name": "addAdminEvent",
      "type": "event"
    },
    {
      "anonymous": false,
      "inputs": [
        {
          "indexed": false,
          "name": "_from",
          "type": "address"
        },
        {
          "indexed": false,
          "name": "_adminToRemove",
          "type": "address"
        }
      ],
      "name": "remAdminEvent",
      "type": "event"
    },
    {
      "anonymous": false,
      "inputs": [
        {
          "indexed": false,
          "name": "_from",
          "type": "address"
        },
        {
          "indexed": false,
          "name": "_adminToRemove",
          "type": "address"
        },
        {
          "indexed": false,
          "name": "_adminToAdd",
          "type": "address"
        },
        {
          "indexed": false,
          "name": "_canAdd",
          "type": "bool"
        },
        {
          "indexed": false,
          "name": "_canDelete",
          "type": "bool"
        },
        {
          "indexed": false,
          "name": "_canDeposit",
          "type": "bool"
        },
        {
          "indexed": false,
          "name": "_canSpend",
          "type": "bool"
        },
        {
          "indexed": false,
          "name": "_name",
          "type": "string"
        }
      ],
      "name": "replaceAdminEvent",
      "type": "event"
    },
    {
      "anonymous": false,
      "inputs": [
        {
          "indexed": false,
          "name": "_from",
          "type": "address"
        },
        {
          "indexed": false,
          "name": "_normAddress",
          "type": "address"
        },
        {
          "indexed": false,
          "name": "_name",
          "type": "string"
        },
        {
          "indexed": false,
          "name": "_ipfsHash",
          "type": "bytes32"
        },
        {
          "indexed": false,
          "name": "_hash_function",
          "type": "uint8"
        },
        {
          "indexed": false,
          "name": "_size",
          "type": "uint8"
        }
      ],
      "name": "addNormEvent",
      "type": "event"
    },
    {
      "anonymous": false,
      "inputs": [
        {
          "indexed": false,
          "name": "_from",
          "type": "address"
        },
        {
          "indexed": false,
          "name": "_normAddress",
          "type": "address"
        },
        {
          "indexed": false,
          "name": "_name",
          "type": "string"
        },
        {
          "indexed": false,
          "name": "_ipfsHash",
          "type": "bytes32"
        },
        {
          "indexed": false,
          "name": "_hash_function",
          "type": "uint8"
        },
        {
          "indexed": false,
          "name": "_size",
          "type": "uint8"
        }
      ],
      "name": "remNormEvent",
      "type": "event"
    },
    {
      "constant": false,
      "inputs": [
        {
          "name": "_name",
          "type": "string"
        }
      ],
      "name": "setName",
      "outputs": [],
      "payable": false,
      "stateMutability": "nonpayable",
      "type": "function"
    },
    {
      "constant": false,
      "inputs": [
        {
          "name": "_to",
          "type": "address"
        },
        {
          "name": "_value",
          "type": "uint256"
        }
      ],
      "name": "transfer",
      "outputs": [],
      "payable": false,
      "stateMutability": "nonpayable",
      "type": "function"
    },
    {
      "constant": false,
      "inputs": [
        {
          "name": "_newMasterAddress",
          "type": "address"
        },
        {
          "name": "_canAdd",
          "type": "bool"
        },
        {
          "name": "_canDelete",
          "type": "bool"
        },
        {
          "name": "_name",
          "type": "string"
        }
      ],
      "name": "addMaster",
      "outputs": [],
      "payable": false,
      "stateMutability": "nonpayable",
      "type": "function"
    },
    {
      "constant": false,
      "inputs": [
        {
          "name": "_masterToRemove",
          "type": "address"
        },
        {
          "name": "_masterToAdd",
          "type": "address"
        },
        {
          "name": "_canAdd",
          "type": "bool"
        },
        {
          "name": "_canDelete",
          "type": "bool"
        },
        {
          "name": "_name",
          "type": "string"
        }
      ],
      "name": "replaceMaster",
      "outputs": [],
      "payable": false,
      "stateMutability": "nonpayable",
      "type": "function"
    },
    {
      "constant": false,
      "inputs": [
        {
          "name": "_masterToRemove",
          "type": "address"
        }
      ],
      "name": "remMaster",
      "outputs": [],
      "payable": false,
      "stateMutability": "nonpayable",
      "type": "function"
    },
    {
      "constant": false,
      "inputs": [
        {
          "name": "_newAdminAddress",
          "type": "address"
        },
        {
          "name": "_canAdd",
          "type": "bool"
        },
        {
          "name": "_canDelete",
          "type": "bool"
        },
        {
          "name": "_canDeposit",
          "type": "bool"
        },
        {
          "name": "_canSpend",
          "type": "bool"
        },
        {
          "name": "_name",
          "type": "string"
        }
      ],
      "name": "addAdmin",
      "outputs": [],
      "payable": false,
      "stateMutability": "nonpayable",
      "type": "function"
    },
    {
      "constant": false,
      "inputs": [
        {
          "name": "_adminToRemove",
          "type": "address"
        },
        {
          "name": "_adminToAdd",
          "type": "address"
        },
        {
          "name": "_canAdd",
          "type": "bool"
        },
        {
          "name": "_canDelete",
          "type": "bool"
        },
        {
          "name": "_canDeposit",
          "type": "bool"
        },
        {
          "name": "_canSpend",
          "type": "bool"
        },
        {
          "name": "_name",
          "type": "string"
        }
      ],
      "name": "replaceAdmin",
      "outputs": [],
      "payable": false,
      "stateMutability": "nonpayable",
      "type": "function"
    },
    {
      "constant": false,
      "inputs": [
        {
          "name": "_adminToRemove",
          "type": "address"
        }
      ],
      "name": "remAdmin",
      "outputs": [],
      "payable": false,
      "stateMutability": "nonpayable",
      "type": "function"
    },
    {
      "constant": false,
      "inputs": [
        {
          "name": "_normAddress",
          "type": "address"
        },
        {
          "name": "_name",
          "type": "string"
        },
        {
          "name": "_ipfsHash",
          "type": "bytes32"
        },
        {
          "name": "_hash_function",
          "type": "uint8"
        },
        {
          "name": "_size",
          "type": "uint8"
        }
      ],
      "name": "addNorm",
      "outputs": [
        {
          "name": "_normPosition",
          "type": "uint256"
        }
      ],
      "payable": false,
      "stateMutability": "nonpayable",
      "type": "function"
    },
    {
      "constant": false,
      "inputs": [
        {
          "name": "_normNumber",
          "type": "uint256"
        },
        {
          "name": "_normAddress",
          "type": "address"
        },
        {
          "name": "_name",
          "type": "string"
        },
        {
          "name": "_ipfsHash",
          "type": "bytes32"
        },
        {
          "name": "_hash_function",
          "type": "uint8"
        },
        {
          "name": "_size",
          "type": "uint8"
        }
      ],
      "name": "replaceNorm",
      "outputs": [],
      "payable": false,
      "stateMutability": "nonpayable",
      "type": "function"
    },
    {
      "constant": false,
      "inputs": [
        {
          "name": "_normNumber",
          "type": "uint256"
        }
      ],
      "name": "remNorm",
      "outputs": [],
      "payable": false,
      "stateMutability": "nonpayable",
      "type": "function"
    },
    {
      "constant": true,
      "inputs": [
        {
          "name": "_adressToCheck",
          "type": "address"
        }
      ],
      "name": "isMaster",
      "outputs": [
        {
          "name": "canAdd",
          "type": "bool"
        },
        {
          "name": "canDelete",
          "type": "bool"
        }
      ],
      "payable": false,
      "stateMutability": "view",
      "type": "function"
    },
    {
      "constant": true,
      "inputs": [
        {
          "name": "_adressToCheck",
          "type": "address"
        }
      ],
      "name": "isAdmin",
      "outputs": [
        {
          "name": "canAdd",
          "type": "bool"
        },
        {
          "name": "canDelete",
          "type": "bool"
        }
      ],
      "payable": false,
      "stateMutability": "view",
      "type": "function"
    },
    {
      "constant": true,
      "inputs": [
        {
          "name": "_adressToCheck",
          "type": "address"
        }
      ],
      "name": "isNorm",
      "outputs": [
        {
          "name": "isAddressInNorm",
          "type": "bool"
        }
      ],
      "payable": false,
      "stateMutability": "view",
      "type": "function"
    },
    {
      "constant": true,
      "inputs": [
        {
          "name": "_adressToCheck",
          "type": "address"
        }
      ],
      "name": "isMoneyManager",
      "outputs": [
        {
          "name": "canDeposit",
          "type": "bool"
        },
        {
          "name": "canSpend",
          "type": "bool"
        }
      ],
      "payable": false,
      "stateMutability": "view",
      "type": "function"
    },
    {
      "constant": true,
      "inputs": [],
      "name": "getActiveNormNumber",
      "outputs": [
        {
          "name": "_activeNormNumber",
          "type": "uint256"
        }
      ],
      "payable": false,
      "stateMutability": "view",
      "type": "function"
    },
    {
      "constant": true,
      "inputs": [],
      "name": "getNormListSize",
      "outputs": [
        {
          "name": "normArraySize",
          "type": "uint256"
        }
      ],
      "payable": false,
      "stateMutability": "view",
      "type": "function"
    },
    {
      "constant": true,
      "inputs": [
        {
          "name": "_addressToCheck",
          "type": "address"
        }
      ],
      "name": "getAddressPositionInNorm",
      "outputs": [
        {
          "name": "addressInNormPosition",
          "type": "uint256"
        }
      ],
      "payable": false,
      "stateMutability": "view",
      "type": "function"
    },
    {
      "constant": true,
      "inputs": [
        {
          "name": "_desiredNormPosition",
          "type": "uint256"
        }
      ],
      "name": "getSingleNorm",
      "outputs": [
        {
          "name": "name",
          "type": "string"
        },
        {
          "name": "normAddress",
          "type": "address"
        },
        {
          "name": "ipfsHash",
          "type": "bytes32"
        },
        {
          "name": "hash_function",
          "type": "uint8"
        },
        {
          "name": "size",
          "type": "uint8"
        }
      ],
      "payable": false,
      "stateMutability": "view",
      "type": "function"
    },
    {
      "constant": true,
      "inputs": [],
      "name": "getMasterList",
      "outputs": [
        {
          "name": "_masterList",
          "type": "address[]"
        }
      ],
      "payable": false,
      "stateMutability": "view",
      "type": "function"
    },
    {
      "constant": true,
      "inputs": [],
      "name": "getAdminList",
      "outputs": [
        {
          "name": "_adminList",
          "type": "address[]"
        }
      ],
      "payable": false,
      "stateMutability": "view",
      "type": "function"
    },
    {
      "constant": true,
      "inputs": [],
      "name": "getKelsenVersion",
      "outputs": [
        {
          "name": "_isAnOrgan",
          "type": "bool"
        },
        {
          "name": "_isAProcedure",
          "type": "bool"
        },
        {
          "name": "_versionNumber",
          "type": "int256"
        }
      ],
      "payable": false,
      "stateMutability": "view",
      "type": "function"
    }
  ],
  "bytecode": "0x606060405260018060026101000a81548160ff0219169083151502179055506000600160036101000a81548160ff0219169083151502179055506001600255341561004957600080fd5b6142d7806100586000396000f3006060604052600436106101ac576000357c0100000000000000000000000000000000000000000000000000000000900463ffffffff168063023a5379146102745780630e6adcdf146102d05780630e9defff1461038157806311117fc8146103a457806311c60418146104075780631cbce48514610440578063234d34de146104ce57806324d7806c146104f757806331a791981461055357806332a0cf341461058c578063429b62e5146105b55780635549ea51146106b75780635dbe4d2814610704578063696c52191461072d57806372a3e1d3146107e257806378ebd0051461082f5780637a38a106146108d75780638186c350146109c357806390cb15a914610a8a5780639e9b8aed14610ac9578063a8bef97a14610af2578063a9059cbb14610b1f578063ae69b70914610b61578063c1401b0314610bc4578063c47f002714610c2e578063ca1885f714610c8b578063cba1c0b514610d1d578063cd26b87b14610d6e578063d323a4f814610e18578063d9f774fc14610e69578063db05152614610ed3578063e3a31b2c14610fcb578063e80b30a5146110e0578063f720f80b1461110d575b600560003373ffffffffffffffffffffffffffffffffffffffff1673ffffffffffffffffffffffffffffffffffffffff16815260200190815260200160002060010160039054906101000a900460ff16151561020757600080fd5b7fe8e8caa49c00808ca0e50595f43e7fc4e3a4286edfd5ad4de7ab640742e1fb223334604051808373ffffffffffffffffffffffffffffffffffffffff1673ffffffffffffffffffffffffffffffffffffffff1681526020018281526020019250505060405180910390a1005b341561027f57600080fd5b6102ab600480803573ffffffffffffffffffffffffffffffffffffffff16906020019091905050611169565b6040518083151515158152602001821515151581526020019250505060405180910390f35b34156102db57600080fd5b61037f600480803573ffffffffffffffffffffffffffffffffffffffff1690602001909190803573ffffffffffffffffffffffffffffffffffffffff169060200190919080351515906020019091908035151590602001909190803590602001908201803590602001908080601f01602080910402602001604051908101604052809392919081815260200183838082843782019150505050505091905050611215565b005b341561038c57600080fd5b6103a26004808035906020019091905050611434565b005b34156103af57600080fd5b6103c56004808035906020019091905050611931565b604051808273ffffffffffffffffffffffffffffffffffffffff1673ffffffffffffffffffffffffffffffffffffffff16815260200191505060405180910390f35b341561041257600080fd5b61043e600480803573ffffffffffffffffffffffffffffffffffffffff16906020019091905050611970565b005b341561044b57600080fd5b610453611c40565b6040518080602001828103825283818151815260200191508051906020019080838360005b83811015610493578082015181840152602081019050610478565b50505050905090810190601f1680156104c05780820380516001836020036101000a031916815260200191505b509250505060405180910390f35b34156104d957600080fd5b6104e1611cde565b6040518082815260200191505060405180910390f35b341561050257600080fd5b61052e600480803573ffffffffffffffffffffffffffffffffffffffff16906020019091905050611ce8565b6040518083151515158152602001821515151581526020019250505060405180910390f35b341561055e57600080fd5b61058a600480803573ffffffffffffffffffffffffffffffffffffffff16906020019091905050611d94565b005b341561059757600080fd5b61059f61203c565b6040518082815260200191505060405180910390f35b34156105c057600080fd5b6105ec600480803573ffffffffffffffffffffffffffffffffffffffff16906020019091905050612042565b6040518080602001871515151581526020018615151515815260200185151515158152602001841515151581526020018381526020018281038252888181546001816001161561010002031660029004815260200191508054600181600116156101000203166002900480156106a35780601f10610678576101008083540402835291602001916106a3565b820191906000526020600020905b81548152906001019060200180831161068657829003601f168201915b505097505050505050505060405180910390f35b34156106c257600080fd5b6106ee600480803573ffffffffffffffffffffffffffffffffffffffff169060200190919050506120b1565b6040518082815260200191505060405180910390f35b341561070f57600080fd5b6107176120fa565b6040518082815260200191505060405180910390f35b341561073857600080fd5b6107cc600480803573ffffffffffffffffffffffffffffffffffffffff1690602001909190803590602001908201803590602001908080601f016020809104026020016040519081016040528093929190818152602001838380828437820191505050505050919080356000191690602001909190803560ff1690602001909190803560ff16906020019091905050612100565b6040518082815260200191505060405180910390f35b34156107ed57600080fd5b610819600480803573ffffffffffffffffffffffffffffffffffffffff1690602001909190505061252c565b6040518082815260200191505060405180910390f35b341561083a57600080fd5b6108d5600480803573ffffffffffffffffffffffffffffffffffffffff16906020019091908035151590602001909190803515159060200190919080351515906020019091908035151590602001909190803590602001908201803590602001908080601f01602080910402602001604051908101604052809392919081815260200183838082843782019150505050505091905050612544565b005b34156108e257600080fd5b61090e600480803573ffffffffffffffffffffffffffffffffffffffff169060200190919050506129fa565b604051808060200185151515158152602001841515151581526020018381526020018281038252868181546001816001161561010002031660029004815260200191508054600181600116156101000203166002900480156109b15780601f10610986576101008083540402835291602001916109b1565b820191906000526020600020905b81548152906001019060200180831161099457829003601f168201915b50509550505050505060405180910390f35b34156109ce57600080fd5b610a88600480803573ffffffffffffffffffffffffffffffffffffffff1690602001909190803573ffffffffffffffffffffffffffffffffffffffff16906020019091908035151590602001909190803515159060200190919080351515906020019091908035151590602001909190803590602001908201803590602001908080601f01602080910402602001604051908101604052809392919081815260200183838082843782019150505050505091905050612a43565b005b3415610a9557600080fd5b610a9d612c7e565b604051808415151515815260200183151515158152602001828152602001935050505060405180910390f35b3415610ad457600080fd5b610adc612cb1565b6040518082815260200191505060405180910390f35b3415610afd57600080fd5b610b05612cbe565b604051808215151515815260200191505060405180910390f35b3415610b2a57600080fd5b610b5f600480803573ffffffffffffffffffffffffffffffffffffffff16906020019091908035906020019091905050612cd1565b005b3415610b6c57600080fd5b610b826004808035906020019091905050612e0f565b604051808273ffffffffffffffffffffffffffffffffffffffff1673ffffffffffffffffffffffffffffffffffffffff16815260200191505060405180910390f35b3415610bcf57600080fd5b610bd7612e4e565b6040518080602001828103825283818151815260200191508051906020019060200280838360005b83811015610c1a578082015181840152602081019050610bff565b505050509050019250505060405180910390f35b3415610c3957600080fd5b610c89600480803590602001908201803590602001908080601f01602080910402602001604051908101604052809392919081815260200183838082843782019150505050505091905050612ee2565b005b3415610c9657600080fd5b610d1b600480803573ffffffffffffffffffffffffffffffffffffffff169060200190919080351515906020019091908035151590602001909190803590602001908201803590602001908080601f0160208091040260200160405190810160405280939291908181526020018383808284378201915050505050509190505061307f565b005b3415610d2857600080fd5b610d54600480803573ffffffffffffffffffffffffffffffffffffffff16906020019091905050613467565b604051808215151515815260200191505060405180910390f35b3415610d7957600080fd5b610e16600480803590602001909190803573ffffffffffffffffffffffffffffffffffffffff1690602001909190803590602001908201803590602001908080601f016020809104026020016040519081016040528093929190818152602001838380828437820191505050505050919080356000191690602001909190803560ff1690602001909190803560ff16906020019091905050613487565b005b3415610e2357600080fd5b610e4f600480803573ffffffffffffffffffffffffffffffffffffffff16906020019091905050613c70565b604051808215151515815260200191505060405180910390f35b3415610e7457600080fd5b610e7c613cc6565b6040518080602001828103825283818151815260200191508051906020019060200280838360005b83811015610ebf578082015181840152602081019050610ea4565b505050509050019250505060405180910390f35b3415610ede57600080fd5b610ef46004808035906020019091905050613d5a565b60405180806020018673ffffffffffffffffffffffffffffffffffffffff1673ffffffffffffffffffffffffffffffffffffffff16815260200185600019166000191681526020018460ff1660ff1681526020018360ff1660ff168152602001828103825287818151815260200191508051906020019080838360005b83811015610f8c578082015181840152602081019050610f71565b50505050905090810190601f168015610fb95780820380516001836020036101000a031916815260200191505b50965050505050505060405180910390f35b3415610fd657600080fd5b610fec6004808035906020019091905050613ef5565b60405180806020018673ffffffffffffffffffffffffffffffffffffffff1673ffffffffffffffffffffffffffffffffffffffff16815260200185600019166000191681526020018460ff1660ff1681526020018360ff1660ff1681526020018281038252878181546001816001161561010002031660029004815260200191508054600181600116156101000203166002900480156110cd5780601f106110a2576101008083540402835291602001916110cd565b820191906000526020600020905b8154815290600101906020018083116110b057829003601f168201915b5050965050505050505060405180910390f35b34156110eb57600080fd5b6110f3613f73565b604051808215151515815260200191505060405180910390f35b341561111857600080fd5b611144600480803573ffffffffffffffffffffffffffffffffffffffff16906020019091905050613f86565b6040518083151515158152602001821515151581526020019250505060405180910390f35b600080600560008473ffffffffffffffffffffffffffffffffffffffff1673ffffffffffffffffffffffffffffffffffffffff16815260200190815260200160002060010160039054906101000a900460ff16600560008573ffffffffffffffffffffffffffffffffffffffff1673ffffffffffffffffffffffffffffffffffffffff16815260200190815260200160002060010160029054906101000a900460ff1691509150915091565b600460003373ffffffffffffffffffffffffffffffffffffffff1673ffffffffffffffffffffffffffffffffffffffff16815260200190815260200160002060010160009054906101000a900460ff1680156112bd5750600460003373ffffffffffffffffffffffffffffffffffffffff1673ffffffffffffffffffffffffffffffffffffffff16815260200190815260200160002060010160019054906101000a900460ff165b15156112c857600080fd5b6112d185611d94565b6112dd8484848461307f565b7f9c457edc1684219bcbf5fea0f7e14cc75e7fb4ec7bb0b6461474206d3808f2d5338686868686604051808773ffffffffffffffffffffffffffffffffffffffff1673ffffffffffffffffffffffffffffffffffffffff1681526020018673ffffffffffffffffffffffffffffffffffffffff1673ffffffffffffffffffffffffffffffffffffffff1681526020018573ffffffffffffffffffffffffffffffffffffffff1673ffffffffffffffffffffffffffffffffffffffff168152602001841515151581526020018315151515815260200180602001828103825283818151815260200191508051906020019080838360005b838110156113ee5780820151818401526020810190506113d3565b50505050905090810190601f16801561141b5780820380516001836020036101000a031916815260200191505b5097505050505050505060405180910390a15050505050565b600560003373ffffffffffffffffffffffffffffffffffffffff1673ffffffffffffffffffffffffffffffffffffffff16815260200190815260200160002060010160019054906101000a900460ff168061154f5750600660003373ffffffffffffffffffffffffffffffffffffffff1673ffffffffffffffffffffffffffffffffffffffff16815260200190815260200160002060009054906101000a900460ff16801561154e5750600a818154811015156114ed57fe5b906000526020600020906004020160010160009054906101000a900473ffffffffffffffffffffffffffffffffffffffff1673ffffffffffffffffffffffffffffffffffffffff163373ffffffffffffffffffffffffffffffffffffffff16145b5b151561155a57600080fd5b60076000600a8381548110151561156d57fe5b906000526020600020906004020160010160009054906101000a900473ffffffffffffffffffffffffffffffffffffffff1673ffffffffffffffffffffffffffffffffffffffff1673ffffffffffffffffffffffffffffffffffffffff16815260200190815260200160002060009055600060066000600a848154811015156115f257fe5b906000526020600020906004020160010160009054906101000a900473ffffffffffffffffffffffffffffffffffffffff1673ffffffffffffffffffffffffffffffffffffffff1673ffffffffffffffffffffffffffffffffffffffff16815260200190815260200160002060006101000a81548160ff0219169083151502179055507f5e8f1b7616df6c470e9f9feb6c689358bc178bd027b2ef7772ea3ae23ba7db8b33600a838154811015156116a657fe5b906000526020600020906004020160010160009054906101000a900473ffffffffffffffffffffffffffffffffffffffff16600a848154811015156116e757fe5b9060005260206000209060040201600001600a8581548110151561170757fe5b906000526020600020906004020160020154600a8681548110151561172857fe5b906000526020600020906004020160030160009054906101000a900460ff16600a8781548110151561175657fe5b906000526020600020906004020160030160019054906101000a900460ff16604051808773ffffffffffffffffffffffffffffffffffffffff1673ffffffffffffffffffffffffffffffffffffffff1681526020018673ffffffffffffffffffffffffffffffffffffffff1673ffffffffffffffffffffffffffffffffffffffff1681526020018060200185600019166000191681526020018460ff1660ff1681526020018360ff1660ff1681526020018281038252868181546001816001161561010002031660029004815260200191508054600181600116156101000203166002900480156118885780601f1061185d57610100808354040283529160200191611888565b820191906000526020600020905b81548152906001019060200180831161186b57829003601f168201915b505097505050505050505060405180910390a1600a818154811015156118aa57fe5b9060005260206000209060040201600080820160006118c99190614032565b6001820160006101000a81549073ffffffffffffffffffffffffffffffffffffffff021916905560028201600090556003820160006101000a81549060ff02191690556003820160016101000a81549060ff021916905550506001600b5403600b8190555050565b60098181548110151561194057fe5b90600052602060002090016000915054906101000a900473ffffffffffffffffffffffffffffffffffffffff1681565b600460003373ffffffffffffffffffffffffffffffffffffffff1673ffffffffffffffffffffffffffffffffffffffff16815260200190815260200160002060010160019054906101000a900460ff1615156119cb57600080fd5b600560008273ffffffffffffffffffffffffffffffffffffffff1673ffffffffffffffffffffffffffffffffffffffff16815260200190815260200160002060010160019054906101000a900460ff1680611a725750600560008273ffffffffffffffffffffffffffffffffffffffff1673ffffffffffffffffffffffffffffffffffffffff16815260200190815260200160002060010160009054906101000a900460ff165b1515611a7d57600080fd5b6009600560008373ffffffffffffffffffffffffffffffffffffffff1673ffffffffffffffffffffffffffffffffffffffff16815260200190815260200160002060020154815481101515611ace57fe5b906000526020600020900160006101000a81549073ffffffffffffffffffffffffffffffffffffffff0219169055600560008273ffffffffffffffffffffffffffffffffffffffff1673ffffffffffffffffffffffffffffffffffffffff16815260200190815260200160002060008082016000611b4c9190614032565b6001820160006101000a81549060ff02191690556001820160016101000a81549060ff02191690556001820160026101000a81549060ff02191690556001820160036101000a81549060ff0219169055600282016000905550507fd67845a459bcfe6c29d4fdbe8f965d4a62ae50e68971c894edfd625d9f8bfebe3382604051808373ffffffffffffffffffffffffffffffffffffffff1673ffffffffffffffffffffffffffffffffffffffff1681526020018273ffffffffffffffffffffffffffffffffffffffff1673ffffffffffffffffffffffffffffffffffffffff1681526020019250505060405180910390a150565b60038054600181600116156101000203166002900480601f016020809104026020016040519081016040528092919081815260200182805460018160011615610100020316600290048015611cd65780601f10611cab57610100808354040283529160200191611cd6565b820191906000526020600020905b815481529060010190602001808311611cb957829003601f168201915b505050505081565b6000600b54905090565b600080600560008473ffffffffffffffffffffffffffffffffffffffff1673ffffffffffffffffffffffffffffffffffffffff16815260200190815260200160002060010160009054906101000a900460ff16600560008573ffffffffffffffffffffffffffffffffffffffff1673ffffffffffffffffffffffffffffffffffffffff16815260200190815260200160002060010160019054906101000a900460ff1691509150915091565b600460003373ffffffffffffffffffffffffffffffffffffffff1673ffffffffffffffffffffffffffffffffffffffff16815260200190815260200160002060010160019054906101000a900460ff161515611def57600080fd5b600460008273ffffffffffffffffffffffffffffffffffffffff1673ffffffffffffffffffffffffffffffffffffffff16815260200190815260200160002060010160019054906101000a900460ff1680611e965750600460008273ffffffffffffffffffffffffffffffffffffffff1673ffffffffffffffffffffffffffffffffffffffff16815260200190815260200160002060010160009054906101000a900460ff165b1515611ea157600080fd5b6008600460008373ffffffffffffffffffffffffffffffffffffffff1673ffffffffffffffffffffffffffffffffffffffff16815260200190815260200160002060020154815481101515611ef257fe5b906000526020600020900160006101000a81549073ffffffffffffffffffffffffffffffffffffffff0219169055600460008273ffffffffffffffffffffffffffffffffffffffff1673ffffffffffffffffffffffffffffffffffffffff16815260200190815260200160002060008082016000611f709190614032565b6001820160006101000a81549060ff02191690556001820160016101000a81549060ff0219169055600282016000905550507f31cf2b8264326b61eebefe150df927acfc3396b2c609d77aa05ef4bc570ac23c3382604051808373ffffffffffffffffffffffffffffffffffffffff1673ffffffffffffffffffffffffffffffffffffffff1681526020018273ffffffffffffffffffffffffffffffffffffffff1673ffffffffffffffffffffffffffffffffffffffff1681526020019250505060405180910390a150565b600b5481565b600560205280600052604060002060009150905080600001908060010160009054906101000a900460ff16908060010160019054906101000a900460ff16908060010160029054906101000a900460ff16908060010160039054906101000a900460ff16908060020154905086565b6000600760008373ffffffffffffffffffffffffffffffffffffffff1673ffffffffffffffffffffffffffffffffffffffff168152602001908152602001600020549050919050565b60025481565b6000600560003373ffffffffffffffffffffffffffffffffffffffff1673ffffffffffffffffffffffffffffffffffffffff16815260200190815260200160002060010160009054906101000a900460ff16151561215d57600080fd5b60008673ffffffffffffffffffffffffffffffffffffffff161415156121d757600660008773ffffffffffffffffffffffffffffffffffffffff1673ffffffffffffffffffffffffffffffffffffffff16815260200190815260200160002060009054906101000a900460ff161515156121d657600080fd5b5b600a80548060010182816121eb919061407a565b9160005260206000209060040201600060a0604051908101604052808981526020018a73ffffffffffffffffffffffffffffffffffffffff168152602001886000191681526020018760ff1681526020018660ff16815250909190915060008201518160000190805190602001906122649291906140ac565b5060208201518160010160006101000a81548173ffffffffffffffffffffffffffffffffffffffff021916908373ffffffffffffffffffffffffffffffffffffffff1602179055506040820151816002019060001916905560608201518160030160006101000a81548160ff021916908360ff16021790555060808201518160030160016101000a81548160ff021916908360ff1602179055505050506001600a8054905003600760008873ffffffffffffffffffffffffffffffffffffffff1673ffffffffffffffffffffffffffffffffffffffff168152602001908152602001600020819055506001600b5401600b819055507ffd630a3c8211981eaa495106d3337d3e980ded0eb89a88643329e26a0dc5b053338787878787604051808773ffffffffffffffffffffffffffffffffffffffff1673ffffffffffffffffffffffffffffffffffffffff1681526020018673ffffffffffffffffffffffffffffffffffffffff1673ffffffffffffffffffffffffffffffffffffffff1681526020018060200185600019166000191681526020018460ff1660ff1681526020018360ff1660ff168152602001828103825286818151815260200191508051906020019080838360005b8381101561244a57808201518184015260208101905061242f565b50505050905090810190601f1680156124775780820380516001836020036101000a031916815260200191505b5097505050505050505060405180910390a16001600660008873ffffffffffffffffffffffffffffffffffffffff1673ffffffffffffffffffffffffffffffffffffffff16815260200190815260200160002060006101000a81548160ff021916908315150217905550600760008773ffffffffffffffffffffffffffffffffffffffff1673ffffffffffffffffffffffffffffffffffffffff16815260200190815260200160002054905095945050505050565b60076020528060005260406000206000915090505481565b600460003373ffffffffffffffffffffffffffffffffffffffff1673ffffffffffffffffffffffffffffffffffffffff16815260200190815260200160002060010160009054906101000a900460ff16151561259f57600080fd5b600560008773ffffffffffffffffffffffffffffffffffffffff1673ffffffffffffffffffffffffffffffffffffffff16815260200190815260200160002060010160009054906101000a900460ff161580156126495750600560008773ffffffffffffffffffffffffffffffffffffffff1673ffffffffffffffffffffffffffffffffffffffff16815260200190815260200160002060010160019054906101000a900460ff16155b151561265457600080fd5b60016009805480600101828161266a919061412c565b9160005260206000209001600089909190916101000a81548173ffffffffffffffffffffffffffffffffffffffff021916908373ffffffffffffffffffffffffffffffffffffffff16021790555003600560008873ffffffffffffffffffffffffffffffffffffffff1673ffffffffffffffffffffffffffffffffffffffff1681526020019081526020016000206002018190555084600560008873ffffffffffffffffffffffffffffffffffffffff1673ffffffffffffffffffffffffffffffffffffffff16815260200190815260200160002060010160006101000a81548160ff02191690831515021790555083600560008873ffffffffffffffffffffffffffffffffffffffff1673ffffffffffffffffffffffffffffffffffffffff16815260200190815260200160002060010160016101000a81548160ff02191690831515021790555082600560008873ffffffffffffffffffffffffffffffffffffffff1673ffffffffffffffffffffffffffffffffffffffff16815260200190815260200160002060010160036101000a81548160ff02191690831515021790555081600560008873ffffffffffffffffffffffffffffffffffffffff1673ffffffffffffffffffffffffffffffffffffffff16815260200190815260200160002060010160026101000a81548160ff02191690831515021790555080600560008873ffffffffffffffffffffffffffffffffffffffff1673ffffffffffffffffffffffffffffffffffffffff16815260200190815260200160002060000190805190602001906128bd929190614158565b507fa2878f598d393afb52a0a1316c9e0f81b8019f37b9f811016912dbc0768fff3e33878787878787604051808873ffffffffffffffffffffffffffffffffffffffff1673ffffffffffffffffffffffffffffffffffffffff1681526020018773ffffffffffffffffffffffffffffffffffffffff1673ffffffffffffffffffffffffffffffffffffffff1681526020018615151515815260200185151515158152602001841515151581526020018315151515815260200180602001828103825283818151815260200191508051906020019080838360005b838110156129b2578082015181840152602081019050612997565b50505050905090810190601f1680156129df5780820380516001836020036101000a031916815260200191505b509850505050505050505060405180910390a1505050505050565b600460205280600052604060002060009150905080600001908060010160009054906101000a900460ff16908060010160019054906101000a900460ff16908060020154905084565b600460003373ffffffffffffffffffffffffffffffffffffffff1673ffffffffffffffffffffffffffffffffffffffff16815260200190815260200160002060010160009054906101000a900460ff168015612aeb5750600460003373ffffffffffffffffffffffffffffffffffffffff1673ffffffffffffffffffffffffffffffffffffffff16815260200190815260200160002060010160019054906101000a900460ff165b1515612af657600080fd5b612aff87611970565b612b0d868686868686612544565b7fa2a4c4fca320e26610f454222931075d814dc20cb08ef67928c3dae5e0bef5eb3388888888888888604051808973ffffffffffffffffffffffffffffffffffffffff1673ffffffffffffffffffffffffffffffffffffffff1681526020018873ffffffffffffffffffffffffffffffffffffffff1673ffffffffffffffffffffffffffffffffffffffff1681526020018773ffffffffffffffffffffffffffffffffffffffff1673ffffffffffffffffffffffffffffffffffffffff1681526020018615151515815260200185151515158152602001841515151581526020018315151515815260200180602001828103825283818151815260200191508051906020019080838360005b83811015612c34578082015181840152602081019050612c19565b50505050905090810190601f168015612c615780820380516001836020036101000a031916815260200191505b50995050505050505050505060405180910390a150505050505050565b6000806000600160029054906101000a900460ff16600160039054906101000a900460ff16600254925092509250909192565b6000600a80549050905090565b600160029054906101000a900460ff1681565b600560003373ffffffffffffffffffffffffffffffffffffffff1673ffffffffffffffffffffffffffffffffffffffff16815260200190815260200160002060010160029054906101000a900460ff161515612d2c57600080fd5b8173ffffffffffffffffffffffffffffffffffffffff166108fc829081150290604051600060405180830381858888f193505050501515612d6c57600080fd5b7f69ef4b1cb1e3f170e636a678eb5bdcc1a5220158859f5a6218483d81ed19c6ba338383604051808473ffffffffffffffffffffffffffffffffffffffff1673ffffffffffffffffffffffffffffffffffffffff1681526020018373ffffffffffffffffffffffffffffffffffffffff1673ffffffffffffffffffffffffffffffffffffffff168152602001828152602001935050505060405180910390a15050565b600881815481101515612e1e57fe5b90600052602060002090016000915054906101000a900473ffffffffffffffffffffffffffffffffffffffff1681565b612e566141d8565b6008805480602002602001604051908101604052809291908181526020018280548015612ed857602002820191906000526020600020905b8160009054906101000a900473ffffffffffffffffffffffffffffffffffffffff1673ffffffffffffffffffffffffffffffffffffffff1681526020019060010190808311612e8e575b5050505050905090565b600460003373ffffffffffffffffffffffffffffffffffffffff1673ffffffffffffffffffffffffffffffffffffffff16815260200190815260200160002060010160009054906101000a900460ff168015612f8a5750600460003373ffffffffffffffffffffffffffffffffffffffff1673ffffffffffffffffffffffffffffffffffffffff16815260200190815260200160002060010160019054906101000a900460ff165b1515612f9557600080fd5b8060039080519060200190612fab929190614158565b507f56a4dccb4f272cec4bf47cc5d2172996c2c9bcca52a9b625019901cd9f7933f23382604051808373ffffffffffffffffffffffffffffffffffffffff1673ffffffffffffffffffffffffffffffffffffffff16815260200180602001828103825283818151815260200191508051906020019080838360005b83811015613041578082015181840152602081019050613026565b50505050905090810190601f16801561306e5780820380516001836020036101000a031916815260200191505b50935050505060405180910390a150565b600460003373ffffffffffffffffffffffffffffffffffffffff1673ffffffffffffffffffffffffffffffffffffffff16815260200190815260200160002060010160009054906101000a900460ff1615156130da57600080fd5b600460008573ffffffffffffffffffffffffffffffffffffffff1673ffffffffffffffffffffffffffffffffffffffff16815260200190815260200160002060010160009054906101000a900460ff161580156131845750600460008573ffffffffffffffffffffffffffffffffffffffff1673ffffffffffffffffffffffffffffffffffffffff16815260200190815260200160002060010160019054906101000a900460ff16155b151561318f57600080fd5b6001600880548060010182816131a5919061412c565b9160005260206000209001600087909190916101000a81548173ffffffffffffffffffffffffffffffffffffffff021916908373ffffffffffffffffffffffffffffffffffffffff16021790555003600460008673ffffffffffffffffffffffffffffffffffffffff1673ffffffffffffffffffffffffffffffffffffffff1681526020019081526020016000206002018190555082600460008673ffffffffffffffffffffffffffffffffffffffff1673ffffffffffffffffffffffffffffffffffffffff16815260200190815260200160002060010160006101000a81548160ff02191690831515021790555081600460008673ffffffffffffffffffffffffffffffffffffffff1673ffffffffffffffffffffffffffffffffffffffff16815260200190815260200160002060010160016101000a81548160ff02191690831515021790555080600460008673ffffffffffffffffffffffffffffffffffffffff1673ffffffffffffffffffffffffffffffffffffffff1681526020019081526020016000206000019080519060200190613344929190614158565b507fb527c33e3cc4951b2cdc9a7eb45b7635a0b511688f180b982ad3b25e409596003385858585604051808673ffffffffffffffffffffffffffffffffffffffff1673ffffffffffffffffffffffffffffffffffffffff1681526020018573ffffffffffffffffffffffffffffffffffffffff1673ffffffffffffffffffffffffffffffffffffffff168152602001841515151581526020018315151515815260200180602001828103825283818151815260200191508051906020019080838360005b83811015613423578082015181840152602081019050613408565b50505050905090810190601f1680156134505780820380516001836020036101000a031916815260200191505b50965050505050505060405180910390a150505050565b60066020528060005260406000206000915054906101000a900460ff1681565b600560003373ffffffffffffffffffffffffffffffffffffffff1673ffffffffffffffffffffffffffffffffffffffff16815260200190815260200160002060010160019054906101000a900460ff16801561352f5750600560003373ffffffffffffffffffffffffffffffffffffffff1673ffffffffffffffffffffffffffffffffffffffff16815260200190815260200160002060010160009054906101000a900460ff165b151561353a57600080fd5b60008573ffffffffffffffffffffffffffffffffffffffff161415156135b457600660008673ffffffffffffffffffffffffffffffffffffffff1673ffffffffffffffffffffffffffffffffffffffff16815260200190815260200160002060009054906101000a900460ff161515156135b357600080fd5b5b600060066000600a898154811015156135c957fe5b906000526020600020906004020160010160009054906101000a900473ffffffffffffffffffffffffffffffffffffffff1673ffffffffffffffffffffffffffffffffffffffff1673ffffffffffffffffffffffffffffffffffffffff16815260200190815260200160002060006101000a81548160ff021916908315150217905550600060076000600a8981548110151561366157fe5b906000526020600020906004020160010160009054906101000a900473ffffffffffffffffffffffffffffffffffffffff1673ffffffffffffffffffffffffffffffffffffffff1673ffffffffffffffffffffffffffffffffffffffff168152602001908152602001600020819055507f5e8f1b7616df6c470e9f9feb6c689358bc178bd027b2ef7772ea3ae23ba7db8b33600a8881548110151561370257fe5b906000526020600020906004020160010160009054906101000a900473ffffffffffffffffffffffffffffffffffffffff16600a8981548110151561374357fe5b9060005260206000209060040201600001600a8a81548110151561376357fe5b906000526020600020906004020160020154600a8b81548110151561378457fe5b906000526020600020906004020160030160009054906101000a900460ff16600a8c8154811015156137b257fe5b906000526020600020906004020160030160019054906101000a900460ff16604051808773ffffffffffffffffffffffffffffffffffffffff1673ffffffffffffffffffffffffffffffffffffffff1681526020018673ffffffffffffffffffffffffffffffffffffffff1673ffffffffffffffffffffffffffffffffffffffff1681526020018060200185600019166000191681526020018460ff1660ff1681526020018360ff1660ff1681526020018281038252868181546001816001161561010002031660029004815260200191508054600181600116156101000203166002900480156138e45780601f106138b9576101008083540402835291602001916138e4565b820191906000526020600020905b8154815290600101906020018083116138c757829003601f168201915b505097505050505050505060405180910390a1600a8681548110151561390657fe5b9060005260206000209060040201600080820160006139259190614032565b6001820160006101000a81549073ffffffffffffffffffffffffffffffffffffffff021916905560028201600090556003820160006101000a81549060ff02191690556003820160016101000a81549060ff0219169055505060a0604051908101604052808581526020018673ffffffffffffffffffffffffffffffffffffffff168152602001846000191681526020018360ff1681526020018260ff16815250600a878154811015156139d557fe5b906000526020600020906004020160008201518160000190805190602001906139ff9291906140ac565b5060208201518160010160006101000a81548173ffffffffffffffffffffffffffffffffffffffff021916908373ffffffffffffffffffffffffffffffffffffffff1602179055506040820151816002019060001916905560608201518160030160006101000a81548160ff021916908360ff16021790555060808201518160030160016101000a81548160ff021916908360ff1602179055509050506001600660008773ffffffffffffffffffffffffffffffffffffffff1673ffffffffffffffffffffffffffffffffffffffff16815260200190815260200160002060006101000a81548160ff02191690831515021790555085600760008773ffffffffffffffffffffffffffffffffffffffff1673ffffffffffffffffffffffffffffffffffffffff168152602001908152602001600020819055507ffd630a3c8211981eaa495106d3337d3e980ded0eb89a88643329e26a0dc5b053338686868686604051808773ffffffffffffffffffffffffffffffffffffffff1673ffffffffffffffffffffffffffffffffffffffff1681526020018673ffffffffffffffffffffffffffffffffffffffff1673ffffffffffffffffffffffffffffffffffffffff1681526020018060200185600019166000191681526020018460ff1660ff1681526020018360ff1660ff168152602001828103825286818151815260200191508051906020019080838360005b83811015613c29578082015181840152602081019050613c0e565b50505050905090810190601f168015613c565780820380516001836020036101000a031916815260200191505b5097505050505050505060405180910390a1505050505050565b6000600660008373ffffffffffffffffffffffffffffffffffffffff1673ffffffffffffffffffffffffffffffffffffffff16815260200190815260200160002060009054906101000a900460ff169050919050565b613cce6141d8565b6009805480602002602001604051908101604052809291908181526020018280548015613d5057602002820191906000526020600020905b8160009054906101000a900473ffffffffffffffffffffffffffffffffffffffff1673ffffffffffffffffffffffffffffffffffffffff1681526020019060010190808311613d06575b5050505050905090565b613d626141ec565b600080600080600a86815481101515613d7757fe5b9060005260206000209060040201600001600a87815481101515613d9757fe5b906000526020600020906004020160010160009054906101000a900473ffffffffffffffffffffffffffffffffffffffff16600a88815481101515613dd857fe5b906000526020600020906004020160020154600a89815481101515613df957fe5b906000526020600020906004020160030160009054906101000a900460ff16600a8a815481101515613e2757fe5b906000526020600020906004020160030160019054906101000a900460ff16848054600181600116156101000203166002900480601f016020809104026020016040519081016040528092919081815260200182805460018160011615610100020316600290048015613edb5780601f10613eb057610100808354040283529160200191613edb565b820191906000526020600020905b815481529060010190602001808311613ebe57829003601f168201915b505050505094509450945094509450945091939590929450565b600a81815481101515613f0457fe5b906000526020600020906004020160009150905080600001908060010160009054906101000a900473ffffffffffffffffffffffffffffffffffffffff16908060020154908060030160009054906101000a900460ff16908060030160019054906101000a900460ff16905085565b600160039054906101000a900460ff1681565b600080600460008473ffffffffffffffffffffffffffffffffffffffff1673ffffffffffffffffffffffffffffffffffffffff16815260200190815260200160002060010160009054906101000a900460ff16600460008573ffffffffffffffffffffffffffffffffffffffff1673ffffffffffffffffffffffffffffffffffffffff16815260200190815260200160002060010160019054906101000a900460ff1691509150915091565b50805460018160011615610100020316600290046000825580601f106140585750614077565b601f0160209004906000526020600020908101906140769190614200565b5b50565b8154818355818115116140a7576004028160040283600052602060002091820191016140a69190614225565b5b505050565b828054600181600116156101000203166002900490600052602060002090601f016020900481019282601f106140ed57805160ff191683800117855561411b565b8280016001018555821561411b579182015b8281111561411a5782518255916020019190600101906140ff565b5b5090506141289190614200565b5090565b815481835581811511614153578183600052602060002091820191016141529190614200565b5b505050565b828054600181600116156101000203166002900490600052602060002090601f016020900481019282601f1061419957805160ff19168380011785556141c7565b828001600101855582156141c7579182015b828111156141c65782518255916020019190600101906141ab565b5b5090506141d49190614200565b5090565b602060405190810160405280600081525090565b602060405190810160405280600081525090565b61422291905b8082111561421e576000816000905550600101614206565b5090565b90565b6142a891905b808211156142a457600080820160006142449190614032565b6001820160006101000a81549073ffffffffffffffffffffffffffffffffffffffff021916905560028201600090556003820160006101000a81549060ff02191690556003820160016101000a81549060ff02191690555060040161422b565b5090565b905600a165627a7a7230582019bf12419a075e6c92f43f28145dddd234644c0079721a1f0719486a62d54fc30029",
  "source": "pragma solidity ^0.4.11;\n\n/// @title Standard organ contract\n\n\nimport \"./Kelsen.sol\";\n\n\ncontract Organ is Kelsen{\n\n\n    // Declaring structures for different organ roles:\n    // Masters can add/remove admins\n    // Admins can add / remove norms\n    // Norms are sets of adresses, contracts or references gathered by the organ\n    bool public isAnOrgan = true;\n    bool public isAProcedure = false;\n    int public kelsenVersionNumber = 1;\n    string public organName;\n\n    struct Master {\n        string name; // Master name\n        bool canAdd;  // if true, master can add admins\n        bool canDelete;  // if true, master can delete admins\n        uint rankInMasterList; // Rank in dynamic array masterList\n\n    }\n\n    struct Admin {\n        string name; // Admin name\n        bool canAdd;  // if true, Admin can add norms\n        bool canDelete;  // if true, Admin can delete norms\n        bool canSpend;\n        bool canDeposit;\n        uint rankInAdminList; // Rank in dynamic array adminList\n    }\n\n    struct Norm {\n        string name; // Master name\n        address normAddress; // Address if norm is a member or a contract\n        bytes32 ipfsHash; // ID of proposal on IPFS\n        uint8 hash_function;\n        uint8 size;\n    }\n\n    // Events\n    // Organ management events\n    event changeOrganName(address _from, string _newName);\n    event spendMoney(address _from, address _to, uint256 _amount);\n    event receiveMoney(address _from, uint256 _amount);\n\n    // Master management events\n    event addMasterEvent(address _from, address _newMaster, bool _canAdd, bool _canDelete, string _name);\n    event remMasterEvent(address _from, address _masterToRemove);\n    event replaceMasterEvent(address _from, address _masterToRemove, address _masterToAdd, bool _canAdd, bool _canDelete, string _name);\n\n    // Admin management events\n    event addAdminEvent(address _from, address _newAdmin, bool _canAdd, bool _canDelete, bool _canDeposit, bool _canSpend, string _name);\n    event remAdminEvent(address _from, address _adminToRemove);\n    event replaceAdminEvent(address _from, address _adminToRemove, address _adminToAdd, bool _canAdd, bool _canDelete, bool _canDeposit, bool _canSpend, string _name);\n\n    // Norm management events\n    event addNormEvent(address _from, address _normAddress, string _name, bytes32 _ipfsHash, uint8 _hash_function, uint8 _size);\n    event remNormEvent(address _from, address _normAddress, string _name, bytes32 _ipfsHash, uint8 _hash_function, uint8 _size);\n\n\n\n    // This declares two state variable that\n    // stores a `Master` and a 'admin' struct for each possible address.\n    mapping(address => Master) public masters;\n    mapping(address => Admin) public admins;\n\n    // One mapping to signal adresses that are included in norms\n    mapping(address => bool) public isAddressInNorms;\n    // One mapping to track norm position of each address. Careful, each address is tracked only once here\n    mapping(address => uint) public addressPositionInNorms;\n\n    // This declares two dynamically-sized array of `Admin` and 'Master' structs for easy referencing.\n    address[] public masterList;\n    address[] public adminList;\n\n    // A dynamically-sized array of `Norm` structs.\n    Norm[] public norms;\n\n\n    // Keeping track of active norms\n    uint256 public activeNormNumber;\n\n    // ################# Organ managing functions\n\n    function setName(string _name) public {\n        // Check sender is allowed\n        require((masters[msg.sender].canAdd) && (masters[msg.sender].canDelete));\n        organName = _name;\n        changeOrganName(msg.sender, _name);\n    }\n        // Money managing function\n    function () public payable {\n        require(admins[msg.sender].canDeposit);\n        receiveMoney(msg.sender, msg.value);\n\n\n    }\n    function transfer(address _to, uint _value) public {\n        require(admins[msg.sender].canSpend);\n        _to.transfer(_value);\n        spendMoney(msg.sender, _to, _value);\n\n    }\n\n    // ################# Master managing functions\n\n    function addMaster(address _newMasterAddress, bool _canAdd, bool _canDelete, string _name) public{\n        // Check that the sender is allowed\n        require((masters[msg.sender].canAdd));\n        // Check new master is not already a master\n        require((!masters[_newMasterAddress].canAdd) && (!masters[_newMasterAddress].canDelete));\n\n        // Adding master to master list and retrieving position\n        masters[_newMasterAddress].rankInMasterList = masterList.push(_newMasterAddress) - 1;\n\n        // Creating master privileges\n        masters[_newMasterAddress].canAdd = _canAdd;\n        masters[_newMasterAddress].canDelete = _canDelete;\n        masters[_newMasterAddress].name = _name;\n        addMasterEvent(msg.sender, _newMasterAddress, _canAdd, _canDelete, _name);\n\n    }\n\n    function replaceMaster(address _masterToRemove, address _masterToAdd, bool _canAdd, bool _canDelete, string _name) public {\n        // Check sender is allowed\n        require((masters[msg.sender].canAdd) && (masters[msg.sender].canDelete));\n        remMaster(_masterToRemove);\n        addMaster(_masterToAdd, _canAdd, _canDelete, _name);\n        replaceMasterEvent(msg.sender, _masterToRemove, _masterToAdd, _canAdd, _canDelete, _name);\n    }\n    function remMaster(address _masterToRemove) public {\n        // Check sender is allowed\n        require((masters[msg.sender].canDelete));\n        // Check affected account is a master\n        require((masters[_masterToRemove].canDelete) || (masters[_masterToRemove].canAdd) );\n        // Deleting entry in masterList\n        delete masterList[masters[_masterToRemove].rankInMasterList];\n        // Deleting master privileges\n        delete masters[_masterToRemove];\n        remMasterEvent(msg.sender, _masterToRemove);\n    }\n\n    // ################# Admin managing functions\n\n    function addAdmin(address _newAdminAddress, bool _canAdd, bool _canDelete, bool _canDeposit, bool _canSpend, string _name) public {\n        // Check the sender is allowed\n        require((masters[msg.sender].canAdd));\n        // Check new admin is not already an admin\n        require((!admins[_newAdminAddress].canAdd) && (!admins[_newAdminAddress].canDelete));\n\n        // Adding admin to admin list and retrieving position\n        admins[_newAdminAddress].rankInAdminList = adminList.push(_newAdminAddress) - 1;\n\n        // Creating master privileges\n        admins[_newAdminAddress].canAdd = _canAdd;\n        admins[_newAdminAddress].canDelete = _canDelete;\n        admins[_newAdminAddress].canDeposit = _canDeposit;\n        admins[_newAdminAddress].canSpend = _canSpend;\n        admins[_newAdminAddress].name = _name;\n        addAdminEvent(msg.sender, _newAdminAddress,  _canAdd,  _canDelete,  _canDeposit,  _canSpend,  _name);\n   \n    }\n\n    function replaceAdmin(address _adminToRemove, address _adminToAdd, bool _canAdd, bool _canDelete, bool _canDeposit, bool _canSpend, string _name) public {\n        // Check sender is allowed\n        require((masters[msg.sender].canAdd) && (masters[msg.sender].canDelete));\n        remAdmin(_adminToRemove);\n        addAdmin(_adminToAdd, _canAdd, _canDelete, _canDeposit, _canSpend, _name);\n        replaceAdminEvent(msg.sender, _adminToRemove,  _adminToAdd,  _canAdd,  _canDelete,  _canDeposit,  _canSpend, _name);\n\n    }\n\n    function remAdmin(address _adminToRemove) public {\n        // Check sender is allowed\n        require((masters[msg.sender].canDelete));\n        // Check affected account is admin\n        require((admins[_adminToRemove].canDelete) || (admins[_adminToRemove].canAdd) );\n        // Deleting entry in adminList\n        delete adminList[admins[_adminToRemove].rankInAdminList];\n        // Deleting admin privileges\n        delete admins[_adminToRemove];\n\n        remAdminEvent(msg.sender, _adminToRemove);\n\n    }\n\n    // ################# Norms managing functions\n\n    function addNorm (address _normAddress, string _name, bytes32 _ipfsHash, uint8 _hash_function, uint8 _size) public  returns (uint _normPosition)\n    {\n        // Check sender is allowed\n        require(admins[msg.sender].canAdd);\n\n        // If the norm has an address, we check that the address has not been used before.\n        if (_normAddress != 0x0000) { require(!isAddressInNorms[_normAddress]);}\n\n        // Adding the norm\n        norms.push(Norm({\n                name: _name,\n                normAddress: _normAddress,\n                ipfsHash: _ipfsHash,\n                hash_function: _hash_function,\n                size: _size\n            }));\n        // Registering norm position relative to its address\n        addressPositionInNorms[_normAddress] = norms.length -1;\n        // Incrementing active norm number and total norm number trackers\n        activeNormNumber = activeNormNumber + 1;\n        addNormEvent(msg.sender, _normAddress,  _name,  _ipfsHash,  _hash_function,  _size);\n\n        // Registering the address as active\n        isAddressInNorms[_normAddress] = true;\n        return addressPositionInNorms[_normAddress] ;\n    }\n\n    function replaceNorm (uint _normNumber, address _normAddress, string _name, bytes32 _ipfsHash, uint8 _hash_function, uint8 _size) public\n    {\n        require((admins[msg.sender].canDelete) && (admins[msg.sender].canAdd));\n        if (_normAddress != 0x0000) { require(!isAddressInNorms[_normAddress]);}\n        isAddressInNorms[norms[_normNumber].normAddress] = false;\n        addressPositionInNorms[norms[_normNumber].normAddress] = 0;\n        remNormEvent(msg.sender, norms[_normNumber].normAddress, norms[_normNumber].name, norms[_normNumber].ipfsHash,  norms[_normNumber].hash_function,  norms[_normNumber].size);\n\n        delete norms[_normNumber];\n        norms[_normNumber] = Norm({\n                name: _name,\n                normAddress: _normAddress,\n                ipfsHash: _ipfsHash,\n                hash_function: _hash_function,\n                size: _size\n            });\n        isAddressInNorms[_normAddress] = true;\n        addressPositionInNorms[_normAddress] = _normNumber;\n        addNormEvent(msg.sender, _normAddress,  _name,  _ipfsHash,  _hash_function,  _size);\n\n    }\n\n    function remNorm (uint _normNumber) public\n    {\n        // Check sender is allowed:\n        // - Sender is admin\n        // - Norm number is trying to delete himself\n        require(admins[msg.sender].canDelete || (isAddressInNorms[msg.sender] && msg.sender == norms[_normNumber].normAddress));\n        // Deleting norm position from addressPositionInNorms\n        delete addressPositionInNorms[norms[_normNumber].normAddress];\n        // Marking address as deactivated from isAddressInNorms\n        isAddressInNorms[norms[_normNumber].normAddress] = false;\n        // Logging event\n        remNormEvent(msg.sender, norms[_normNumber].normAddress, norms[_normNumber].name, norms[_normNumber].ipfsHash,  norms[_normNumber].hash_function,  norms[_normNumber].size);\n\n        // Removing norm from norms\n        delete norms[_normNumber];\n        activeNormNumber = activeNormNumber - 1;\n\n\n    }\n\n    //////////////////////// Functions to communicate with other contracts\n    // Checking individual addresses\n    function isMaster (address _adressToCheck) public view returns (bool canAdd, bool canDelete) {\n        return (masters[_adressToCheck].canAdd, masters[_adressToCheck].canDelete);\n    }\n    function isAdmin (address _adressToCheck) public view returns (bool canAdd, bool canDelete) {\n        return (admins[_adressToCheck].canAdd, admins[_adressToCheck].canDelete);\n    }\n    function isNorm (address _adressToCheck) public view returns (bool isAddressInNorm) {\n        return isAddressInNorms[_adressToCheck];\n    }\n    function isMoneyManager(address _adressToCheck) public view returns (bool canDeposit, bool canSpend){\n        return (admins[_adressToCheck].canDeposit, admins[_adressToCheck].canSpend);\n    }\n    // Retrieve contract state info\n    // Number of active norms (voter pool size for voter registering, for example)\n    function getActiveNormNumber() public view returns (uint _activeNormNumber){\n        return activeNormNumber;\n    }\n    // Size of norm array, to list elements\n    function getNormListSize() public view returns (uint normArraySize){\n        return norms.length;\n    }\n    function getAddressPositionInNorm(address _addressToCheck) public view returns (uint addressInNormPosition){\n        return addressPositionInNorms[_addressToCheck];\n    }\n    function getSingleNorm(uint _desiredNormPosition) public view returns (string name, address normAddress, bytes32 ipfsHash, uint8 hash_function, uint8 size){\n        return (norms[_desiredNormPosition].name, norms[_desiredNormPosition].normAddress, norms[_desiredNormPosition].ipfsHash, norms[_desiredNormPosition].hash_function, norms[_desiredNormPosition].size);\n    }\n\n    // Retrieve lists of adresses\n    function getMasterList() public view returns (address[] _masterList){\n        return masterList;\n    }\n    function getAdminList() public view returns (address[] _adminList){\n        return adminList;\n    }\n    function getKelsenVersion() public view returns(bool _isAnOrgan, bool _isAProcedure, int _versionNumber)\n    {\n\n        return (isAnOrgan, isAProcedure, kelsenVersionNumber);\n\n    }\n\n\n\n}\n\n",
  "sourcePath": "/Users/henrilieutaud/Documents/Mes documents/97/Workshop/ChainTech/solidity/contracts/standardOrgan.sol",
  "compiler": {
    "name": "solc",
    "version": "0.4.19+commit.c4cbbb05.Emscripten.clang"
  },
  "schemaVersion": "2.0.0",
  "updatedAt": "2018-04-01T00:08:29.043Z"
}