{
  "contractName": "Procedure",
  "abi": [
    {
      "constant": true,
      "inputs": [],
      "name": "procedureTypeNumber",
      "outputs": [
        {
          "name": "",
          "type": "int256"
        }
      ],
      "payable": false,
      "stateMutability": "view",
      "type": "function"
    },
    {
      "constant": true,
      "inputs": [],
      "name": "kelsenVersionNumber",
      "outputs": [
        {
          "name": "",
          "type": "int256"
        }
      ],
      "payable": false,
      "stateMutability": "view",
      "type": "function"
    },
    {
      "constant": true,
      "inputs": [],
      "name": "isAnOrgan",
      "outputs": [
        {
          "name": "",
          "type": "bool"
        }
      ],
      "payable": false,
      "stateMutability": "view",
      "type": "function"
    },
    {
      "constant": true,
      "inputs": [],
      "name": "isAProcedure",
      "outputs": [
        {
          "name": "",
          "type": "bool"
        }
      ],
      "payable": false,
      "stateMutability": "view",
      "type": "function"
    }
  ],
  "bytecode": "0x6060604052341561000f57600080fd5b6101708061001e6000396000f300606060405260043610610062576000357c0100000000000000000000000000000000000000000000000000000000900463ffffffff1680632647d7f9146100675780635dbe4d2814610090578063a8bef97a146100b9578063e80b30a5146100e6575b600080fd5b341561007257600080fd5b61007a610113565b6040518082815260200191505060405180910390f35b341561009b57600080fd5b6100a3610119565b6040518082815260200191505060405180910390f35b34156100c457600080fd5b6100cc61011f565b604051808215151515815260200191505060405180910390f35b34156100f157600080fd5b6100f9610132565b604051808215151515815260200191505060405180910390f35b60025481565b60005481565b600160009054906101000a900460ff1681565b6001809054906101000a900460ff16815600a165627a7a723058207bf1a78b5a8fc7d649f606fd2ee350d41a60ecea127e3360af115d57dd91ba8f0029",
  "source": "pragma solidity ^0.4.11;\n\n/// @title Standard organ contract\n\nimport \"./Kelsen.sol\";\n\n\ncontract Procedure is Kelsen {\n    // Identifiers to adapt procedure interface\n    int public procedureTypeNumber;\n\n}\n",
  "sourcePath": "/Users/henrilieutaud/Documents/Mes documents/97/Workshop/ChainTech/solidity/contracts/standardProcedure.sol",
  "compiler": {
    "name": "solc",
    "version": "0.4.19+commit.c4cbbb05.Emscripten.clang"
  },
  "schemaVersion": "2.0.0",
  "updatedAt": "2018-03-23T10:25:48.093Z"
}