{
  "contractName": "promulgationProcedure",
  "abi": [
    {
      "constant": true,
      "inputs": [
        {
          "name": "",
          "type": "address"
        },
        {
          "name": "",
          "type": "uint256"
        }
      ],
      "name": "propositionToUser",
      "outputs": [
        {
          "name": "",
          "type": "uint256"
        }
      ],
      "payable": false,
      "stateMutability": "view",
      "type": "function"
    },
    {
      "constant": true,
      "inputs": [],
      "name": "procedureTypeNumber",
      "outputs": [
        {
          "name": "",
          "type": "int256"
        }
      ],
      "payable": false,
      "stateMutability": "view",
      "type": "function"
    },
    {
      "constant": true,
      "inputs": [],
      "name": "quorumSize",
      "outputs": [
        {
          "name": "",
          "type": "uint256"
        }
      ],
      "payable": false,
      "stateMutability": "view",
      "type": "function"
    },
    {
      "constant": true,
      "inputs": [
        {
          "name": "",
          "type": "address"
        },
        {
          "name": "",
          "type": "uint256"
        }
      ],
      "name": "propositionToPromulgator",
      "outputs": [
        {
          "name": "",
          "type": "uint256"
        }
      ],
      "payable": false,
      "stateMutability": "view",
      "type": "function"
    },
    {
      "constant": true,
      "inputs": [],
      "name": "kelsenVersionNumber",
      "outputs": [
        {
          "name": "",
          "type": "int256"
        }
      ],
      "payable": false,
      "stateMutability": "view",
      "type": "function"
    },
    {
      "constant": true,
      "inputs": [],
      "name": "membersWithVetoOrganContract",
      "outputs": [
        {
          "name": "",
          "type": "address"
        }
      ],
      "payable": false,
      "stateMutability": "view",
      "type": "function"
    },
    {
      "constant": true,
      "inputs": [
        {
          "name": "",
          "type": "address"
        },
        {
          "name": "",
          "type": "uint256"
        }
      ],
      "name": "propositionToVoter",
      "outputs": [
        {
          "name": "",
          "type": "uint256"
        }
      ],
      "payable": false,
      "stateMutability": "view",
      "type": "function"
    },
    {
      "constant": true,
      "inputs": [],
      "name": "finalPromulgatorsOrganContract",
      "outputs": [
        {
          "name": "",
          "type": "address"
        }
      ],
      "payable": false,
      "stateMutability": "view",
      "type": "function"
    },
    {
      "constant": true,
      "inputs": [],
      "name": "totalPropositionNumber",
      "outputs": [
        {
          "name": "",
          "type": "uint256"
        }
      ],
      "payable": false,
      "stateMutability": "view",
      "type": "function"
    },
    {
      "constant": true,
      "inputs": [],
      "name": "isAnOrgan",
      "outputs": [
        {
          "name": "",
          "type": "bool"
        }
      ],
      "payable": false,
      "stateMutability": "view",
      "type": "function"
    },
    {
      "constant": true,
      "inputs": [],
      "name": "votingPeriodDuration",
      "outputs": [
        {
          "name": "",
          "type": "uint256"
        }
      ],
      "payable": false,
      "stateMutability": "view",
      "type": "function"
    },
    {
      "constant": true,
      "inputs": [],
      "name": "membersOrganContract",
      "outputs": [
        {
          "name": "",
          "type": "address"
        }
      ],
      "payable": false,
      "stateMutability": "view",
      "type": "function"
    },
    {
      "constant": true,
      "inputs": [
        {
          "name": "",
          "type": "uint256"
        }
      ],
      "name": "propositionsWaitingPromulgation",
      "outputs": [
        {
          "name": "",
          "type": "bool"
        }
      ],
      "payable": false,
      "stateMutability": "view",
      "type": "function"
    },
    {
      "constant": true,
      "inputs": [],
      "name": "promulgationPeriodDuration",
      "outputs": [
        {
          "name": "",
          "type": "uint256"
        }
      ],
      "payable": false,
      "stateMutability": "view",
      "type": "function"
    },
    {
      "constant": true,
      "inputs": [
        {
          "name": "",
          "type": "address"
        },
        {
          "name": "",
          "type": "uint256"
        }
      ],
      "name": "propositionToVetoer",
      "outputs": [
        {
          "name": "",
          "type": "uint256"
        }
      ],
      "payable": false,
      "stateMutability": "view",
      "type": "function"
    },
    {
      "constant": true,
      "inputs": [
        {
          "name": "",
          "type": "uint256"
        }
      ],
      "name": "propositionsWaitingEndOfVote",
      "outputs": [
        {
          "name": "",
          "type": "bool"
        }
      ],
      "payable": false,
      "stateMutability": "view",
      "type": "function"
    },
    {
      "constant": true,
      "inputs": [],
      "name": "isAProcedure",
      "outputs": [
        {
          "name": "",
          "type": "bool"
        }
      ],
      "payable": false,
      "stateMutability": "view",
      "type": "function"
    },
    {
      "anonymous": false,
      "inputs": [
        {
          "indexed": false,
          "name": "_candidateAddress",
          "type": "address"
        },
        {
          "indexed": false,
          "name": "_ipfsHash",
          "type": "bytes32"
        },
        {
          "indexed": false,
          "name": "_hash_function",
          "type": "uint8"
        },
        {
          "indexed": false,
          "name": "_size",
          "type": "uint8"
        }
      ],
      "name": "createPropositionEvent",
      "type": "event"
    },
    {
      "anonymous": false,
      "inputs": [
        {
          "indexed": false,
          "name": "_from",
          "type": "address"
        },
        {
          "indexed": false,
          "name": "_propositionNumber",
          "type": "uint256"
        }
      ],
      "name": "voteOnProposition",
      "type": "event"
    },
    {
      "anonymous": false,
      "inputs": [
        {
          "indexed": false,
          "name": "_from",
          "type": "address"
        },
        {
          "indexed": false,
          "name": "_propositionNumber",
          "type": "uint256"
        },
        {
          "indexed": false,
          "name": "_decision",
          "type": "bool"
        }
      ],
      "name": "vetoProposition",
      "type": "event"
    },
    {
      "anonymous": false,
      "inputs": [
        {
          "indexed": false,
          "name": "_from",
          "type": "address"
        },
        {
          "indexed": false,
          "name": "_propositionNumber",
          "type": "uint256"
        }
      ],
      "name": "countVotes",
      "type": "event"
    },
    {
      "anonymous": false,
      "inputs": [
        {
          "indexed": false,
          "name": "_from",
          "type": "address"
        },
        {
          "indexed": false,
          "name": "_propositionNumber",
          "type": "uint256"
        }
      ],
      "name": "promulgatePropositionEvent",
      "type": "event"
    },
    {
      "constant": false,
      "inputs": [
        {
          "name": "_name",
          "type": "string"
        },
        {
          "name": "_ipfsHash",
          "type": "bytes32"
        },
        {
          "name": "_hash_function",
          "type": "uint8"
        },
        {
          "name": "_size",
          "type": "uint8"
        }
      ],
      "name": "createProposition",
      "outputs": [
        {
          "name": "propositionNumber",
          "type": "uint256"
        }
      ],
      "payable": false,
      "stateMutability": "nonpayable",
      "type": "function"
    },
    {
      "constant": false,
      "inputs": [
        {
          "name": "_propositionNumber",
          "type": "uint256"
        },
        {
          "name": "_acceptProposition",
          "type": "bool"
        }
      ],
      "name": "vote",
      "outputs": [],
      "payable": false,
      "stateMutability": "nonpayable",
      "type": "function"
    },
    {
      "constant": false,
      "inputs": [
        {
          "name": "_propositionNumber",
          "type": "uint256"
        },
        {
          "name": "_acceptProposition",
          "type": "bool"
        }
      ],
      "name": "veto",
      "outputs": [],
      "payable": false,
      "stateMutability": "nonpayable",
      "type": "function"
    },
    {
      "constant": false,
      "inputs": [
        {
          "name": "_propositionNumber",
          "type": "uint256"
        }
      ],
      "name": "endPropositionVote",
      "outputs": [
        {
          "name": "hasBeenAccepted",
          "type": "bool"
        }
      ],
      "payable": false,
      "stateMutability": "nonpayable",
      "type": "function"
    },
    {
      "constant": false,
      "inputs": [
        {
          "name": "_propositionNumber",
          "type": "uint256"
        }
      ],
      "name": "promulgateProposition",
      "outputs": [],
      "payable": false,
      "stateMutability": "nonpayable",
      "type": "function"
    }
  ],
  "bytecode": "0x60606040526007600355341561001457600080fd5b612269806100236000396000f300606060405260043610610128576000357c0100000000000000000000000000000000000000000000000000000000900463ffffffff1680630b2e34b01461012d5780632647d7f9146101835780633068ef4d146101ac5780635332eea1146101d55780635b9d73451461022b5780635dbe4d281461024e5780635e8b72441461027757806364cdd61e146102a557806375ff60c4146102fa578063880d3f54146103505780638f3b07a4146103a5578063a8bef97a146103ce578063a990cfde146103fb578063b5fdb88e14610491578063b945d9e7146104ba578063c9d27afe1461050f578063cd43eb1f1461053d578063cd87c2b614610578578063d8588494146105a1578063e09ecb87146105f7578063e36f6e4e14610632578063e80b30a51461066d575b600080fd5b341561013857600080fd5b61016d600480803573ffffffffffffffffffffffffffffffffffffffff1690602001909190803590602001909190505061069a565b6040518082815260200191505060405180910390f35b341561018e57600080fd5b6101966106cb565b6040518082815260200191505060405180910390f35b34156101b757600080fd5b6101bf6106d1565b6040518082815260200191505060405180910390f35b34156101e057600080fd5b610215600480803573ffffffffffffffffffffffffffffffffffffffff169060200190919080359060200190919050506106d7565b6040518082815260200191505060405180910390f35b341561023657600080fd5b61024c6004808035906020019091905050610708565b005b341561025957600080fd5b610261610c96565b6040518082815260200191505060405180910390f35b341561028257600080fd5b6102a360048080359060200190919080351515906020019091905050610c9c565b005b34156102b057600080fd5b6102b8611003565b604051808273ffffffffffffffffffffffffffffffffffffffff1673ffffffffffffffffffffffffffffffffffffffff16815260200191505060405180910390f35b341561030557600080fd5b61033a600480803573ffffffffffffffffffffffffffffffffffffffff16906020019091908035906020019091905050611029565b6040518082815260200191505060405180910390f35b341561035b57600080fd5b61036361105a565b604051808273ffffffffffffffffffffffffffffffffffffffff1673ffffffffffffffffffffffffffffffffffffffff16815260200191505060405180910390f35b34156103b057600080fd5b6103b8611080565b6040518082815260200191505060405180910390f35b34156103d957600080fd5b6103e1611086565b604051808215151515815260200191505060405180910390f35b341561040657600080fd5b61047b600480803590602001908201803590602001908080601f016020809104026020016040519081016040528093929190818152602001838380828437820191505050505050919080356000191690602001909190803560ff1690602001909190803560ff16906020019091905050611099565b6040518082815260200191505060405180910390f35b341561049c57600080fd5b6104a461166c565b6040518082815260200191505060405180910390f35b34156104c557600080fd5b6104cd611672565b604051808273ffffffffffffffffffffffffffffffffffffffff1673ffffffffffffffffffffffffffffffffffffffff16815260200191505060405180910390f35b341561051a57600080fd5b61053b60048080359060200190919080351515906020019091905050611698565b005b341561054857600080fd5b61055e60048080359060200190919050506119f5565b604051808215151515815260200191505060405180910390f35b341561058357600080fd5b61058b611a28565b6040518082815260200191505060405180910390f35b34156105ac57600080fd5b6105e1600480803573ffffffffffffffffffffffffffffffffffffffff16906020019091908035906020019091905050611a2e565b6040518082815260200191505060405180910390f35b341561060257600080fd5b6106186004808035906020019091905050611a5f565b604051808215151515815260200191505060405180910390f35b341561063d57600080fd5b6106536004808035906020019091905050611ed1565b604051808215151515815260200191505060405180910390f35b341561067857600080fd5b610680611f04565b604051808215151515815260200191505060405180910390f35b600e602052816000526040600020818154811015156106b557fe5b9060005260206000209001600091509150505481565b60035481565b60095481565b6011602052816000526040600020818154811015156106f257fe5b9060005260206000209001600091509150505481565b600080600b8381548110151561071a57fe5b90600052602060002090600c020160020160029054906101000a900460ff1615151561074557600080fd5b600b8381548110151561075457fe5b90600052602060002090600c020160020160019054906101000a900460ff16151561077e57600080fd5b600854600754600b8581548110151561079357fe5b90600052602060002090600c02016001015401014210156108a157600660009054906101000a900473ffffffffffffffffffffffffffffffffffffffff1691508173ffffffffffffffffffffffffffffffffffffffff1663d323a4f8336000604051602001526040518263ffffffff167c0100000000000000000000000000000000000000000000000000000000028152600401808273ffffffffffffffffffffffffffffffffffffffff1673ffffffffffffffffffffffffffffffffffffffff168152602001915050602060405180830381600087803b151561087657600080fd5b6102c65a03f1151561088757600080fd5b50505060405180519050151561089c57600080fd5b600091505b600b838154811015156108b057fe5b90600052602060002090600c020160020160009054906101000a900460ff1615156108da57600080fd5b600460009054906101000a900473ffffffffffffffffffffffffffffffffffffffff1690508073ffffffffffffffffffffffffffffffffffffffff1663696c5219600b8581548110151561092a57fe5b90600052602060002090600c020160080160009054906101000a900473ffffffffffffffffffffffffffffffffffffffff16600b8681548110151561096b57fe5b90600052602060002090600c0201600901600b8781548110151561098b57fe5b90600052602060002090600c0201600a0154600b888154811015156109ac57fe5b90600052602060002090600c0201600b0160009054906101000a900460ff16600b898154811015156109da57fe5b90600052602060002090600c0201600b0160019054906101000a900460ff166000604051602001526040518663ffffffff167c0100000000000000000000000000000000000000000000000000000000028152600401808673ffffffffffffffffffffffffffffffffffffffff1673ffffffffffffffffffffffffffffffffffffffff1681526020018060200185600019166000191681526020018460ff1660ff1681526020018360ff1660ff168152602001828103825286818154600181600116156101000203166002900481526020019150805460018160011615610100020316600290048015610b0e5780601f10610ae357610100808354040283529160200191610b0e565b820191906000526020600020905b815481529060010190602001808311610af157829003601f168201915b50509650505050505050602060405180830381600087803b1515610b3157600080fd5b6102c65a03f11515610b4257600080fd5b50505060405180519050506001600b84815481101515610b5e57fe5b90600052602060002090600c020160020160026101000a81548160ff0219169083151502179055506000600d84815481101515610b9757fe5b90600052602060002090602091828204019190066101000a81548160ff021916908315150217905550601160003373ffffffffffffffffffffffffffffffffffffffff1673ffffffffffffffffffffffffffffffffffffffff1681526020019081526020016000208054806001018281610c119190611f16565b9160005260206000209001600085909190915055507f6488668a970b37da2333b4e2f299369ec2545de1cb7772a523818f23e0e5f8b43384604051808373ffffffffffffffffffffffffffffffffffffffff1673ffffffffffffffffffffffffffffffffffffffff1681526020018281526020019250505060405180910390a1505050565b60005481565b6000600b83815481101515610cad57fe5b90600052602060002090600c020160000160003373ffffffffffffffffffffffffffffffffffffffff1673ffffffffffffffffffffffffffffffffffffffff16815260200190815260200160002060009054906101000a900460ff16151515610d1557600080fd5b600560009054906101000a900473ffffffffffffffffffffffffffffffffffffffff1690508073ffffffffffffffffffffffffffffffffffffffff1663d323a4f8336000604051602001526040518263ffffffff167c0100000000000000000000000000000000000000000000000000000000028152600401808273ffffffffffffffffffffffffffffffffffffffff1673ffffffffffffffffffffffffffffffffffffffff168152602001915050602060405180830381600087803b1515610ddd57600080fd5b6102c65a03f11515610dee57600080fd5b505050604051805190501515610e0357600080fd5b60009050600b83815481101515610e1657fe5b90600052602060002090600c020160020160019054906101000a900460ff16151515610e4157600080fd5b8115610e7b576001600b84815481101515610e5857fe5b90600052602060002090600c020160060160008282540192505081905550610eab565b6001600b84815481101515610e8c57fe5b90600052602060002090600c0201600501600082825401925050819055505b6001600b84815481101515610ebc57fe5b90600052602060002090600c020160000160003373ffffffffffffffffffffffffffffffffffffffff1673ffffffffffffffffffffffffffffffffffffffff16815260200190815260200160002060006101000a81548160ff021916908315150217905550601060003373ffffffffffffffffffffffffffffffffffffffff1673ffffffffffffffffffffffffffffffffffffffff1681526020019081526020016000208054806001018281610f729190611f16565b9160005260206000209001600085909190915055507f784f91034367c5f65754729da97be44b2d8e37d9ccfd9f568442de3a84f3fe1f338484604051808473ffffffffffffffffffffffffffffffffffffffff1673ffffffffffffffffffffffffffffffffffffffff16815260200183815260200182151515158152602001935050505060405180910390a1505050565b600560009054906101000a900473ffffffffffffffffffffffffffffffffffffffff1681565b600f6020528160005260406000208181548110151561104457fe5b9060005260206000209001600091509150505481565b600660009054906101000a900473ffffffffffffffffffffffffffffffffffffffff1681565b600a5481565b600160009054906101000a900460ff1681565b6000806110a4611f42565b600460009054906101000a900473ffffffffffffffffffffffffffffffffffffffff1691508173ffffffffffffffffffffffffffffffffffffffff1663d323a4f8336000604051602001526040518263ffffffff167c0100000000000000000000000000000000000000000000000000000000028152600401808273ffffffffffffffffffffffffffffffffffffffff1673ffffffffffffffffffffffffffffffffffffffff168152602001915050602060405180830381600087803b151561116c57600080fd5b6102c65a03f1151561117d57600080fd5b5050506040518051905015151561119357600080fd5b60646009548373ffffffffffffffffffffffffffffffffffffffff1663234d34de6000604051602001526040518163ffffffff167c0100000000000000000000000000000000000000000000000000000000028152600401602060405180830381600087803b151561120457600080fd5b6102c65a03f1151561121557600080fd5b505050604051805190500281151561122957fe5b04816101000181815250506000816101000151141561124f576001816101000181815250505b600091503381610120019073ffffffffffffffffffffffffffffffffffffffff16908173ffffffffffffffffffffffffffffffffffffffff16815250508581610160019060001916908160001916815250508481610180019060ff16908160ff168152505083816101a0019060ff16908160ff1681525050868161014001819052504281600001818152505060008160600190151590811515815250506000816040019015159081151581525050600081602001901515908115158152505060008160a0018181525050600081608001818152505060008160c001818152505060008160e0018181525050600b805480600101828161134e9190611fdd565b91600052602060002090600c020160008390919091506000820151816001015560208201518160020160006101000a81548160ff02191690831515021790555060408201518160020160016101000a81548160ff02191690831515021790555060608201518160020160026101000a81548160ff0219169083151502179055506080820151816003015560a0820151816004015560c0820151816005015560e0820151816006015561010082015181600701556101208201518160080160006101000a81548173ffffffffffffffffffffffffffffffffffffffff021916908373ffffffffffffffffffffffffffffffffffffffff16021790555061014082015181600901908051906020019061146692919061200f565b5061016082015181600a019060001916905561018082015181600b0160006101000a81548160ff021916908360ff1602179055506101a082015181600b0160016101000a81548160ff021916908360ff1602179055505050506114c7611f42565b90506001600b805490500392506001600a60008282540192505081905550600e60003373ffffffffffffffffffffffffffffffffffffffff1673ffffffffffffffffffffffffffffffffffffffff16815260200190815260200160002080548060010182816115369190611f16565b916000526020600020900160008590919091505550600c805480600101828161155f919061208f565b91600052602060002090602091828204019190066001909190916101000a81548160ff02191690831515021790555050600d80548060010182816115a3919061208f565b91600052602060002090602091828204019190066000909190916101000a81548160ff021916908315150217905550507f2d05d2df568ee518eb178e6be9b05475625d625e9555892ea3a8008d8996271e33878787604051808573ffffffffffffffffffffffffffffffffffffffff1673ffffffffffffffffffffffffffffffffffffffff16815260200184600019166000191681526020018360ff1660ff1681526020018260ff1660ff16815260200194505050505060405180910390a15050949350505050565b60075481565b600460009054906101000a900473ffffffffffffffffffffffffffffffffffffffff1681565b6000600460009054906101000a900473ffffffffffffffffffffffffffffffffffffffff1690508073ffffffffffffffffffffffffffffffffffffffff1663d323a4f8336000604051602001526040518263ffffffff167c0100000000000000000000000000000000000000000000000000000000028152600401808273ffffffffffffffffffffffffffffffffffffffff1673ffffffffffffffffffffffffffffffffffffffff168152602001915050602060405180830381600087803b151561176257600080fd5b6102c65a03f1151561177357600080fd5b50505060405180519050151561178857600080fd5b60009050600b8381548110151561179b57fe5b90600052602060002090600c020160000160003373ffffffffffffffffffffffffffffffffffffffff1673ffffffffffffffffffffffffffffffffffffffff16815260200190815260200160002060009054906101000a900460ff1615151561180357600080fd5b600b8381548110151561181257fe5b90600052602060002090600c020160020160019054906101000a900460ff1615151561183d57600080fd5b60011515821515141561187a576001600b8481548110151561185b57fe5b90600052602060002090600c0201600301600082825401925050819055505b6001600b8481548110151561188b57fe5b90600052602060002090600c020160000160003373ffffffffffffffffffffffffffffffffffffffff1673ffffffffffffffffffffffffffffffffffffffff16815260200190815260200160002060006101000a81548160ff0219169083151502179055506001600b8481548110151561190157fe5b90600052602060002090600c020160040160008282540192505081905550600f60003373ffffffffffffffffffffffffffffffffffffffff1673ffffffffffffffffffffffffffffffffffffffff16815260200190815260200160002080548060010182816119709190611f16565b9160005260206000209001600085909190915055507fd1faddd599b0d6b58c83de71d7ff5395895b5891894dcd37f2482f33b2a1c43d3384604051808373ffffffffffffffffffffffffffffffffffffffff1673ffffffffffffffffffffffffffffffffffffffff1681526020018281526020019250505060405180910390a1505050565b600d81815481101515611a0457fe5b9060005260206000209060209182820401919006915054906101000a900460ff1681565b60085481565b601060205281600052604060002081815481101515611a4957fe5b9060005260206000209001600091509150505481565b600080600b83815481101515611a7157fe5b90600052602060002090600c020160020160019054906101000a900460ff16151515611a9c57600080fd5b42600754600b85815481101515611aaf57fe5b90600052602060002090600c02016001015401101515611ace57600080fd5b600b83815481101515611add57fe5b90600052602060002090600c020160070154600b84815481101515611afe57fe5b90600052602060002090600c02016004015410151515611b1d57600080fd5b600560009054906101000a900473ffffffffffffffffffffffffffffffffffffffff169050600090508073ffffffffffffffffffffffffffffffffffffffff1663234d34de6000604051602001526040518163ffffffff167c0100000000000000000000000000000000000000000000000000000000028152600401602060405180830381600087803b1515611bb257600080fd5b6102c65a03f11515611bc357600080fd5b50505060405180519050600b84815481101515611bdc57fe5b90600052602060002090600c020160050154101515611c3757600091506001600b84815481101515611c0a57fe5b90600052602060002090600c020160020160026101000a81548160ff021916908315150217905550611d7b565b8073ffffffffffffffffffffffffffffffffffffffff1663234d34de6000604051602001526040518163ffffffff167c0100000000000000000000000000000000000000000000000000000000028152600401602060405180830381600087803b1515611ca357600080fd5b6102c65a03f11515611cb457600080fd5b50505060405180519050600b84815481101515611ccd57fe5b90600052602060002090600c020160060154101580611d2e5750600b83815481101515611cf657fe5b90600052602060002090600c0201600401546002600b85815481101515611d1957fe5b90600052602060002090600c02016003015402115b15611d3c5760019150611d7a565b600091506001600b84815481101515611d5157fe5b90600052602060002090600c020160020160026101000a81548160ff0219169083151502179055505b5b6001600b84815481101515611d8c57fe5b90600052602060002090600c020160020160016101000a81548160ff02191690831515021790555081600b84815481101515611dc457fe5b90600052602060002090600c020160020160006101000a81548160ff0219169083151502179055506000600c84815481101515611dfd57fe5b90600052602060002090602091828204019190066101000a81548160ff0219169083151502179055506001600d84815481101515611e3757fe5b90600052602060002090602091828204019190066101000a81548160ff0219169083151502179055507f297f1f08d2ef8c90272f7ee3e1d4272015a96cdff8a252b60547b9e432e723603384604051808373ffffffffffffffffffffffffffffffffffffffff1673ffffffffffffffffffffffffffffffffffffffff1681526020018281526020019250505060405180910390a150919050565b600c81815481101515611ee057fe5b9060005260206000209060209182820401919006915054906101000a900460ff1681565b6001809054906101000a900460ff1681565b815481835581811511611f3d57818360005260206000209182019101611f3c91906120c9565b5b505050565b6101c060405190810160405280600081526020016000151581526020016000151581526020016000151581526020016000815260200160008152602001600081526020016000815260200160008152602001600073ffffffffffffffffffffffffffffffffffffffff168152602001611fb96120ee565b815260200160008019168152602001600060ff168152602001600060ff1681525090565b81548183558181151161200a57600c0281600c0283600052602060002091820191016120099190612102565b5b505050565b828054600181600116156101000203166002900490600052602060002090601f016020900481019282601f1061205057805160ff191683800117855561207e565b8280016001018555821561207e579182015b8281111561207d578251825591602001919060010190612062565b5b50905061208b91906120c9565b5090565b8154818355818115116120c457601f016020900481601f016020900483600052602060002091820191016120c391906120c9565b5b505050565b6120eb91905b808211156120e75760008160009055506001016120cf565b5090565b90565b602060405190810160405280600081525090565b6121f291905b808211156121ee57600060018201600090556002820160006101000a81549060ff02191690556002820160016101000a81549060ff02191690556002820160026101000a81549060ff0219169055600382016000905560048201600090556005820160009055600682016000905560078201600090556008820160006101000a81549073ffffffffffffffffffffffffffffffffffffffff02191690556009820160006121b591906121f5565b600a820160009055600b820160006101000a81549060ff0219169055600b820160016101000a81549060ff021916905550600c01612108565b5090565b90565b50805460018160011615610100020316600290046000825580601f1061221b575061223a565b601f01602090049060005260206000209081019061223991906120c9565b5b505600a165627a7a72305820f38bdb5db7fe72d49144e61d039beb491950c72e39ea60a43a49d14bc3858a8e0029",
  "source": "pragma solidity ^0.4.11;\n\n// Standard contract for promulgation of a norm\n\nimport \"../standardProcedure.sol\";\nimport \"../standardOrgan.sol\";\n\n\ncontract promulgationProcedure is Procedure{\n    // 1: Presidential Election\n    // 2: Membership addition\n    // 3: Constitutionnal reform\n    // 4: Norm promulgation\n    // 5: Moderators election\n    // 6: Simple nomination\n    // 7: Cooptation\n    int public procedureTypeNumber = 7;\n\n    // Which organ will be affected\n    address public membersOrganContract;\n\n    // Organ in which the voters with veto power are registered\n    address public membersWithVetoOrganContract;\n\n    // Organ in which final promulgators are listed\n    address public finalPromulgatorsOrganContract;\n\n    // ############## Variable to set up when declaring the procedure\n    // ####### Vote creation process\n\n    // ####### Voting process\n    // Time for participant to vote\n    uint public votingPeriodDuration;\n\n    // Time for the final promulgators to promulgate\n    uint public promulgationPeriodDuration;\n\n    // ####### Resolution process\n    // Minimum participation to validate election\n    uint public quorumSize;\n\n    // Variable of the procedure to keep track of propositions\n    uint public totalPropositionNumber;\n\n    // Proposition structure\n    struct Proposition {\n        // **** Voting variables\n        // Mapping to track user votes\n        mapping(address => bool) hasUserVoted;\n        // Time of proposition creation\n        uint startDate;\n        // Was the proposition accepted?\n        bool wasAccepted;\n        // Was the proposition counted?\n        bool wasCounted;\n        // Was the proposition acted upon?\n        bool wasEnacted;\n        // How many people voted YES?\n        uint voteFor;\n        // How many people voted?\n        uint totalVoteCount;\n        // Was the proposition vetoed by the Vetoing members?\n        uint vetoCount;\n        // Was the proposition validated by the Vetoing members?\n        uint notVetoCount;\n        // How many members need to vote to enact proposition?\n        uint requiredQuorum;\n        // Proposition details\n        address candidateAddress;\n        string name;\n        bytes32 ipfsHash; // ID of proposal on IPFS\n        uint8 hash_function;\n        uint8 size;\n    }\n\n\n    // A dynamically-sized array of `Proposition` structs.\n    Proposition[] propositions;\n\n    // Dynamic size array of status of propositions\n    bool[] public propositionsWaitingEndOfVote;\n    bool[] public propositionsWaitingPromulgation;\n\n    // Mapping each proposition to the user creating it\n    mapping (address => uint[]) public propositionToUser;    \n\n    // Mapping each proposition to the user who participated\n    mapping (address => uint[]) public propositionToVoter;\n\n    // Mapping each proposition to the user vetoing it\n    mapping (address => uint[]) public propositionToVetoer;\n\n    // Mapping each proposition to the user promulgating it\n    mapping (address => uint[]) public propositionToPromulgator;\n\n    \n\n    // Events\n    event createPropositionEvent(address _candidateAddress, bytes32 _ipfsHash, uint8 _hash_function, uint8 _size);\n    event voteOnProposition(address _from, uint _propositionNumber);\n    event vetoProposition(address _from, uint _propositionNumber, bool _decision);\n    event countVotes(address _from, uint _propositionNumber);\n    event promulgatePropositionEvent(address _from, uint _propositionNumber);\n\n    /// Create a new ballot to choose one of `proposalNames`.\n    function createProposition(string _name, bytes32 _ipfsHash, uint8 _hash_function, uint8 _size) public returns (uint propositionNumber){\n\n            // Checking that the proposition is not made on an existing member\n            Organ membersOrgan = Organ(membersOrganContract);\n            require(!membersOrgan.isNorm(msg.sender));\n\n            // Creating new proposition \n            Proposition memory newProposition;\n            \n            // Calculating required quorum\n            newProposition.requiredQuorum = membersOrgan.getActiveNormNumber()*quorumSize/100;\n            if (newProposition.requiredQuorum == 0){\n                newProposition.requiredQuorum = 1;\n            }\n            delete membersOrgan;\n\n            \n            newProposition.candidateAddress = msg.sender;\n            newProposition.ipfsHash = _ipfsHash;\n            newProposition.hash_function = _hash_function;\n            newProposition.size = _size;\n            newProposition.name = _name;\n\n            // Instanciating proposition\n\n            newProposition.startDate = now;\n            newProposition.wasEnacted = false;\n            newProposition.wasCounted = false;\n            newProposition.wasAccepted = false;\n            newProposition.totalVoteCount = 0;\n            newProposition.voteFor = 0;\n            newProposition.vetoCount = 0;\n            newProposition.notVetoCount = 0;\n\n            // newProposition.voteAgainst = 0;\n            propositions.push(newProposition);\n            delete newProposition;\n\n            propositionNumber = propositions.length - 1;\n\n            // Tracking propositions being deposed\n            totalPropositionNumber += 1;\n            propositionToUser[msg.sender].push(propositionNumber);\n            propositionsWaitingEndOfVote.push(true);\n            propositionsWaitingPromulgation.push(false);\n\n            // proposition creation event\n            createPropositionEvent(msg.sender, _ipfsHash, _hash_function, _size);\n\n    }\n\n    // Vote for a proposition\n    function vote(uint _propositionNumber, bool _acceptProposition) public {\n\n        // Check the voter is able to vote on a proposition\n        Organ membersOrgan = Organ(membersOrganContract);\n        require(membersOrgan.isNorm(msg.sender));\n        delete membersOrgan;\n        \n        // Check if voter already voted\n        require(!propositions[_propositionNumber].hasUserVoted[msg.sender]);\n\n        // Check if vote is still active\n        require(!propositions[_propositionNumber].wasCounted);\n\n        // Adding vote\n        if(_acceptProposition == true)\n        {propositions[_propositionNumber].voteFor += 1;}\n\n        // Log that user voted\n        propositions[_propositionNumber].hasUserVoted[msg.sender] = true;\n        \n        // Adding vote count\n        propositions[_propositionNumber].totalVoteCount += 1;\n\n        // Log that user voted on this proposition\n        propositionToVoter[msg.sender].push(_propositionNumber);\n\n        // create vote event\n        voteOnProposition(msg.sender, _propositionNumber);\n    }\n\n        /// Veto a candidate\n    function veto(uint _propositionNumber, bool _acceptProposition) public {\n\n        // Check if voter already voted\n        require(!propositions[_propositionNumber].hasUserVoted[msg.sender]);\n\n        // Check the voter is able to veto the proposition\n        Organ membersWithVetoOrgan = Organ(membersWithVetoOrganContract);\n        require(membersWithVetoOrgan.isNorm(msg.sender));\n        delete membersWithVetoOrgan;\n        \n        // Check if vote is still active\n        require(!propositions[_propositionNumber].wasCounted);\n\n        // Log decision\n        if (_acceptProposition) {\n            propositions[_propositionNumber].notVetoCount += 1;\n        }\n       else {\n            propositions[_propositionNumber].vetoCount += 1;\n       }\n\n       // Log that user voted\n        propositions[_propositionNumber].hasUserVoted[msg.sender] = true;\n\n        // Log that user vetoed this proposition\n        propositionToVetoer[msg.sender].push(_propositionNumber);\n\n        //  Create veto event\n        vetoProposition(msg.sender, _propositionNumber, _acceptProposition);\n\n    }\n\n    // The vote is finished and we close it. This does not trigger the outcome of the vote. PromulgateProposition() should be called after\n    function endPropositionVote(uint _propositionNumber) public returns (bool hasBeenAccepted) {\n        // We check if the vote was already counted\n        require(!propositions[_propositionNumber].wasCounted);\n\n        // Checking that the vote can be closed\n        require(propositions[_propositionNumber].startDate + votingPeriodDuration < now);\n\n        // Checking that the vote received enough votes to be closed\n        require((propositions[_propositionNumber].totalVoteCount >= propositions[_propositionNumber].requiredQuorum));\n\n        // Checking if members with vetoed blocked/forced the proposition\n        Organ membersWithVetoOrgan = Organ(membersWithVetoOrganContract);\n\n\n        delete membersWithVetoOrgan;\n        // We check that Quorum was obtained and that a majority of votes were cast in favor of the proposition\n        if (propositions[_propositionNumber].vetoCount >= membersWithVetoOrgan.getActiveNormNumber())\n            {hasBeenAccepted=false;\n                propositions[_propositionNumber].wasEnacted = true;}\n        else if ((propositions[_propositionNumber].notVetoCount >= membersWithVetoOrgan.getActiveNormNumber()) || (propositions[_propositionNumber].voteFor*2 > propositions[_propositionNumber].totalVoteCount) )\n            {hasBeenAccepted = true;}\n        else \n            {hasBeenAccepted=false;\n            propositions[_propositionNumber].wasEnacted = true;}\n\n\n        // ############## Updating ballot values if vote concluded\n        propositions[_propositionNumber].wasCounted = true;\n        propositions[_propositionNumber].wasAccepted = hasBeenAccepted;\n        propositionsWaitingEndOfVote[_propositionNumber] = false;\n        propositionsWaitingPromulgation[_propositionNumber] = true;\n\n        countVotes(msg.sender, _propositionNumber);\n    }\n\n    function promulgateProposition(uint _propositionNumber) public\n    {\n        // Checking if ballot was already enforced\n        require(!propositions[_propositionNumber].wasEnacted );\n\n        // Checking the ballot was counted\n        require(propositions[_propositionNumber].wasCounted);\n\n        // If promulgation is happening before endOfVote + promulgationPeriodDuration, check caller is an official promulgator\n        if (now < propositions[_propositionNumber].startDate + votingPeriodDuration + promulgationPeriodDuration)\n            {        // Check the voter is able to promulgate the proposition\n            Organ promulgatorsOrgan = Organ(finalPromulgatorsOrganContract);\n            require(promulgatorsOrgan.isNorm(msg.sender));\n            delete promulgatorsOrgan;\n            }\n\n        // Checking the ballot was accepted\n        require(propositions[_propositionNumber].wasAccepted);\n\n        // We initiate the Organ interface to add a norm\n\n        Organ membersOrgan = Organ(membersOrganContract);\n         // Adding a new norm\n        membersOrgan.addNorm(propositions[_propositionNumber].candidateAddress, propositions[_propositionNumber].name , propositions[_propositionNumber].ipfsHash, propositions[_propositionNumber].hash_function, propositions[_propositionNumber].size );\n                \n            \n\n        \n        propositions[_propositionNumber].wasEnacted = true;\n        propositionsWaitingPromulgation[_propositionNumber] = false;\n        propositionToPromulgator[msg.sender].push(_propositionNumber);\n        // promulgation event\n        promulgatePropositionEvent(msg.sender, _propositionNumber);\n\n    }\n\n//         //////////////////////// Functions to communicate with other contracts\n//     function getPropositionDetails(uint _propositionNumber) public view returns (address _addressToAdd, address _addressToRemove, bytes32 _ipfsHash, uint8 _hash_function, uint8 _size){\n//         return (propositions[_propositionNumber].contractToAdd, propositions[_propositionNumber].contractToRemove, propositions[_propositionNumber].ipfsHash, propositions[_propositionNumber].hash_function, propositions[_propositionNumber].size);\n//     }\n//     function getPropositionDates(uint _propositionNumber) public view returns (uint _startDate, uint _votingPeriodEndDate, uint _promulgatorWindowEndDate){\n//         return (propositions[_propositionNumber].startDate, propositions[_propositionNumber].votingPeriodEndDate, propositions[_propositionNumber].votingPeriodEndDate + promulgationPeriodDuration);\n//     }\n//     function getPropositionStatus(uint _propositionNumber) public view returns (bool _wasCounted, bool _wasEnacted){\n//         return (propositions[_propositionNumber].wasCounted, propositions[_propositionNumber].wasEnacted);\n//     }\n//     function getVotedPropositionResults(uint _propositionNumber) public view returns (uint _startDate, uint _totalVoteCount, uint _voteFor, bool _wasVetoed, bool _wasAccepted){\n//         require(propositions[_propositionNumber].wasCounted);\n//         return (propositions[_propositionNumber].startDate, propositions[_propositionNumber].totalVoteCount, propositions[_propositionNumber].voteFor, propositions[_propositionNumber].wasVetoed, propositions[_propositionNumber].wasAccepted);\n//         }\n//     function getPropositionsCreatedByUser(address _userAddress) public view returns (uint[])\n//     {return propositionToUser[_userAddress];}    \n//     function getPropositionsVetoedByUser(address _userAddress) public view returns (uint[])\n//     {return propositionToVetoer[_userAddress];}  \n//     function getPropositionsPromulgatedByUser(address _userAddress) public view returns (uint[])\n//     {return propositionToPromulgator[_userAddress];}  \n//     function getPropositionsUsedByUser(address _userAddress) public view returns (uint[])\n//     {return propositionToVoter[_userAddress];}  \n//     function haveIVoted(uint propositionNumber) public view returns (bool IHaveVoted)\n//     {return propositions[propositionNumber].hasUserVoted[msg.sender];}\n\n}\n\n",
  "sourcePath": "/Users/henrilieutaud/Documents/Mes documents/97/Workshop/ChainTech/solidity/contracts/procedures/cooptationProcedure.sol",
  "compiler": {
    "name": "solc",
    "version": "0.4.19+commit.c4cbbb05.Emscripten.clang"
  },
  "schemaVersion": "2.0.0",
  "updatedAt": "2018-03-23T10:25:48.086Z"
}