{
  "contractName": "voteOnAdminsProcedure",
  "abi": [
    {
      "constant": true,
      "inputs": [
        {
          "name": "",
          "type": "address"
        },
        {
          "name": "",
          "type": "uint256"
        }
      ],
      "name": "propositionToUser",
      "outputs": [
        {
          "name": "",
          "type": "uint256"
        }
      ],
      "payable": false,
      "stateMutability": "view",
      "type": "function"
    },
    {
      "constant": true,
      "inputs": [],
      "name": "procedureTypeNumber",
      "outputs": [
        {
          "name": "",
          "type": "int256"
        }
      ],
      "payable": false,
      "stateMutability": "view",
      "type": "function"
    },
    {
      "constant": true,
      "inputs": [],
      "name": "quorumSize",
      "outputs": [
        {
          "name": "",
          "type": "uint256"
        }
      ],
      "payable": false,
      "stateMutability": "view",
      "type": "function"
    },
    {
      "constant": true,
      "inputs": [
        {
          "name": "",
          "type": "address"
        },
        {
          "name": "",
          "type": "uint256"
        }
      ],
      "name": "propositionToPromulgator",
      "outputs": [
        {
          "name": "",
          "type": "uint256"
        }
      ],
      "payable": false,
      "stateMutability": "view",
      "type": "function"
    },
    {
      "constant": true,
      "inputs": [],
      "name": "kelsenVersionNumber",
      "outputs": [
        {
          "name": "",
          "type": "int256"
        }
      ],
      "payable": false,
      "stateMutability": "view",
      "type": "function"
    },
    {
      "constant": true,
      "inputs": [],
      "name": "membersWithVetoOrganContract",
      "outputs": [
        {
          "name": "",
          "type": "address"
        }
      ],
      "payable": false,
      "stateMutability": "view",
      "type": "function"
    },
    {
      "constant": true,
      "inputs": [
        {
          "name": "",
          "type": "address"
        },
        {
          "name": "",
          "type": "uint256"
        }
      ],
      "name": "propositionToVoter",
      "outputs": [
        {
          "name": "",
          "type": "uint256"
        }
      ],
      "payable": false,
      "stateMutability": "view",
      "type": "function"
    },
    {
      "constant": true,
      "inputs": [],
      "name": "finalPromulgatorsOrganContract",
      "outputs": [
        {
          "name": "",
          "type": "address"
        }
      ],
      "payable": false,
      "stateMutability": "view",
      "type": "function"
    },
    {
      "constant": true,
      "inputs": [],
      "name": "totalPropositionNumber",
      "outputs": [
        {
          "name": "",
          "type": "uint256"
        }
      ],
      "payable": false,
      "stateMutability": "view",
      "type": "function"
    },
    {
      "constant": true,
      "inputs": [],
      "name": "majoritySize",
      "outputs": [
        {
          "name": "",
          "type": "uint256"
        }
      ],
      "payable": false,
      "stateMutability": "view",
      "type": "function"
    },
    {
      "constant": true,
      "inputs": [],
      "name": "isAnOrgan",
      "outputs": [
        {
          "name": "",
          "type": "bool"
        }
      ],
      "payable": false,
      "stateMutability": "view",
      "type": "function"
    },
    {
      "constant": true,
      "inputs": [],
      "name": "votingPeriodDuration",
      "outputs": [
        {
          "name": "",
          "type": "uint256"
        }
      ],
      "payable": false,
      "stateMutability": "view",
      "type": "function"
    },
    {
      "constant": true,
      "inputs": [
        {
          "name": "",
          "type": "uint256"
        }
      ],
      "name": "propositionsWaitingPromulgation",
      "outputs": [
        {
          "name": "",
          "type": "bool"
        }
      ],
      "payable": false,
      "stateMutability": "view",
      "type": "function"
    },
    {
      "constant": true,
      "inputs": [],
      "name": "promulgationPeriodDuration",
      "outputs": [
        {
          "name": "",
          "type": "uint256"
        }
      ],
      "payable": false,
      "stateMutability": "view",
      "type": "function"
    },
    {
      "constant": true,
      "inputs": [],
      "name": "votersOrganContract",
      "outputs": [
        {
          "name": "",
          "type": "address"
        }
      ],
      "payable": false,
      "stateMutability": "view",
      "type": "function"
    },
    {
      "constant": true,
      "inputs": [
        {
          "name": "",
          "type": "address"
        },
        {
          "name": "",
          "type": "uint256"
        }
      ],
      "name": "propositionToVetoer",
      "outputs": [
        {
          "name": "",
          "type": "uint256"
        }
      ],
      "payable": false,
      "stateMutability": "view",
      "type": "function"
    },
    {
      "constant": true,
      "inputs": [
        {
          "name": "",
          "type": "uint256"
        }
      ],
      "name": "propositionsWaitingEndOfVote",
      "outputs": [
        {
          "name": "",
          "type": "bool"
        }
      ],
      "payable": false,
      "stateMutability": "view",
      "type": "function"
    },
    {
      "constant": true,
      "inputs": [],
      "name": "isAProcedure",
      "outputs": [
        {
          "name": "",
          "type": "bool"
        }
      ],
      "payable": false,
      "stateMutability": "view",
      "type": "function"
    },
    {
      "constant": true,
      "inputs": [],
      "name": "affectedOrganContract",
      "outputs": [
        {
          "name": "",
          "type": "address"
        }
      ],
      "payable": false,
      "stateMutability": "view",
      "type": "function"
    },
    {
      "anonymous": false,
      "inputs": [
        {
          "indexed": false,
          "name": "_from",
          "type": "address"
        },
        {
          "indexed": false,
          "name": "_targetOrgan",
          "type": "address"
        },
        {
          "indexed": false,
          "name": "_propositionType",
          "type": "uint256"
        },
        {
          "indexed": false,
          "name": "_propositionNumber",
          "type": "uint256"
        }
      ],
      "name": "createPropositionEvent",
      "type": "event"
    },
    {
      "anonymous": false,
      "inputs": [
        {
          "indexed": false,
          "name": "_contractToAdd",
          "type": "address"
        },
        {
          "indexed": false,
          "name": "_contractToRemove",
          "type": "address"
        }
      ],
      "name": "createPropositionDetails",
      "type": "event"
    },
    {
      "anonymous": false,
      "inputs": [
        {
          "indexed": false,
          "name": "_propositionNumber",
          "type": "uint256"
        },
        {
          "indexed": false,
          "name": "_canAdd",
          "type": "bool"
        },
        {
          "indexed": false,
          "name": "_canDelete",
          "type": "bool"
        },
        {
          "indexed": false,
          "name": "_name",
          "type": "string"
        }
      ],
      "name": "createMasterPropositionEvent",
      "type": "event"
    },
    {
      "anonymous": false,
      "inputs": [
        {
          "indexed": false,
          "name": "_propositionNumber",
          "type": "uint256"
        },
        {
          "indexed": false,
          "name": "_canAdd",
          "type": "bool"
        },
        {
          "indexed": false,
          "name": "_canDelete",
          "type": "bool"
        },
        {
          "indexed": false,
          "name": "_canDeposit",
          "type": "bool"
        },
        {
          "indexed": false,
          "name": "_canSpend",
          "type": "bool"
        },
        {
          "indexed": false,
          "name": "_name",
          "type": "string"
        }
      ],
      "name": "createAdminPropositionEvent",
      "type": "event"
    },
    {
      "anonymous": false,
      "inputs": [
        {
          "indexed": false,
          "name": "_propositionNumber",
          "type": "uint256"
        },
        {
          "indexed": false,
          "name": "_ipfsHash",
          "type": "bytes32"
        },
        {
          "indexed": false,
          "name": "_hash_function",
          "type": "uint8"
        },
        {
          "indexed": false,
          "name": "_size",
          "type": "uint8"
        },
        {
          "indexed": false,
          "name": "name",
          "type": "string"
        }
      ],
      "name": "createNormPropositionEvent",
      "type": "event"
    },
    {
      "anonymous": false,
      "inputs": [
        {
          "indexed": false,
          "name": "_from",
          "type": "address"
        },
        {
          "indexed": false,
          "name": "_propositionNumber",
          "type": "uint256"
        }
      ],
      "name": "voteOnProposition",
      "type": "event"
    },
    {
      "anonymous": false,
      "inputs": [
        {
          "indexed": false,
          "name": "_from",
          "type": "address"
        },
        {
          "indexed": false,
          "name": "_propositionNumber",
          "type": "uint256"
        }
      ],
      "name": "vetoProposition",
      "type": "event"
    },
    {
      "anonymous": false,
      "inputs": [
        {
          "indexed": false,
          "name": "_from",
          "type": "address"
        },
        {
          "indexed": false,
          "name": "_propositionNumber",
          "type": "uint256"
        }
      ],
      "name": "countVotes",
      "type": "event"
    },
    {
      "anonymous": false,
      "inputs": [
        {
          "indexed": false,
          "name": "_from",
          "type": "address"
        },
        {
          "indexed": false,
          "name": "_propositionNumber",
          "type": "uint256"
        },
        {
          "indexed": false,
          "name": "_promulgate",
          "type": "bool"
        }
      ],
      "name": "promulgatePropositionEvent",
      "type": "event"
    },
    {
      "constant": false,
      "inputs": [
        {
          "name": "_targetOrgan",
          "type": "address"
        },
        {
          "name": "_contractToAdd",
          "type": "address"
        },
        {
          "name": "_contractToRemove",
          "type": "address"
        },
        {
          "name": "_ipfsHash",
          "type": "bytes32"
        },
        {
          "name": "_hash_function",
          "type": "uint8"
        },
        {
          "name": "_size",
          "type": "uint8"
        },
        {
          "name": "_name",
          "type": "string"
        },
        {
          "name": "_canAdd",
          "type": "bool"
        },
        {
          "name": "_canDelete",
          "type": "bool"
        },
        {
          "name": "_canDeposit",
          "type": "bool"
        },
        {
          "name": "_canSpend",
          "type": "bool"
        },
        {
          "name": "_propositionType",
          "type": "uint256"
        }
      ],
      "name": "createProposition",
      "outputs": [
        {
          "name": "propositionNumber",
          "type": "uint256"
        }
      ],
      "payable": false,
      "stateMutability": "nonpayable",
      "type": "function"
    },
    {
      "constant": false,
      "inputs": [
        {
          "name": "_propositionNumber",
          "type": "uint256"
        },
        {
          "name": "_acceptProposition",
          "type": "bool"
        }
      ],
      "name": "vote",
      "outputs": [],
      "payable": false,
      "stateMutability": "nonpayable",
      "type": "function"
    },
    {
      "constant": false,
      "inputs": [
        {
          "name": "_propositionNumber",
          "type": "uint256"
        }
      ],
      "name": "veto",
      "outputs": [],
      "payable": false,
      "stateMutability": "nonpayable",
      "type": "function"
    },
    {
      "constant": false,
      "inputs": [
        {
          "name": "_propositionNumber",
          "type": "uint256"
        }
      ],
      "name": "endPropositionVote",
      "outputs": [
        {
          "name": "hasBeenAccepted",
          "type": "bool"
        }
      ],
      "payable": false,
      "stateMutability": "nonpayable",
      "type": "function"
    },
    {
      "constant": false,
      "inputs": [
        {
          "name": "_propositionNumber",
          "type": "uint256"
        },
        {
          "name": "_promulgate",
          "type": "bool"
        }
      ],
      "name": "promulgateProposition",
      "outputs": [],
      "payable": false,
      "stateMutability": "nonpayable",
      "type": "function"
    },
    {
      "constant": true,
      "inputs": [
        {
          "name": "_propositionNumber",
          "type": "uint256"
        }
      ],
      "name": "getPropositionDetails",
      "outputs": [
        {
          "name": "_addressToAdd",
          "type": "address"
        },
        {
          "name": "_addressToRemove",
          "type": "address"
        },
        {
          "name": "_canAdd",
          "type": "bool"
        },
        {
          "name": "_canDelete",
          "type": "bool"
        },
        {
          "name": "_canDeposit",
          "type": "bool"
        },
        {
          "name": "_canSpend",
          "type": "bool"
        },
        {
          "name": "_name",
          "type": "string"
        }
      ],
      "payable": false,
      "stateMutability": "view",
      "type": "function"
    },
    {
      "constant": true,
      "inputs": [
        {
          "name": "_propositionNumber",
          "type": "uint256"
        }
      ],
      "name": "getPropositionDocumentation",
      "outputs": [
        {
          "name": "_addressToAdd",
          "type": "address"
        },
        {
          "name": "_addressToRemove",
          "type": "address"
        },
        {
          "name": "_ipfsHash",
          "type": "bytes32"
        },
        {
          "name": "_hash_function",
          "type": "uint8"
        },
        {
          "name": "_size",
          "type": "uint8"
        },
        {
          "name": "_propositionType",
          "type": "uint256"
        }
      ],
      "payable": false,
      "stateMutability": "view",
      "type": "function"
    },
    {
      "constant": true,
      "inputs": [
        {
          "name": "_propositionNumber",
          "type": "uint256"
        }
      ],
      "name": "getPropositionDates",
      "outputs": [
        {
          "name": "_startDate",
          "type": "uint256"
        },
        {
          "name": "_votingPeriodEndDate",
          "type": "uint256"
        },
        {
          "name": "_promulgatorWindowEndDate",
          "type": "uint256"
        }
      ],
      "payable": false,
      "stateMutability": "view",
      "type": "function"
    },
    {
      "constant": true,
      "inputs": [
        {
          "name": "_propositionNumber",
          "type": "uint256"
        }
      ],
      "name": "getPropositionStatus",
      "outputs": [
        {
          "name": "_wasCounted",
          "type": "bool"
        },
        {
          "name": "_wasEnded",
          "type": "bool"
        }
      ],
      "payable": false,
      "stateMutability": "view",
      "type": "function"
    },
    {
      "constant": true,
      "inputs": [
        {
          "name": "_propositionNumber",
          "type": "uint256"
        }
      ],
      "name": "getVotedPropositionResults",
      "outputs": [
        {
          "name": "_startDate",
          "type": "uint256"
        },
        {
          "name": "_totalVoteCount",
          "type": "uint256"
        },
        {
          "name": "_voteFor",
          "type": "uint256"
        },
        {
          "name": "_wasVetoed",
          "type": "bool"
        },
        {
          "name": "_wasAccepted",
          "type": "bool"
        }
      ],
      "payable": false,
      "stateMutability": "view",
      "type": "function"
    },
    {
      "constant": true,
      "inputs": [
        {
          "name": "_userAddress",
          "type": "address"
        }
      ],
      "name": "getPropositionsCreatedByUser",
      "outputs": [
        {
          "name": "",
          "type": "uint256[]"
        }
      ],
      "payable": false,
      "stateMutability": "view",
      "type": "function"
    },
    {
      "constant": true,
      "inputs": [
        {
          "name": "_userAddress",
          "type": "address"
        }
      ],
      "name": "getPropositionsVetoedByUser",
      "outputs": [
        {
          "name": "",
          "type": "uint256[]"
        }
      ],
      "payable": false,
      "stateMutability": "view",
      "type": "function"
    },
    {
      "constant": true,
      "inputs": [
        {
          "name": "_userAddress",
          "type": "address"
        }
      ],
      "name": "getPropositionsPromulgatedByUser",
      "outputs": [
        {
          "name": "",
          "type": "uint256[]"
        }
      ],
      "payable": false,
      "stateMutability": "view",
      "type": "function"
    },
    {
      "constant": true,
      "inputs": [
        {
          "name": "_userAddress",
          "type": "address"
        }
      ],
      "name": "getPropositionsUsedByUser",
      "outputs": [
        {
          "name": "",
          "type": "uint256[]"
        }
      ],
      "payable": false,
      "stateMutability": "view",
      "type": "function"
    },
    {
      "constant": true,
      "inputs": [
        {
          "name": "propositionNumber",
          "type": "uint256"
        }
      ],
      "name": "haveIVoted",
      "outputs": [
        {
          "name": "IHaveVoted",
          "type": "bool"
        }
      ],
      "payable": false,
      "stateMutability": "view",
      "type": "function"
    }
  ],
  "bytecode": "0x6060604052600a600355341561001457600080fd5b614a33806100236000396000f3006060604052600436106101ac576000357c0100000000000000000000000000000000000000000000000000000000900463ffffffff1680630366af3d146101b157806305cf0057146101f757806307e7a224146102855780630b2e34b0146103135780630f2d671e146103695780631d28dec7146104915780632647d7f9146104b45780633068ef4d146104dd57806337443feb146105065780633c0848ee146106345780633ef4cfbb146106c25780635332eea1146107885780635dbe4d28146107de57806364cdd61e146108075780636a95d38d1461085c57806375ff60c4146108b7578063880d3f541461090d5780638f3b07a4146109625780639f32551b1461098b578063a8bef97a146109b4578063ac37af1c146109e1578063b5fdb88e14610a1c578063c9d27afe14610a45578063cb20a2fd14610a73578063cd43eb1f14610b01578063cd87c2b614610b3c578063ce784b7714610b65578063ce88840314610bba578063d64ff06314610bff578063d858849414610c2d578063e09ecb8714610c83578063e36f6e4e14610cbe578063e80b30a514610cf9578063fe7800e114610d26575b600080fd5b34156101bc57600080fd5b6101d26004808035906020019091905050610d7b565b6040518083151515158152602001821515151581526020019250505060405180910390f35b341561020257600080fd5b61022e600480803573ffffffffffffffffffffffffffffffffffffffff16906020019091905050610de3565b6040518080602001828103825283818151815260200191508051906020019060200280838360005b83811015610271578082015181840152602081019050610256565b505050509050019250505060405180910390f35b341561029057600080fd5b6102bc600480803573ffffffffffffffffffffffffffffffffffffffff16906020019091905050610e80565b6040518080602001828103825283818151815260200191508051906020019060200280838360005b838110156102ff5780820151818401526020810190506102e4565b505050509050019250505060405180910390f35b341561031e57600080fd5b610353600480803573ffffffffffffffffffffffffffffffffffffffff16906020019091908035906020019091905050610f1d565b6040518082815260200191505060405180910390f35b341561037457600080fd5b61047b600480803573ffffffffffffffffffffffffffffffffffffffff1690602001909190803573ffffffffffffffffffffffffffffffffffffffff1690602001909190803573ffffffffffffffffffffffffffffffffffffffff169060200190919080356000191690602001909190803560ff1690602001909190803560ff1690602001909190803590602001908201803590602001908080601f016020809104026020016040519081016040528093929190818152602001838380828437820191505050505050919080351515906020019091908035151590602001909190803515159060200190919080351515906020019091908035906020019091905050610f4e565b6040518082815260200191505060405180910390f35b341561049c57600080fd5b6104b260048080359060200190919050506119d7565b005b34156104bf57600080fd5b6104c7611c41565b6040518082815260200191505060405180910390f35b34156104e857600080fd5b6104f0611c47565b6040518082815260200191505060405180910390f35b341561051157600080fd5b6105276004808035906020019091905050611c4d565b604051808873ffffffffffffffffffffffffffffffffffffffff1673ffffffffffffffffffffffffffffffffffffffff1681526020018773ffffffffffffffffffffffffffffffffffffffff1673ffffffffffffffffffffffffffffffffffffffff1681526020018615151515815260200185151515158152602001841515151581526020018315151515815260200180602001828103825283818151815260200191508051906020019080838360005b838110156105f35780820151818401526020810190506105d8565b50505050905090810190601f1680156106205780820380516001836020036101000a031916815260200191505b509850505050505050505060405180910390f35b341561063f57600080fd5b61066b600480803573ffffffffffffffffffffffffffffffffffffffff16906020019091905050611e6d565b6040518080602001828103825283818151815260200191508051906020019060200280838360005b838110156106ae578082015181840152602081019050610693565b505050509050019250505060405180910390f35b34156106cd57600080fd5b6106e36004808035906020019091905050611f0a565b604051808773ffffffffffffffffffffffffffffffffffffffff1673ffffffffffffffffffffffffffffffffffffffff1681526020018673ffffffffffffffffffffffffffffffffffffffff1673ffffffffffffffffffffffffffffffffffffffff16815260200185600019166000191681526020018460ff1660ff1681526020018360ff1660ff168152602001828152602001965050505050505060405180910390f35b341561079357600080fd5b6107c8600480803573ffffffffffffffffffffffffffffffffffffffff16906020019091908035906020019091905050612048565b6040518082815260200191505060405180910390f35b34156107e957600080fd5b6107f1612079565b6040518082815260200191505060405180910390f35b341561081257600080fd5b61081a61207f565b604051808273ffffffffffffffffffffffffffffffffffffffff1673ffffffffffffffffffffffffffffffffffffffff16815260200191505060405180910390f35b341561086757600080fd5b61087d60048080359060200190919050506120a5565b6040518086815260200185815260200184815260200183151515158152602001821515151581526020019550505050505060405180910390f35b34156108c257600080fd5b6108f7600480803573ffffffffffffffffffffffffffffffffffffffff169060200190919080359060200190919050506121b8565b6040518082815260200191505060405180910390f35b341561091857600080fd5b6109206121e9565b604051808273ffffffffffffffffffffffffffffffffffffffff1673ffffffffffffffffffffffffffffffffffffffff16815260200191505060405180910390f35b341561096d57600080fd5b61097561220f565b6040518082815260200191505060405180910390f35b341561099657600080fd5b61099e612215565b6040518082815260200191505060405180910390f35b34156109bf57600080fd5b6109c761221b565b604051808215151515815260200191505060405180910390f35b34156109ec57600080fd5b610a02600480803590602001909190505061222e565b604051808215151515815260200191505060405180910390f35b3415610a2757600080fd5b610a2f6122a2565b6040518082815260200191505060405180910390f35b3415610a5057600080fd5b610a71600480803590602001909190803515159060200190919050506122a8565b005b3415610a7e57600080fd5b610aaa600480803573ffffffffffffffffffffffffffffffffffffffff16906020019091905050612633565b6040518080602001828103825283818151815260200191508051906020019060200280838360005b83811015610aed578082015181840152602081019050610ad2565b505050509050019250505060405180910390f35b3415610b0c57600080fd5b610b2260048080359060200190919050506126d0565b604051808215151515815260200191505060405180910390f35b3415610b4757600080fd5b610b4f612703565b6040518082815260200191505060405180910390f35b3415610b7057600080fd5b610b78612709565b604051808273ffffffffffffffffffffffffffffffffffffffff1673ffffffffffffffffffffffffffffffffffffffff16815260200191505060405180910390f35b3415610bc557600080fd5b610bdb600480803590602001909190505061272f565b60405180848152602001838152602001828152602001935050505060405180910390f35b3415610c0a57600080fd5b610c2b600480803590602001909190803515159060200190919050506127a8565b005b3415610c3857600080fd5b610c6d600480803573ffffffffffffffffffffffffffffffffffffffff16906020019091908035906020019091905050614168565b6040518082815260200191505060405180910390f35b3415610c8e57600080fd5b610ca46004808035906020019091905050614199565b604051808215151515815260200191505060405180910390f35b3415610cc957600080fd5b610cdf6004808035906020019091905050614544565b604051808215151515815260200191505060405180910390f35b3415610d0457600080fd5b610d0c614577565b604051808215151515815260200191505060405180910390f35b3415610d3157600080fd5b610d39614589565b604051808273ffffffffffffffffffffffffffffffffffffffff1673ffffffffffffffffffffffffffffffffffffffff16815260200191505060405180910390f35b600080600d83815481101515610d8d57fe5b90600052602060002090600e0201600b0160019054906101000a900460ff16600d84815481101515610dbb57fe5b90600052602060002090600e0201600b0160039054906101000a900460ff1691509150915091565b610deb6145af565b601160008373ffffffffffffffffffffffffffffffffffffffff1673ffffffffffffffffffffffffffffffffffffffff168152602001908152602001600020805480602002602001604051908101604052809291908181526020018280548015610e7457602002820191906000526020600020905b815481526020019060010190808311610e60575b50505050509050919050565b610e886145af565b601360008373ffffffffffffffffffffffffffffffffffffffff1673ffffffffffffffffffffffffffffffffffffffff168152602001908152602001600020805480602002602001604051908101604052809291908181526020018280548015610f1157602002820191906000526020600020905b815481526020019060010190808311610efd575b50505050509050919050565b601060205281600052604060002081815481101515610f3857fe5b9060005260206000209001600091509150505481565b600080610f596145c3565b600560009054906101000a900473ffffffffffffffffffffffffffffffffffffffff1691508173ffffffffffffffffffffffffffffffffffffffff1663d323a4f8336000604051602001526040518263ffffffff167c0100000000000000000000000000000000000000000000000000000000028152600401808273ffffffffffffffffffffffffffffffffffffffff1673ffffffffffffffffffffffffffffffffffffffff168152602001915050602060405180830381600087803b151561102157600080fd5b6102c65a03f1151561103257600080fd5b50505060405180519050151561104757600080fd5b600091508e816000019073ffffffffffffffffffffffffffffffffffffffff16908173ffffffffffffffffffffffffffffffffffffffff16815250508d816020019073ffffffffffffffffffffffffffffffffffffffff16908173ffffffffffffffffffffffffffffffffffffffff16815250508c816040019073ffffffffffffffffffffffffffffffffffffffff16908173ffffffffffffffffffffffffffffffffffffffff16815250508b816060019060001916908160001916815250508a816080019060ff16908160ff1681525050898160a0019060ff16908160ff1681525050878160e00190151590811515815250508681610100019015159081151581525050848161012001901515908115158152505085816101400190151590811515815250508381610160018181525050888160c0018190525042816101800181815250506008544201816101a00181815250506000816101c00190151590811515815250506000816102200190151590811515815250506000816101e0019015159081151581525050600081610200019015159081151581525050600081610260018181525050600081610240018181525050600d805480600101828161121091906146be565b91600052602060002090600e0201600083909190915060008201518160000160006101000a81548173ffffffffffffffffffffffffffffffffffffffff021916908373ffffffffffffffffffffffffffffffffffffffff16021790555060208201518160010160006101000a81548173ffffffffffffffffffffffffffffffffffffffff021916908373ffffffffffffffffffffffffffffffffffffffff16021790555060408201518160020160006101000a81548173ffffffffffffffffffffffffffffffffffffffff021916908373ffffffffffffffffffffffffffffffffffffffff1602179055506060820151816003019060001916905560808201518160040160006101000a81548160ff021916908360ff16021790555060a08201518160040160016101000a81548160ff021916908360ff16021790555060c08201518160050190805190602001906113699291906146f0565b5060e08201518160060160006101000a81548160ff0219169083151502179055506101008201518160060160016101000a81548160ff0219169083151502179055506101208201518160060160026101000a81548160ff0219169083151502179055506101408201518160060160036101000a81548160ff021916908315150217905550610160820151816007015561018082015181600901556101a082015181600a01556101c082015181600b0160006101000a81548160ff0219169083151502179055506101e082015181600b0160016101000a81548160ff02191690831515021790555061020082015181600b0160026101000a81548160ff02191690831515021790555061022082015181600b0160036101000a81548160ff02191690831515021790555061024082015181600c015561026082015181600d01555050506114b36145c3565b90506001600d805490500392506001600b60008282540192505081905550601060003373ffffffffffffffffffffffffffffffffffffffff1673ffffffffffffffffffffffffffffffffffffffff16815260200190815260200160002080548060010182816115229190614770565b916000526020600020900160008590919091505550600e805480600101828161154b919061479c565b91600052602060002090602091828204019190066001909190916101000a81548160ff02191690831515021790555050600f805480600101828161158f919061479c565b91600052602060002090602091828204019190066000909190916101000a81548160ff021916908315150217905550507f2c230862c7869ceafe2db15dda54a94fd7e87a574af1360a09e7a6f8acbc6bd333600d858154811015156115f057fe5b90600052602060002090600e020160000160009054906101000a900473ffffffffffffffffffffffffffffffffffffffff168686604051808573ffffffffffffffffffffffffffffffffffffffff1673ffffffffffffffffffffffffffffffffffffffff1681526020018473ffffffffffffffffffffffffffffffffffffffff1673ffffffffffffffffffffffffffffffffffffffff16815260200183815260200182815260200194505050505060405180910390a17fe00280f434fd134c148d59d0345a47457ed75114c60d70d759e43848b8faf7f58e8e604051808373ffffffffffffffffffffffffffffffffffffffff1673ffffffffffffffffffffffffffffffffffffffff1681526020018273ffffffffffffffffffffffffffffffffffffffff1673ffffffffffffffffffffffffffffffffffffffff1681526020019250505060405180910390a16000841415611807577fec3d420ffa4da7a9686480af8bca59e8924642e69b2af65e3cebfa7b3fd60dbb8389898c60405180858152602001841515151581526020018315151515815260200180602001828103825283818151815260200191508051906020019080838360005b838110156117c55780820151818401526020810190506117aa565b50505050905090810190601f1680156117f25780820380516001836020036101000a031916815260200191505b509550505050505060405180910390a16119c5565b60018414156118e9577f1f3b72c309501b6d3e1f9d91571c6faef20f943d351b92f44d8c5c8b9d9ad84c83898989898e604051808781526020018615151515815260200185151515158152602001841515151581526020018315151515815260200180602001828103825283818151815260200191508051906020019080838360005b838110156118a557808201518184015260208101905061188a565b50505050905090810190601f1680156118d25780820380516001836020036101000a031916815260200191505b5097505050505050505060405180910390a16119c4565b60028414156119c3577f5c96618013629f155bcf67ccd4858a79107e88a36d2a03d3f6c25f97a6b3fc5a838d8d8d8d6040518086815260200185600019166000191681526020018460ff1660ff1681526020018360ff1660ff16815260200180602001828103825283818151815260200191508051906020019080838360005b83811015611984578082015181840152602081019050611969565b50505050905090810190601f1680156119b15780820380516001836020036101000a031916815260200191505b50965050505050505060405180910390a15b5b5b50509c9b505050505050505050505050565b6000600660009054906101000a900473ffffffffffffffffffffffffffffffffffffffff1690508073ffffffffffffffffffffffffffffffffffffffff1663d323a4f8336000604051602001526040518263ffffffff167c0100000000000000000000000000000000000000000000000000000000028152600401808273ffffffffffffffffffffffffffffffffffffffff1673ffffffffffffffffffffffffffffffffffffffff168152602001915050602060405180830381600087803b1515611aa157600080fd5b6102c65a03f11515611ab257600080fd5b505050604051805190501515611ac757600080fd5b60009050600d82815481101515611ada57fe5b90600052602060002090600e0201600b0160019054906101000a900460ff16151515611b0557600080fd5b42600d83815481101515611b1557fe5b90600052602060002090600e0201600a0154111515611b3357600080fd5b6001600d83815481101515611b4457fe5b90600052602060002090600e0201600b0160006101000a81548160ff021916908315150217905550601260003373ffffffffffffffffffffffffffffffffffffffff1673ffffffffffffffffffffffffffffffffffffffff1681526020019081526020016000208054806001018281611bbd9190614770565b9160005260206000209001600084909190915055507f62901d9c2f788a5c877cf5a2659a041eedf9a980c6dd3ed22a4878bcc228619b3383604051808373ffffffffffffffffffffffffffffffffffffffff1673ffffffffffffffffffffffffffffffffffffffff1681526020018281526020019250505060405180910390a15050565b60035481565b600a5481565b600080600080600080611c5e6147d6565b600d88815481101515611c6d57fe5b90600052602060002090600e020160010160009054906101000a900473ffffffffffffffffffffffffffffffffffffffff16600d89815481101515611cae57fe5b90600052602060002090600e020160020160009054906101000a900473ffffffffffffffffffffffffffffffffffffffff16600d8a815481101515611cef57fe5b90600052602060002090600e020160060160009054906101000a900460ff16600d8b815481101515611d1d57fe5b90600052602060002090600e020160060160019054906101000a900460ff16600d8c815481101515611d4b57fe5b90600052602060002090600e020160060160039054906101000a900460ff16600d8d815481101515611d7957fe5b90600052602060002090600e020160060160029054906101000a900460ff16600d8e815481101515611da757fe5b90600052602060002090600e0201600501808054600181600116156101000203166002900480601f016020809104026020016040519081016040528092919081815260200182805460018160011615610100020316600290048015611e4d5780601f10611e2257610100808354040283529160200191611e4d565b820191906000526020600020905b815481529060010190602001808311611e3057829003601f168201915b505050505090509650965096509650965096509650919395979092949650565b611e756145af565b601260008373ffffffffffffffffffffffffffffffffffffffff1673ffffffffffffffffffffffffffffffffffffffff168152602001908152602001600020805480602002602001604051908101604052809291908181526020018280548015611efe57602002820191906000526020600020905b815481526020019060010190808311611eea575b50505050509050919050565b600080600080600080600d87815481101515611f2257fe5b90600052602060002090600e020160010160009054906101000a900473ffffffffffffffffffffffffffffffffffffffff16600d88815481101515611f6357fe5b90600052602060002090600e020160020160009054906101000a900473ffffffffffffffffffffffffffffffffffffffff16600d89815481101515611fa457fe5b90600052602060002090600e020160030154600d8a815481101515611fc557fe5b90600052602060002090600e020160040160009054906101000a900460ff16600d8b815481101515611ff357fe5b90600052602060002090600e020160040160019054906101000a900460ff16600d8c81548110151561202157fe5b90600052602060002090600e02016007015495509550955095509550955091939550919395565b60136020528160005260406000208181548110151561206357fe5b9060005260206000209001600091509150505481565b60005481565b600660009054906101000a900473ffffffffffffffffffffffffffffffffffffffff1681565b6000806000806000600d868154811015156120bc57fe5b90600052602060002090600e0201600b0160019054906101000a900460ff1615156120e657600080fd5b600d868154811015156120f557fe5b90600052602060002090600e020160090154600d8781548110151561211657fe5b90600052602060002090600e0201600d0154600d8881548110151561213757fe5b90600052602060002090600e0201600c0154600d8981548110151561215857fe5b90600052602060002090600e0201600b0160009054906101000a900460ff16600d8a81548110151561218657fe5b90600052602060002090600e0201600b0160029054906101000a900460ff169450945094509450945091939590929450565b6011602052816000526040600020818154811015156121d357fe5b9060005260206000209001600091509150505481565b600760009054906101000a900473ffffffffffffffffffffffffffffffffffffffff1681565b600b5481565b600c5481565b600160009054906101000a900460ff1681565b6000600d8281548110151561223f57fe5b90600052602060002090600e020160080160003373ffffffffffffffffffffffffffffffffffffffff1673ffffffffffffffffffffffffffffffffffffffff16815260200190815260200160002060009054906101000a900460ff169050919050565b60085481565b6000600560009054906101000a900473ffffffffffffffffffffffffffffffffffffffff1690508073ffffffffffffffffffffffffffffffffffffffff1663d323a4f8336000604051602001526040518263ffffffff167c0100000000000000000000000000000000000000000000000000000000028152600401808273ffffffffffffffffffffffffffffffffffffffff1673ffffffffffffffffffffffffffffffffffffffff168152602001915050602060405180830381600087803b151561237257600080fd5b6102c65a03f1151561238357600080fd5b50505060405180519050151561239857600080fd5b60009050600d838154811015156123ab57fe5b90600052602060002090600e020160080160003373ffffffffffffffffffffffffffffffffffffffff1673ffffffffffffffffffffffffffffffffffffffff16815260200190815260200160002060009054906101000a900460ff1615151561241357600080fd5b600d8381548110151561242257fe5b90600052602060002090600e0201600b0160019054906101000a900460ff1615151561244d57600080fd5b42600d8481548110151561245d57fe5b90600052602060002090600e0201600a015411151561247b57600080fd5b6001151582151514156124b8576001600d8481548110151561249957fe5b90600052602060002090600e0201600c01600082825401925050819055505b6001600d848154811015156124c957fe5b90600052602060002090600e020160080160003373ffffffffffffffffffffffffffffffffffffffff1673ffffffffffffffffffffffffffffffffffffffff16815260200190815260200160002060006101000a81548160ff0219169083151502179055506001600d8481548110151561253f57fe5b90600052602060002090600e0201600d0160008282540192505081905550601160003373ffffffffffffffffffffffffffffffffffffffff1673ffffffffffffffffffffffffffffffffffffffff16815260200190815260200160002080548060010182816125ae9190614770565b9160005260206000209001600085909190915055507fd1faddd599b0d6b58c83de71d7ff5395895b5891894dcd37f2482f33b2a1c43d3384604051808373ffffffffffffffffffffffffffffffffffffffff1673ffffffffffffffffffffffffffffffffffffffff1681526020018281526020019250505060405180910390a1505050565b61263b6145af565b601060008373ffffffffffffffffffffffffffffffffffffffff1673ffffffffffffffffffffffffffffffffffffffff1681526020019081526020016000208054806020026020016040519081016040528092919081815260200182805480156126c457602002820191906000526020600020905b8154815260200190600101908083116126b0575b50505050509050919050565b600f818154811015156126df57fe5b9060005260206000209060209182820401919006915054906101000a900460ff1681565b60095481565b600560009054906101000a900473ffffffffffffffffffffffffffffffffffffffff1681565b6000806000600d8481548110151561274357fe5b90600052602060002090600e020160090154600d8581548110151561276457fe5b90600052602060002090600e0201600a0154600954600d8781548110151561278857fe5b90600052602060002090600e0201600a0154019250925092509193909250565b600080600d848154811015156127ba57fe5b90600052602060002090600e0201600b0160039054906101000a900460ff161515156127e557600080fd5b600d848154811015156127f457fe5b90600052602060002090600e0201600b0160019054906101000a900460ff16151561281e57600080fd5b600954600d8581548110151561283057fe5b90600052602060002090600e0201600a01540142101561294157600760009054906101000a900473ffffffffffffffffffffffffffffffffffffffff1691508173ffffffffffffffffffffffffffffffffffffffff1663d323a4f8336000604051602001526040518263ffffffff167c0100000000000000000000000000000000000000000000000000000000028152600401808273ffffffffffffffffffffffffffffffffffffffff1673ffffffffffffffffffffffffffffffffffffffff168152602001915050602060405180830381600087803b151561291257600080fd5b6102c65a03f1151561292357600080fd5b50505060405180519050151561293857600080fd5b6000915061294e565b82151561294d57600080fd5b5b600d8481548110151561295d57fe5b90600052602060002090600e0201600b0160029054906101000a900460ff16151561298757600080fd5b821580612a4c57506000600d858154811015156129a057fe5b90600052602060002090600e020160010160009054906101000a900473ffffffffffffffffffffffffffffffffffffffff1673ffffffffffffffffffffffffffffffffffffffff16148015612a4b57506000600d85815481101515612a0157fe5b90600052602060002090600e020160020160009054906101000a900473ffffffffffffffffffffffffffffffffffffffff1673ffffffffffffffffffffffffffffffffffffffff16145b5b15612a8f576001600d85815481101515612a6257fe5b90600052602060002090600e0201600b0160036101000a81548160ff021916908315150217905550614012565b600d84815481101515612a9e57fe5b90600052602060002090600e020160000160009054906101000a900473ffffffffffffffffffffffffffffffffffffffff1690506000600d85815481101515612ae357fe5b90600052602060002090600e020160010160009054906101000a900473ffffffffffffffffffffffffffffffffffffffff1673ffffffffffffffffffffffffffffffffffffffff16141515613c2d576000600d85815481101515612b4357fe5b90600052602060002090600e020160020160009054906101000a900473ffffffffffffffffffffffffffffffffffffffff1673ffffffffffffffffffffffffffffffffffffffff161415156134cd576000600d85815481101515612ba357fe5b90600052602060002090600e0201600701541415612e3d578073ffffffffffffffffffffffffffffffffffffffff16630e6adcdf600d86815481101515612be657fe5b90600052602060002090600e020160020160009054906101000a900473ffffffffffffffffffffffffffffffffffffffff16600d87815481101515612c2757fe5b90600052602060002090600e020160010160009054906101000a900473ffffffffffffffffffffffffffffffffffffffff16600d88815481101515612c6857fe5b90600052602060002090600e020160060160009054906101000a900460ff16600d89815481101515612c9657fe5b90600052602060002090600e020160060160019054906101000a900460ff16600d8a815481101515612cc457fe5b90600052602060002090600e02016005016040518663ffffffff167c0100000000000000000000000000000000000000000000000000000000028152600401808673ffffffffffffffffffffffffffffffffffffffff1673ffffffffffffffffffffffffffffffffffffffff1681526020018573ffffffffffffffffffffffffffffffffffffffff1673ffffffffffffffffffffffffffffffffffffffff168152602001841515151581526020018315151515815260200180602001828103825283818154600181600116156101000203166002900481526020019150805460018160011615610100020316600290048015612e015780601f10612dd657610100808354040283529160200191612e01565b820191906000526020600020905b815481529060010190602001808311612de457829003601f168201915b50509650505050505050600060405180830381600087803b1515612e2457600080fd5b6102c65a03f11515612e3557600080fd5b5050506134c8565b6001600d85815481101515612e4e57fe5b90600052602060002090600e020160070154141561315a578073ffffffffffffffffffffffffffffffffffffffff16638186c350600d86815481101515612e9157fe5b90600052602060002090600e020160020160009054906101000a900473ffffffffffffffffffffffffffffffffffffffff16600d87815481101515612ed257fe5b90600052602060002090600e020160010160009054906101000a900473ffffffffffffffffffffffffffffffffffffffff16600d88815481101515612f1357fe5b90600052602060002090600e020160060160009054906101000a900460ff16600d89815481101515612f4157fe5b90600052602060002090600e020160060160019054906101000a900460ff16600d8a815481101515612f6f57fe5b90600052602060002090600e020160060160039054906101000a900460ff16600d8b815481101515612f9d57fe5b90600052602060002090600e020160060160029054906101000a900460ff16600d8c815481101515612fcb57fe5b90600052602060002090600e02016005016040518863ffffffff167c0100000000000000000000000000000000000000000000000000000000028152600401808873ffffffffffffffffffffffffffffffffffffffff1673ffffffffffffffffffffffffffffffffffffffff1681526020018773ffffffffffffffffffffffffffffffffffffffff1673ffffffffffffffffffffffffffffffffffffffff168152602001861515151581526020018515151515815260200184151515158152602001831515151581526020018060200182810382528381815460018160011615610100020316600290048152602001915080546001816001161561010002031660029004801561311c5780601f106130f15761010080835404028352916020019161311c565b820191906000526020600020905b8154815290600101906020018083116130ff57829003601f168201915b505098505050505050505050600060405180830381600087803b151561314157600080fd5b6102c65a03f1151561315257600080fd5b5050506134c7565b6002600d8581548110151561316b57fe5b90600052602060002090600e02016007015414156134c6578073ffffffffffffffffffffffffffffffffffffffff1663cd26b87b8273ffffffffffffffffffffffffffffffffffffffff16635549ea51600d888154811015156131ca57fe5b90600052602060002090600e020160020160009054906101000a900473ffffffffffffffffffffffffffffffffffffffff166000604051602001526040518263ffffffff167c0100000000000000000000000000000000000000000000000000000000028152600401808273ffffffffffffffffffffffffffffffffffffffff1673ffffffffffffffffffffffffffffffffffffffff168152602001915050602060405180830381600087803b151561328257600080fd5b6102c65a03f1151561329357600080fd5b50505060405180519050600d878154811015156132ac57fe5b90600052602060002090600e020160010160009054906101000a900473ffffffffffffffffffffffffffffffffffffffff16600d888154811015156132ed57fe5b90600052602060002090600e0201600501600d8981548110151561330d57fe5b90600052602060002090600e020160030154600d8a81548110151561332e57fe5b90600052602060002090600e020160040160009054906101000a900460ff16600d8b81548110151561335c57fe5b90600052602060002090600e020160040160019054906101000a900460ff166040518763ffffffff167c0100000000000000000000000000000000000000000000000000000000028152600401808781526020018673ffffffffffffffffffffffffffffffffffffffff1673ffffffffffffffffffffffffffffffffffffffff1681526020018060200185600019166000191681526020018460ff1660ff1681526020018360ff1660ff16815260200182810382528681815460018160011615610100020316600290048152602001915080546001816001161561010002031660029004801561348d5780601f106134625761010080835404028352916020019161348d565b820191906000526020600020905b81548152906001019060200180831161347057829003601f168201915b5050975050505050505050600060405180830381600087803b15156134b157600080fd5b6102c65a03f115156134c257600080fd5b5050505b5b5b613c28565b6000600d858154811015156134de57fe5b90600052602060002090600e0201600701541415613704578073ffffffffffffffffffffffffffffffffffffffff1663ca1885f7600d8681548110151561352157fe5b90600052602060002090600e020160010160009054906101000a900473ffffffffffffffffffffffffffffffffffffffff16600d8781548110151561356257fe5b90600052602060002090600e020160060160009054906101000a900460ff16600d8881548110151561359057fe5b90600052602060002090600e020160060160019054906101000a900460ff16600d898154811015156135be57fe5b90600052602060002090600e02016005016040518563ffffffff167c0100000000000000000000000000000000000000000000000000000000028152600401808573ffffffffffffffffffffffffffffffffffffffff1673ffffffffffffffffffffffffffffffffffffffff1681526020018415151515815260200183151515158152602001806020018281038252838181546001816001161561010002031660029004815260200191508054600181600116156101000203166002900480156136c95780601f1061369e576101008083540402835291602001916136c9565b820191906000526020600020905b8154815290600101906020018083116136ac57829003601f168201915b505095505050505050600060405180830381600087803b15156136eb57600080fd5b6102c65a03f115156136fc57600080fd5b505050613c27565b6001600d8581548110151561371557fe5b90600052602060002090600e02016007015414156139ad578073ffffffffffffffffffffffffffffffffffffffff166378ebd005600d8681548110151561375857fe5b90600052602060002090600e020160010160009054906101000a900473ffffffffffffffffffffffffffffffffffffffff16600d8781548110151561379957fe5b90600052602060002090600e020160060160009054906101000a900460ff16600d888154811015156137c757fe5b90600052602060002090600e020160060160019054906101000a900460ff16600d898154811015156137f557fe5b90600052602060002090600e020160060160039054906101000a900460ff16600d8a81548110151561382357fe5b90600052602060002090600e020160060160029054906101000a900460ff16600d8b81548110151561385157fe5b90600052602060002090600e02016005016040518763ffffffff167c0100000000000000000000000000000000000000000000000000000000028152600401808773ffffffffffffffffffffffffffffffffffffffff1673ffffffffffffffffffffffffffffffffffffffff16815260200186151515158152602001851515151581526020018415151515815260200183151515158152602001806020018281038252838181546001816001161561010002031660029004815260200191508054600181600116156101000203166002900480156139705780601f1061394557610100808354040283529160200191613970565b820191906000526020600020905b81548152906001019060200180831161395357829003601f168201915b5050975050505050505050600060405180830381600087803b151561399457600080fd5b6102c65a03f115156139a557600080fd5b505050613c26565b6002600d858154811015156139be57fe5b90600052602060002090600e0201600701541415613c25578073ffffffffffffffffffffffffffffffffffffffff1663696c5219600d86815481101515613a0157fe5b90600052602060002090600e020160010160009054906101000a900473ffffffffffffffffffffffffffffffffffffffff16600d87815481101515613a4257fe5b90600052602060002090600e0201600501600d88815481101515613a6257fe5b90600052602060002090600e020160030154600d89815481101515613a8357fe5b90600052602060002090600e020160040160009054906101000a900460ff16600d8a815481101515613ab157fe5b90600052602060002090600e020160040160019054906101000a900460ff166000604051602001526040518663ffffffff167c0100000000000000000000000000000000000000000000000000000000028152600401808673ffffffffffffffffffffffffffffffffffffffff1673ffffffffffffffffffffffffffffffffffffffff1681526020018060200185600019166000191681526020018460ff1660ff1681526020018360ff1660ff168152602001828103825286818154600181600116156101000203166002900481526020019150805460018160011615610100020316600290048015613be55780601f10613bba57610100808354040283529160200191613be5565b820191906000526020600020905b815481529060010190602001808311613bc857829003601f168201915b50509650505050505050602060405180830381600087803b1515613c0857600080fd5b6102c65a03f11515613c1957600080fd5b50505060405180519050505b5b5b5b614011565b6000600d85815481101515613c3e57fe5b90600052602060002090600e0201600701541415613d49578073ffffffffffffffffffffffffffffffffffffffff166331a79198600d86815481101515613c8157fe5b90600052602060002090600e020160020160009054906101000a900473ffffffffffffffffffffffffffffffffffffffff166040518263ffffffff167c0100000000000000000000000000000000000000000000000000000000028152600401808273ffffffffffffffffffffffffffffffffffffffff1673ffffffffffffffffffffffffffffffffffffffff168152602001915050600060405180830381600087803b1515613d3057600080fd5b6102c65a03f11515613d4157600080fd5b505050614010565b6001600d85815481101515613d5a57fe5b90600052602060002090600e0201600701541415613e65578073ffffffffffffffffffffffffffffffffffffffff166311c60418600d86815481101515613d9d57fe5b90600052602060002090600e020160020160009054906101000a900473ffffffffffffffffffffffffffffffffffffffff166040518263ffffffff167c0100000000000000000000000000000000000000000000000000000000028152600401808273ffffffffffffffffffffffffffffffffffffffff1673ffffffffffffffffffffffffffffffffffffffff168152602001915050600060405180830381600087803b1515613e4c57600080fd5b6102c65a03f11515613e5d57600080fd5b50505061400f565b6002600d85815481101515613e7657fe5b90600052602060002090600e020160070154141561400e578073ffffffffffffffffffffffffffffffffffffffff16630e9defff8273ffffffffffffffffffffffffffffffffffffffff16635549ea51600d88815481101515613ed557fe5b90600052602060002090600e020160020160009054906101000a900473ffffffffffffffffffffffffffffffffffffffff166000604051602001526040518263ffffffff167c0100000000000000000000000000000000000000000000000000000000028152600401808273ffffffffffffffffffffffffffffffffffffffff1673ffffffffffffffffffffffffffffffffffffffff168152602001915050602060405180830381600087803b1515613f8d57600080fd5b6102c65a03f11515613f9e57600080fd5b505050604051805190506040518263ffffffff167c010000000000000000000000000000000000000000000000000000000002815260040180828152602001915050600060405180830381600087803b1515613ff957600080fd5b6102c65a03f1151561400a57600080fd5b5050505b5b5b5b5b6001600d8581548110151561402357fe5b90600052602060002090600e0201600b0160036101000a81548160ff0219169083151502179055506000600f8581548110151561405c57fe5b90600052602060002090602091828204019190066101000a81548160ff021916908315150217905550601360003373ffffffffffffffffffffffffffffffffffffffff1673ffffffffffffffffffffffffffffffffffffffff16815260200190815260200160002080548060010182816140d69190614770565b9160005260206000209001600086909190915055507fed7c73834db4ae22add7f637175d8a32a1dddae4c154ccd25195b77df4c8d18d338585604051808473ffffffffffffffffffffffffffffffffffffffff1673ffffffffffffffffffffffffffffffffffffffff16815260200183815260200182151515158152602001935050505060405180910390a150505050565b60126020528160005260406000208181548110151561418357fe5b9060005260206000209001600091509150505481565b600080600d838154811015156141ab57fe5b90600052602060002090600e0201600b0160019054906101000a900460ff161515156141d657600080fd5b42600d848154811015156141e657fe5b90600052602060002090600e0201600a015410151561420457600080fd5b600560009054906101000a900473ffffffffffffffffffffffffffffffffffffffff169050600d8381548110151561423857fe5b90600052602060002090600e0201600b0160009054906101000a900460ff161561429e57600091506001600d8481548110151561427157fe5b90600052602060002090600e0201600b0160036101000a81548160ff0219169083151502179055506143ee565b8073ffffffffffffffffffffffffffffffffffffffff1663234d34de6000604051602001526040518163ffffffff167c0100000000000000000000000000000000000000000000000000000000028152600401602060405180830381600087803b151561430a57600080fd5b6102c65a03f1151561431b57600080fd5b50505060405180519050600a54026064600d8581548110151561433a57fe5b90600052602060002090600e0201600d015402101580156143a157506064600d8481548110151561436757fe5b90600052602060002090600e0201600d015402600c54600d8581548110151561438c57fe5b90600052602060002090600e0201600c015402115b156143af57600191506143ed565b600091506001600d848154811015156143c457fe5b90600052602060002090600e0201600b0160036101000a81548160ff0219169083151502179055505b5b6001600d848154811015156143ff57fe5b90600052602060002090600e0201600b0160016101000a81548160ff02191690831515021790555081600d8481548110151561443757fe5b90600052602060002090600e0201600b0160026101000a81548160ff0219169083151502179055506000600e8481548110151561447057fe5b90600052602060002090602091828204019190066101000a81548160ff0219169083151502179055506001600f848154811015156144aa57fe5b90600052602060002090602091828204019190066101000a81548160ff0219169083151502179055507f297f1f08d2ef8c90272f7ee3e1d4272015a96cdff8a252b60547b9e432e723603384604051808373ffffffffffffffffffffffffffffffffffffffff1673ffffffffffffffffffffffffffffffffffffffff1681526020018281526020019250505060405180910390a150919050565b600e8181548110151561455357fe5b9060005260206000209060209182820401919006915054906101000a900460ff1681565b6001809054906101000a900460ff1681565b600460009054906101000a900473ffffffffffffffffffffffffffffffffffffffff1681565b602060405190810160405280600081525090565b61028060405190810160405280600073ffffffffffffffffffffffffffffffffffffffff168152602001600073ffffffffffffffffffffffffffffffffffffffff168152602001600073ffffffffffffffffffffffffffffffffffffffff16815260200160008019168152602001600060ff168152602001600060ff16815260200161464d6147ea565b815260200160001515815260200160001515815260200160001515815260200160001515815260200160008152602001600081526020016000815260200160001515815260200160001515815260200160001515815260200160001515815260200160008152602001600081525090565b8154818355818115116146eb57600e0281600e0283600052602060002091820191016146ea91906147fe565b5b505050565b828054600181600116156101000203166002900490600052602060002090601f016020900481019282601f1061473157805160ff191683800117855561475f565b8280016001018555821561475f579182015b8281111561475e578251825591602001919060010190614743565b5b50905061476c919061499a565b5090565b81548183558181151161479757818360005260206000209182019101614796919061499a565b5b505050565b8154818355818115116147d157601f016020900481601f016020900483600052602060002091820191016147d0919061499a565b5b505050565b602060405190810160405280600081525090565b602060405190810160405280600081525090565b61499791905b8082111561499357600080820160006101000a81549073ffffffffffffffffffffffffffffffffffffffff02191690556001820160006101000a81549073ffffffffffffffffffffffffffffffffffffffff02191690556002820160006101000a81549073ffffffffffffffffffffffffffffffffffffffff021916905560038201600090556004820160006101000a81549060ff02191690556004820160016101000a81549060ff02191690556005820160006148c291906149bf565b6006820160006101000a81549060ff02191690556006820160016101000a81549060ff02191690556006820160026101000a81549060ff02191690556006820160036101000a81549060ff021916905560078201600090556009820160009055600a820160009055600b820160006101000a81549060ff0219169055600b820160016101000a81549060ff0219169055600b820160026101000a81549060ff0219169055600b820160036101000a81549060ff0219169055600c820160009055600d82016000905550600e01614804565b5090565b90565b6149bc91905b808211156149b85760008160009055506001016149a0565b5090565b90565b50805460018160011615610100020316600290046000825580601f106149e55750614a04565b601f016020900490600052602060002090810190614a03919061499a565b5b505600a165627a7a72305820ec36c4d4c9a2e55e5a9da530a8e92fd096020231c33b43723d534a0bfee060f20029",
  "source": "pragma solidity ^0.4.11;\n\n// Standard contract for promulgation of a norm\n\nimport \"../standardProcedure.sol\";\nimport \"../standardOrgan.sol\";\n\n\ncontract voteOnAdminsProcedure is Procedure{\n    // 1: Presidential Election\n    // 2: Membership addition\n    // 3: Constitutionnal reform\n    // 4: Norm promulgation\n    // 5: Moderators election\n    // 6: Simple nomination\n    // 7: Cooptation\n    // 8: Exclusion\n    // 9: VoteOnNorms\n    // 10: VoteOnAdmins\n    int public procedureTypeNumber = 10;\n\n    // Which organ will be affected\n    address public affectedOrganContract;\n\n    // Organ in which the voters are registered\n    address public votersOrganContract;\n\n    // Organ in which the voters with veto power are registered\n    address public membersWithVetoOrganContract;\n\n    // Organ in which final promulgators are listed\n    address public finalPromulgatorsOrganContract;\n\n    // ############## Variable to set up when declaring the procedure\n    // ####### Vote creation process\n\n    // ####### Voting process\n    // Time for participant to vote\n    uint public votingPeriodDuration;\n\n    // Time for president to promulgat\n    uint public promulgationPeriodDuration;\n\n    // ####### Resolution process\n    // Minimum participation to validate election. This is a percentage value; for 40% quorum, quorumSize = 40\n    uint public quorumSize;\n\n    // Variable of the procedure to keep track of propositions\n    uint public totalPropositionNumber;\n\n    // Minimum proportion of votes to win election. This is a percentage value; for 50% majority, majoritySize = 50\n    uint public majoritySize;\n\n    // Proposition structure\n    struct Proposition {\n\n        // Proposition details\n        address targetOrgan;\n        address contractToAdd;\n        address contractToRemove;\n        bytes32 ipfsHash; // ID of proposal on IPFS\n        uint8 hash_function;\n        uint8 size;\n        string name; // Admin name\n        bool canAdd;  // if true, Admin can add norms\n        bool canDelete;  // if true, Admin can delete norms\n        bool canSpend;\n        bool canDeposit;\n        uint propositionType;\n\n\n        // **** Voting variables\n        // Mapping to track user votes\n        mapping(address => bool) hasUserVoted;\n        uint startDate;\n        uint votingPeriodEndDate;\n        bool wasVetoed;\n        bool wasCounted;\n        bool wasAccepted;\n        bool wasEnded;\n        uint voteFor;\n        // uint voteAgainst;\n        uint totalVoteCount;\n\n    }\n\n\n\n    // A dynamically-sized array of `Proposition` structs.\n    Proposition[] propositions;\n\n    // Dynamic size array of status of propositions\n    bool[] public propositionsWaitingEndOfVote;\n    bool[] public propositionsWaitingPromulgation;\n\n    // Mapping each proposition to the user creating it\n    mapping (address => uint[]) public propositionToUser;    \n\n    // Mapping each proposition to the user who participated\n    mapping (address => uint[]) public propositionToVoter;\n\n    // Mapping each proposition to the user vetoing it\n    mapping (address => uint[]) public propositionToVetoer;\n\n    // Mapping each proposition to the user promulgating it\n    mapping (address => uint[]) public propositionToPromulgator;\n\n    \n\n    // Events\n\n    event createPropositionEvent(address _from, address _targetOrgan, uint _propositionType, uint _propositionNumber);\n    event createPropositionDetails(address _contractToAdd, address _contractToRemove);\n    event createMasterPropositionEvent(uint _propositionNumber, bool _canAdd, bool _canDelete, string _name);\n    event createAdminPropositionEvent(uint _propositionNumber, bool _canAdd, bool _canDelete, bool _canDeposit, bool _canSpend, string _name);\n    event createNormPropositionEvent(uint _propositionNumber, bytes32 _ipfsHash, uint8 _hash_function, uint8 _size, string name);\n\n    event voteOnProposition(address _from, uint _propositionNumber);\n    event vetoProposition(address _from, uint _propositionNumber);\n    event countVotes(address _from, uint _propositionNumber);\n    event promulgatePropositionEvent(address _from, uint _propositionNumber, bool _promulgate);\n\n    /// Create a new ballot to choose one of `proposalNames`.\n    function createProposition(address _targetOrgan, address _contractToAdd, address _contractToRemove, bytes32 _ipfsHash, uint8 _hash_function, uint8 _size, string _name, bool _canAdd, bool _canDelete, bool _canDeposit, bool _canSpend, uint _propositionType) public returns (uint propositionNumber){\n\n            // Check the proposition creator is able to make a proposition\n            Organ voterRegistryOrgan = Organ(votersOrganContract);\n            require(voterRegistryOrgan.isNorm(msg.sender));\n            delete voterRegistryOrgan;\n\n            // Retrieving proposition details\n            Proposition memory newProposition;\n            newProposition.targetOrgan = _targetOrgan;\n            newProposition.contractToAdd = _contractToAdd;\n            newProposition.contractToRemove = _contractToRemove;\n            newProposition.ipfsHash = _ipfsHash;\n            newProposition.hash_function = _hash_function;\n            newProposition.size = _size;\n            newProposition.canAdd = _canAdd;\n            newProposition.canDelete = _canDelete;\n            newProposition.canSpend = _canSpend;\n            newProposition.canDeposit = _canDeposit;\n            newProposition.propositionType = _propositionType;\n            newProposition.name = _name;\n\n            // Instanciating proposition\n\n            newProposition.startDate = now;\n            newProposition.votingPeriodEndDate = now + votingPeriodDuration;            \n            newProposition.wasVetoed = false;\n            newProposition.wasEnded = false;\n            newProposition.wasCounted = false;\n            newProposition.wasAccepted = false;\n            newProposition.totalVoteCount = 0;\n            newProposition.voteFor = 0;\n            // newProposition.voteAgainst = 0;\n            propositions.push(newProposition);\n            delete newProposition;\n\n            propositionNumber = propositions.length - 1;\n\n            // Tracking proposition being deposed\n            totalPropositionNumber += 1;\n            propositionToUser[msg.sender].push(propositionNumber);\n            propositionsWaitingEndOfVote.push(true);\n            propositionsWaitingPromulgation.push(false);\n\n            // proposition creation event\n            createPropositionEvent(msg.sender, propositions[propositionNumber].targetOrgan, _propositionType, propositionNumber);\n            createPropositionDetails(_contractToAdd, _contractToRemove);\n            if (_propositionType == 0)\n            {\n                // Master proposition event\n            createMasterPropositionEvent(propositionNumber, _canAdd, _canDelete, _name);\n            }\n            else if (_propositionType == 1)\n            {\n                // Admin proposition event\n            createAdminPropositionEvent(propositionNumber, _canAdd, _canDelete, _canDeposit, _canSpend, _name);\n            }\n            else if (_propositionType == 2)\n            {\n                // Norm proposition event\n            createNormPropositionEvent(propositionNumber, _ipfsHash, _hash_function, _size, _name);\n            }\n\n    }\n\n    /// Vote for a proposition\n    function vote(uint _propositionNumber, bool _acceptProposition) public {\n        // Check the voter is able to vote on a proposition\n        Organ voterRegistryOrgan = Organ(votersOrganContract);\n        require(voterRegistryOrgan.isNorm(msg.sender));\n        delete voterRegistryOrgan;\n        \n        // Check if voter already voted\n        require(!propositions[_propositionNumber].hasUserVoted[msg.sender]);\n\n        // Check if vote is still active\n        require(!propositions[_propositionNumber].wasCounted);\n\n        // Check if voting period ended\n        require(propositions[_propositionNumber].votingPeriodEndDate > now);\n\n        // Adding vote\n        if(_acceptProposition == true)\n        {propositions[_propositionNumber].voteFor += 1;}\n\n        // Loggin that user voted\n        propositions[_propositionNumber].hasUserVoted[msg.sender] = true;\n        \n        // Adding vote count\n        propositions[_propositionNumber].totalVoteCount += 1;\n\n        // Logging that user voted\n        propositionToVoter[msg.sender].push(_propositionNumber);\n\n        // create vote event\n        voteOnProposition(msg.sender, _propositionNumber);\n    }\n\n        /// Vote for a candidate\n    function veto(uint _propositionNumber) public {\n\n        // Check the voter is able to veto the proposition\n        Organ membersWithVetoOrgan = Organ(membersWithVetoOrganContract);\n        require(membersWithVetoOrgan.isNorm(msg.sender));\n        delete membersWithVetoOrgan;\n        \n        // Check if vote is still active\n        require(!propositions[_propositionNumber].wasCounted);\n\n        // Check if voting period ended\n        require(propositions[_propositionNumber].votingPeriodEndDate > now);\n\n        // Log that proposition was vetoed\n        propositions[_propositionNumber].wasVetoed = true;\n\n        // Log that user vetoed this proposition\n        propositionToVetoer[msg.sender].push(_propositionNumber);\n\n        //  Create veto event\n        vetoProposition(msg.sender, _propositionNumber);\n\n    }\n\n    // The vote is finished and we close it. This triggers the outcome of the vote.\n\n    function endPropositionVote(uint _propositionNumber) public returns (bool hasBeenAccepted) {\n        // We check if the vote was already counted\n        require(!propositions[_propositionNumber].wasCounted);\n\n        // Checking that the vote can be closed\n        require(propositions[_propositionNumber].votingPeriodEndDate < now);\n\n        Organ voterRegistryOrgan = Organ(votersOrganContract);\n\n        // We check that Quorum was obtained and that a majority of votes were cast in favor of the proposition\n        if (propositions[_propositionNumber].wasVetoed )\n            {hasBeenAccepted=false;\n                propositions[_propositionNumber].wasEnded = true;}\n        else if\n            ((propositions[_propositionNumber].totalVoteCount*100 >= quorumSize*voterRegistryOrgan.getActiveNormNumber()) && (propositions[_propositionNumber].voteFor*majoritySize > propositions[_propositionNumber].totalVoteCount*100))\n            {hasBeenAccepted = true;}\n        else \n            {hasBeenAccepted=false;\n            propositions[_propositionNumber].wasEnded = true;}\n\n\n        // ############## Updating ballot values if vote concluded\n        propositions[_propositionNumber].wasCounted = true;\n        propositions[_propositionNumber].wasAccepted = hasBeenAccepted;\n        propositionsWaitingEndOfVote[_propositionNumber] = false;\n        propositionsWaitingPromulgation[_propositionNumber] = true;\n\n        countVotes(msg.sender, _propositionNumber);\n    }\n\n    function promulgateProposition(uint _propositionNumber, bool _promulgate) public {\n        // Checking if ballot was already enforced\n        require(!propositions[_propositionNumber].wasEnded );\n\n        // Checking the ballot was counted\n        require(propositions[_propositionNumber].wasCounted);\n\n        // If promulgation is happening before endOfVote + promulgationPeriodDuration, check caller is an official promulgator\n        if (now < propositions[_propositionNumber].votingPeriodEndDate + promulgationPeriodDuration)\n            {        // Check the voter is able to promulgate the proposition\n            Organ promulgatorsOrgan = Organ(finalPromulgatorsOrganContract);\n            require(promulgatorsOrgan.isNorm(msg.sender));\n            delete promulgatorsOrgan;\n            }\n        else { // If Promulgator did not promulgate, the only option is validating\n            require(_promulgate);\n            }\n\n        // Checking the ballot was accepted\n        require(propositions[_propositionNumber].wasAccepted);\n\n        if ((!_promulgate)||((propositions[_propositionNumber].contractToAdd == 0x0000) && (propositions[_propositionNumber].contractToRemove == 0x0000)) )\n        {\n            // The promulgator choses to invalidate the promulgation\n            propositions[_propositionNumber].wasEnded = true;\n        }\n        else\n        {\n            // We initiate the Organ interface to add an Admin\n\n        Organ affectedOrgan = Organ(propositions[_propositionNumber].targetOrgan);\n\n            if(propositions[_propositionNumber].contractToAdd != 0x0000)\n            {\n                if (propositions[_propositionNumber].contractToRemove != 0x0000)\n                    { \n                        // Replacing\n                        if (propositions[_propositionNumber].propositionType == 0)\n                        {\n                        affectedOrgan.replaceMaster(propositions[_propositionNumber].contractToRemove, propositions[_propositionNumber].contractToAdd, propositions[_propositionNumber].canAdd, propositions[_propositionNumber].canDelete, propositions[_propositionNumber].name);\n                        }\n                        else if (propositions[_propositionNumber].propositionType == 1)\n                        {\n                        // Replacing an Admin\n                        affectedOrgan.replaceAdmin(propositions[_propositionNumber].contractToRemove, propositions[_propositionNumber].contractToAdd, propositions[_propositionNumber].canAdd, propositions[_propositionNumber].canDelete, propositions[_propositionNumber].canDeposit, propositions[_propositionNumber].canSpend, propositions[_propositionNumber].name);\n                        }\n                        else if (propositions[_propositionNumber].propositionType == 2)\n                        {\n                        affectedOrgan.replaceNorm(affectedOrgan.getAddressPositionInNorm(propositions[_propositionNumber].contractToRemove) , propositions[_propositionNumber].contractToAdd, propositions[_propositionNumber].name , propositions[_propositionNumber].ipfsHash, propositions[_propositionNumber].hash_function, propositions[_propositionNumber].size);\n                        }\n\n                    }\n                else\n                {\n                    // Adding\n                        if (propositions[_propositionNumber].propositionType == 0)\n                        {\n                        affectedOrgan.addMaster(propositions[_propositionNumber].contractToAdd, propositions[_propositionNumber].canAdd, propositions[_propositionNumber].canDelete, propositions[_propositionNumber].name);\n                        }\n                        else if (propositions[_propositionNumber].propositionType == 1)\n                        {\n                        // Adding an Admin\n                        affectedOrgan.addAdmin(propositions[_propositionNumber].contractToAdd, propositions[_propositionNumber].canAdd, propositions[_propositionNumber].canDelete, propositions[_propositionNumber].canDeposit, propositions[_propositionNumber].canSpend, propositions[_propositionNumber].name);\n                        }\n                        else if (propositions[_propositionNumber].propositionType == 2)\n                        {\n                        affectedOrgan.addNorm(propositions[_propositionNumber].contractToAdd, propositions[_propositionNumber].name , propositions[_propositionNumber].ipfsHash, propositions[_propositionNumber].hash_function, propositions[_propositionNumber].size );\n\n                        }\n                }\n            }\n            else \n            {\n                // Removing\n                if (propositions[_propositionNumber].propositionType == 0)\n                {\n                affectedOrgan.remMaster(propositions[_propositionNumber].contractToRemove);\n                }\n                else if (propositions[_propositionNumber].propositionType == 1)\n                {\n                // Removing an Admin\n                affectedOrgan.remAdmin(propositions[_propositionNumber].contractToRemove);\n                }\n                else if (propositions[_propositionNumber].propositionType == 2)\n                {\n                // Removing a norm\n                affectedOrgan.remNorm(affectedOrgan.getAddressPositionInNorm(propositions[_propositionNumber].contractToRemove));\n                }\n                \n            }        \n            \n        }\n        propositions[_propositionNumber].wasEnded = true;\n        propositionsWaitingPromulgation[_propositionNumber] = false;\n        propositionToPromulgator[msg.sender].push(_propositionNumber);\n\n\n        // promulgation event\n        promulgatePropositionEvent(msg.sender, _propositionNumber, _promulgate);\n\n    }\n\n\n    //////////////////////// Functions to communicate with other contracts\n\n    function getPropositionDetails(uint _propositionNumber) public view returns (address _addressToAdd, address _addressToRemove, bool _canAdd, bool _canDelete, bool _canDeposit, bool _canSpend, string _name){\n        return (propositions[_propositionNumber].contractToAdd, propositions[_propositionNumber].contractToRemove, propositions[_propositionNumber].canAdd, propositions[_propositionNumber].canDelete, propositions[_propositionNumber].canDeposit, propositions[_propositionNumber].canSpend, propositions[_propositionNumber].name);\n    }\n    function getPropositionDocumentation(uint _propositionNumber) public view returns (address _addressToAdd, address _addressToRemove, bytes32 _ipfsHash, uint8 _hash_function, uint8 _size, uint _propositionType){\n        return (propositions[_propositionNumber].contractToAdd, propositions[_propositionNumber].contractToRemove, propositions[_propositionNumber].ipfsHash, propositions[_propositionNumber].hash_function, propositions[_propositionNumber].size, propositions[_propositionNumber].propositionType);\n    }\n    function getPropositionDates(uint _propositionNumber) public view returns (uint _startDate, uint _votingPeriodEndDate, uint _promulgatorWindowEndDate){\n        return (propositions[_propositionNumber].startDate, propositions[_propositionNumber].votingPeriodEndDate, propositions[_propositionNumber].votingPeriodEndDate + promulgationPeriodDuration);\n    }\n    function getPropositionStatus(uint _propositionNumber) public view returns (bool _wasCounted, bool _wasEnded){\n        return (propositions[_propositionNumber].wasCounted, propositions[_propositionNumber].wasEnded);\n    }\n    function getVotedPropositionResults(uint _propositionNumber) public view returns (uint _startDate, uint _totalVoteCount, uint _voteFor, bool _wasVetoed, bool _wasAccepted){\n        require(propositions[_propositionNumber].wasCounted);\n        return (propositions[_propositionNumber].startDate, propositions[_propositionNumber].totalVoteCount, propositions[_propositionNumber].voteFor, propositions[_propositionNumber].wasVetoed, propositions[_propositionNumber].wasAccepted);\n        }\n    function getPropositionsCreatedByUser(address _userAddress) public view returns (uint[])\n    {return propositionToUser[_userAddress];}    \n    function getPropositionsVetoedByUser(address _userAddress) public view returns (uint[])\n    {return propositionToVetoer[_userAddress];}  \n    function getPropositionsPromulgatedByUser(address _userAddress) public view returns (uint[])\n    {return propositionToPromulgator[_userAddress];}  \n    function getPropositionsUsedByUser(address _userAddress) public view returns (uint[])\n    {return propositionToVoter[_userAddress];}  \n    function haveIVoted(uint propositionNumber) public view returns (bool IHaveVoted)\n    {return propositions[propositionNumber].hasUserVoted[msg.sender];}\n\n}\n\n",
  "sourcePath": "/Users/henrilieutaud/Documents/Mes documents/97/Workshop/ChainTech/solidity/contracts/procedures/voteOnAdminsProcedure.sol",
  "compiler": {
    "name": "solc",
    "version": "0.4.19+commit.c4cbbb05.Emscripten.clang"
  },
  "schemaVersion": "2.0.0",
  "updatedAt": "2018-04-01T00:08:29.109Z"
}